:020000040800F2
:1000000058080020B11D0008B91D0008BB1D0008DC
:10001000BD1D0008BF1D0008C11D00080000000034
:10002000000000000000000000000000C31D0008E8
:10003000C51D000800000000C71D0008C91D0008FC
:10004000CB1D0008CB1D0008CB1D0008CB1D0008F0
:10005000CB1D0008CB1D0008CB1D0008CB1D0008E0
:10006000CB1D0008CB1D0008CB1D0008CB1D0008D0
:10007000CB1D0008CB1D0008CB1D0008CB1D0008C0
:10008000CB1D0008CB1D0008CB1D0008CB1D0008B0
:10009000CB1D0008CB1D0008CB1D0008CB1D0008A0
:1000A000CB1D0008CB1D0008CB1D0008CB1D000890
:1000B000CB1D0008CB1D0008CB1D0008CB1D000880
:1000C000CB1D0008CB1D0008CB1D0008CB1D000870
:1000D000CB1D0008CB1D0008CB1D0008CB1D000860
:1000E000CB1D0008CB1D0008CB1D0008DFF80CD08D
:1000F00002F0A4FA004800477501000858080020E3
:100100004FF4FA61484300E000BF401EFCD2704744
:1001100030B587B00121042002F09BF8904C914D3E
:1001200004A920680490284601F0ABFE616805919F
:1001300005A9284601F0A5FE0121480402F092F825
:100140004FF4E13000900020ADF80400ADF8060057
:10015000ADF80800ADF80C000C20834CADF80A0097
:100160006946204602F0F4F80121204602F063F9C6
:1001700007B030BD08B50121084602F06AF8012138
:100180007A4801F009FF0121102002F062F80C20EA
:10019000ADF800001027764D8DF8037003248DF81C
:1001A00002406946284601F06CFE0421284601F011
:1001B000D2FE0821284601F0CEFE0121082002F0DF
:1001C00048F86E15ADF800604FF04809DFF8A481DB
:1001D0008DF803908DF802406946404601F051FECB
:1001E0006003ADF800008DF803908DF80240694679
:1001F000404601F046FEA814ADF800008DF80370EB
:100200008DF802406946404601F03BFE3820ADF8CB
:1002100000008DF803708DF802406946404601F0F9
:1002200030FE0821404601F096FE2021404601F0B4
:1002300094FE1021404601F090FEC820FFF760FFB9
:10024000444602E01420FFF75BFF3146204601F0F0
:100250006EFE0028F6D10421284601F07EFE4FF400
:10026000FA642046FFF74CFF0421284601F073FE94
:100270002046FFF745FF0821284601F06EFE204684
:10028000FFF73EFF0821284601F065FEFFF740FF1B
:1002900000F0BAFA3848006800F058FD002449F62A
:1002A000931704F1006000F0AAFD04F58064BC42DD
:1002B000F7D300244FF480663246304904F10060E1
:1002C00000F08CF90421284601F047FE1420FFF7C6
:1002D00017FF0421284601F03EFE1420FFF710FF0F
:1002E00004F58064BC42E7D3DFF87480002408F191
:1002F000080808EB0401324604F1006000F04EFDEE
:1003000004F58064BC42F4D3002432461B4904F156
:10031000006000F063F90421284601F01EFE14205D
:10032000FFF7EEFE0421284601F015FE1420FFF72A
:10033000E7FE04F58064BC42E7D3062000F0B3FA80
:10034000FEE770B5084D04468021284602F02AF9E0
:100350000028F9D0A1B2284602F0C3F8204670BDAB
:1003600080260008000801400044004000023000E0
:1003700000100140000C0140040000203C0000205F
:10038000FA494FF47A620968B1FBF2F14143002067
:1003900001E000BF401C8842FBD3704708B501F064
:1003A00026F9F3494FF4C0400860ADF80000102072
:1003B0008DF8030003208DF80200ED4869461038DF
:1003C00001F05FFD012008BD08B54FF4C040ADF855
:1003D000000004208DF80300E5486946103801F05C
:1003E00050FD012008BD38B50C4600F00C006946F0
:1003F000801C00F0A5FB002222609DF8031042EA59
:10040000016121609DF8022041EA024121609DF8CE
:10041000012041EA022121609DF800201143216062
:10042000012800D0002038BD38B5082806D1D14AAF
:1004300013688B4201D1012038BD116000F00C041B
:100440000422684600F070FB6946204600F078FB05
:100450000128F1D0002038BD38B50C46054600F023
:100460007F4100F0F00001430820FFF7DDFF002886
:1004700022D005F00C05ED1C6946284600F060FB13
:100480006946284600F05CFB002222609DF80310BC
:1004900042EA016121609DF8022041EA02412160A7
:1004A0009DF8012041EA022121609DF800201143BE
:1004B0002160012800D0002038BD38B50D46044623
:1004C00000F07F4100F0F00001430820FFF7ACFF8F
:1004D000002805D034B9A7484168A94201D10120BC
:1004E00038BD456004F00C04042229466846641CAB
:1004F00000F01AFB6946204600F022FB012805D1D6
:100500000E20002100F01CFB0128E9D0002038BD9E
:100510001CB50C460146042201A800F005FB05208D
:1005200001A900F00DFB012820D10F20694600F041
:1005300007FB01281AD10E20694600F001FB0022BA
:1005400022609DF8031042EA016121609DF80220BB
:1005500041EA024121609DF8012041EA0221216027
:100560009DF8002011432160012800D000201CBD0F
:1005700038B50C4601460422684600F0D5FA05203D
:10058000694600F0DDFA012810D1042221466846B0
:1005900000F0CAFA0D20694600F0D2FA012805D110
:1005A0000E20002100F0CCFA012800D0002038BD38
:1005B00038B50D46044670490020FFF77EFF00283D
:1005C0000BD069462046FFF7A3FF002805D0A007FF
:1005D000C10E0098C8402870012038BD2DE9F041B7
:1005E00014460F46054608E039462846FFF7E0FF67
:1005F000002829D0641E6D1C7F1C24B3A807F3D1EA
:10060000DFF87881032C1CD9D8F80000411E29405E
:10061000461AB44201D224F003063246394628462F
:1006200000F0D6FA00280FD035443744A41BE9E780
:1006300039462846FFF7BCFF002805D0641E6D1C14
:100640007F1C002CF4D10120BDE8F0812DE9F041A0
:1006500014460E46054608E03178284600F00DFBAA
:100660000028F1D0641E6D1C761C24B3A807F3D1BA
:10067000DFF80881032C1CD9D8F80000411E29405E
:10068000471ABC4201D224F003073A4631462846B5
:1006900000F065FA0028D7D03D443E44E41BE9E76A
:1006A0003178284600F0E9FA0028CDD0641E6D1C90
:1006B000761C002CF4D10120C6E773B50646002451
:1006C00064252F48019900F0C7FA002813D02C4860
:1006D00046F48031001F00F0BFFA00280BD0284EEE
:1006E000083E01A9304600F0A6FA002803D0019880
:1006F000C00301D501207CBD641CAC42F1DB0020AD
:100700007CBD2DE9F04393B00F46DDE91A8904461C
:100710001E4615464421684601F085FF8DE86003BA
:1007200060680990A0680D902068CDE90E074FF031
:1007300080701090684600F0B5FA00283DD0104E49
:10074000104D0024083E11A9304600F074FA98B309
:100750001198800318D50A4800216F460C4664257D
:10076000001F00F079FA38B312E0000014000020F6
:10077000100C014008000020500000230000002061
:10078000F8ED00E040420F00641CAC42DBD313E004
:100790003946304600F04FFA70B13868C00302D4D1
:1007A000641CAC42F4DBAC4206D03946F94800F098
:1007B00042FA08B1009818B1002013B0BDE8F083E8
:1007C0000120FAE71CB500F0ABFA00281BD09E20F0
:1007D0008DF80000E7208DF801006946102000F038
:1007E0003BFF00F09DFA00280DD000208DF800009E
:1007F0006946082000F030FF01A90020FFF7F3FD53
:10080000012800D000201CBDF8B50020E2490446B4
:100810000090401E086064254860FFF7BFFDFFF7A9
:10082000D1FF002824D01E210020FFF7FDFD002865
:100830001ED000210820FFF7F7FD002818D04FF048
:10084000A0410420FFF7F0FD002811D04FF0204612
:1008500069460420FFF7C7FD002809D0009836EA52
:10086000000002D0641CAC42F2DBAC4201D100209B
:10087000F8BDCA490420FFF7D7FD0028F8D00021B1
:100880000820FFF7D1FD0028F2D00120F8BD002894
:1008900008D1C048EC380168C14A01F4E061114355
:1008A00000F0DAB97047F8B502240546062801D0F1
:1008B000FFF774FD2A46BB49B64D4E1C083D072A7A
:1008C00072D2DFE802F0041708565872880001203F
:1008D000FFF7DDFF7DE00120FFF7D9FF1420FFF7D0
:1008E0004FFD0020FFF7D3FF1420FFF749FDFFF76E
:1008F0006BFD6EE0FFF788FF00286BD00FE0641EF1
:1009000064B2002C6EDD0120FFF7C1FF1420FFF759
:1009100037FD0020FFF7BBFF1420FFF731FD314604
:10092000284600F099F90028E9D09A4C0121241DAD
:10093000204600F091F900284CD00120FFF7A7FFD6
:100940001420FFF71DFD0020FFF7A1FF1420FFF783
:1009500017FD6946284600F06EF900283AD0009845
:100960008003F6D50021204600F076F9002831D02A
:100970002FE02846F8E7FFF725FF00282AD01E21A0
:100980000020FFF751FD002824D000210820FFF7A8
:100990004BFD00281ED04FF0A0410420FFF744FD7E
:1009A000002817D03146E4E71CE0FFF72DFF0028B0
:1009B00010D07C492846C91C00F04EF9002809D007
:1009C0006946284600F037F9002803D000988003D4
:1009D000F6D50120F8BD284600F03EF90028F9D0F0
:1009E000FFF7F2FC0020F8BDF8B50446062801D058
:1009F000FFF7D4FC6B4E674DF61CF11E083D072C2B
:100A000073D2DFE804F004170852587388000120FD
:100A1000FFF73DFF7DE00120FFF739FF1420FFF7CE
:100A2000AFFC0020FFF733FF1420FFF7A9FCFFF70E
:100A3000CBFC6EE0FFF7E8FE00286BD031462C4679
:100A4000284600F009F9002864D06946204600F0E5
:100A5000F2F800285ED000988003F6D54D4D0121B4
:100A60002D1D284600F0F8F8002853D0494E69465D
:100A7000EC3E304600F0DFF800284BD0009800F440
:100A8000E06147480143304600F0E6F8002841D0D5
:100A90001420FFF775FC6946204600F0CCF80028CA
:100AA00038D000988003F6D50021284600F0D4F80D
:100AB00000282FD02DE0FFF785FE00282AD01E2128
:100AC0000020FFF7B1FC002824D000210820FFF708
:100AD000ABFC00281ED04FF0A0410420FFF7A4FC7F
:100AE000002817D02F49491CDFE71BE0FFF78CFED9
:100AF00000280FD03146284600F0AEF8002809D073
:100B00006946284600F097F8002803D00098800333
:100B1000F6D50120F8BD284600F09EF80028F9D04F
:100B2000FFF752FC0020F8BD10B5002305E0DC0003
:100B300021FA04F4C4545B1CDBB29342F7D310BD1A
:100B400070B50D46064600242946304601F06BF884
:100B5000022803D1641CE4B20A2CF5D370BDF8B5A9
:100B60000D460446AAB196080F490020FFF7A5FCE0
:100B700000282CD00527042221466846FFF7D4FF21
:100B800069463846FFF7DCFF01281FD10D270024F6
:100B900014E01BE0F8ED00E008000020000F00501A
:100BA0000400FA0500005FA05200002329463846E1
:100BB000FFF7C6FF012809D1641C2D1DB442F5D3EF
:100BC0000E200021FFF7BCFF012800D00020F8BD57
:100BD000F8B50D46044662B3960859490020FFF760
:100BE0006CFC002826D00527042221466846FFF722
:100BF0009BFF69463846FFF7A3FF012819D10F274D
:100C000000213846FFF79CFF012812D10024761EF0
:100C100007E029463846FFF793FF012809D1641CF5
:100C20002D1DB442F5D30E202946FFF789FF012878
:100C300000D00020F8BD70B50C46054640490020A4
:100C4000FFF73BFC002806D021462846FFF760FC52
:100C5000002800D0012070BD70B50C46054638490B
:100C60000020FFF72AFC002806D021462846FFF77F
:100C70007FFC002800D0012070BD70B50C463049C3
:100C80000546891E0020FFF718FC002809D0A80798
:100C9000C00E04FA00F12846FFF76AFC002800D0D5
:100CA000012070BD38B5054600210820FFF7BCFBC8
:100CB000002832D00024204655F82410FFF7FDFC10
:100CC00000282AD0641C042CF5D30920696AFFF798
:100CD000F4FC002821D00D24204655F82410FFF7FD
:100CE000ECFC002819D0641C102CF5D31020296CC2
:100CF000FFF7E3FC002810D012491348FFF7ACFFC0
:100D000000280AD069460420FFF76DFB002804D0B4
:100D1000009810F0A00F01D0002038BD012038BD90
:100D20001CB500206A46FF211154401CC0B208289F
:100D3000FAD31146332000F08FFC01201CBD0000C7
:100D40005200002301005FA0F0ED00E07CB50546F5
:100D50000120FFF7A8FD98B1394CD4E90902E16AF6
:100D6000FFF774FC70B100200090019003462A4602
:100D700004F114002168FFF7C4FC28B100207CBDF9
:100D800003207CBD04207CBD06207CBD10B5022064
:100D9000FFF789FDFFF718FB002010BD2DE9FC418E
:100DA00014460F460646DFF898801FE0D8F830104A
:100DB000A14201D20D4600E025462A463946D8F820
:100DC0002000FFF743FCB0B10022D8F82010CDE995
:100DD00000121B4832461430D8F83030D8F81010C2
:100DE000FFF78FFC48B12E442F44641B002CDDD14B
:100DF0000020BDE8FC810520FBE70B20F9E71CB5CE
:100E00000021009101910E4902460D48C968002356
:100E10001430FFF776FC08B100201CBD09201CBD72
:100E20001CB500240648009401948168234622469C
:100E30001430FFF766FC08B120461CBD0A201CBD1B
:100E400068C1000845F6C0514843401EFDD17047B7
:100E5000F0B5037842784479D0F80200FC4D64F391
:100E60001F60D40705F1040606D0DF074FF40054D5
:100E700001D02C6000E03460940706D59F074FF442
:100E8000804401D52C6000E03460F14E361F371FDE
:100E9000002480B3EF4DA84200D928464FF0E0254A
:100EA000AC6100EBC000C000686105202861D0077C
:100EB00004D03068C0F34030984216D1900705D571
:100EC0003868C0F38030B0EB530F0ED1500702D515
:100ED000B4EB930F09D1900602D5B4EB531F04D1A4
:100EE000100607D5B4EBD31F04D02869C0F3004027
:100EF0000028DCD02C6130683A68C0F34030C2F37F
:100F0000803240EA42000870D348F0BD2DE9F04F2E
:100F100087B0044605900020DFF840A3CDE9010129
:100F20008D1C8AF8000003906678A41C0746002EEA
:100F300071D014F8018B5FEA88716DD5A7B3C848EA
:100F4000B0F80A9008F01100012807D0574669460A
:100F50000E2000F068FE02280ED013E069464046DD
:100F600000F061FE02280ED1B9F1010903D39AF80D
:100F700000100029F2D0F8E0B9F1010902D3397864
:100F80000029E4D000270128F5D1009905F8011BBC
:100F90000099090A05F8011B0099090C05F8021BC4
:100FA0000099090E05F8011C5FEAC8614FD5E17888
:100FB00054F8040B61F31F600490A948B0F80CB01A
:100FC0005FEAC87013D0A648B0F80A9000214046E6
:100FD00000F029FE022802D0012807D107E0B9F16C
:100FE000010903D39AF800100029EFD0BDE09C4816
:100FF000B0F80A906946404600F015FE022802D07B
:10100000012818D109E0B9F1010914D39AF80010A8
:101010000029EFD00FE0C6E055E09149009A096938
:101020001140049A914206D0BBF1010B03D39AF808
:1010300000100029DBD08A49009A09691140049AFE
:10104000914201D040F01000012817D139E08449C5
:10105000B1F80A905FEAC87113D097BB00214046EF
:1010600000F0E1FD022802D001287ED107E0B9F1AD
:1010700001097AD39AF800100029EFD075E0012712
:101080001FE06946404600F0CEFD022802D001284C
:101090006BD107E0B9F1010967D39AF80010002974
:1010A000EFD062E0009905F8011B0099090A05F8E4
:1010B000011B0099090C05F8021B0099090E05F89F
:1010C000011C002146E01FB36548B0F80A9069464C
:1010D0000E2000F0A8FD022802D0012845D107E02B
:1010E000B9F1010941D39AF800100029EFD03CE092
:1010F000009805F8010B0098000A05F8010B00980C
:10110000000C05F8020B0098000E05F8010C0027F2
:10111000E17854F8040B61F31F6000905FEA886186
:1011200003D54F490861012015E04D48B0F80A90F9
:101130006946404600F077FD022802D0012814D10C
:1011400007E0B9F1010910D39AF800100029EFD097
:101150000BE0012103910199491C01919AF80010BB
:1011600019B9761E7FF4E5AE09E046B114F8011B0B
:101170008A0701D5C90600D5241D761EF5E701288A
:1011800032D10FB336485746468969460E2000F0E3
:101190004AFD022802D0012826D105E0761E23D37D
:1011A00039780029F1D01FE0009905F8011B00995A
:1011B000090A05F8011B0099090C05F8021B0099A2
:1011C000090E05F8011C0FE0039969B12448574640
:1011D000468900210E2000F026FD022804D1761E4B
:1011E00002D339780029F4D0DDE901121170029997
:1011F00048700298291A059807B0201A41EA004061
:10120000BDE8F08F2DE9F84F0025DFF85080064645
:1012100028468A46CF1C88F80050B6F80140F61CD4
:10122000002C7ED016F8019BDFF834B05FEA89719C
:1012300066D55FEAC97144D0BBF80A600021484610
:1012400000F0F1FC02280DD001286AD139E000003D
:10125000100C0140C0C62D00010006001000002047
:101260003C040020761E5CD398F800100029E5D0DD
:1012700057E024B95FEAC97001D04FF00E09BBF8FE
:101280000A606946484600F0CEFC022802D00128D8
:1012900047D106E0761E44D398F800100029F0D01C
:1012A0003FE0009907F8011B0099090A07F8011BA4
:1012B0000099090C07F8021B0099090E07F8011C98
:1012C0006D1C641ED5D22CE0F17856F8040B61F346
:1012D0001F600090D848B0F80A806946484600F080
:1012E000A2FC022802D001281BD107E0B8F10108B6
:1012F00017D39BF800100029EFD012E06D1C00E01E
:10130000C346641EE0D2CC485E46448900210E20CC
:1013100000F089FC022804D1641E02D33178002930
:10132000F4D08AF800502A0A8AF801208AF80200CC
:10133000A7EB0A00BDE8F88FFF2008704FF00110FE
:1013400070472DE9F84F0278A2F180031F2B02D8D5
:10135000FFF7F2FFEEE701F8012B0C4610F801CB86
:101360000126FF21B54BDFF8D8920025B24A4FF095
:10137000030A4FF00117BCF1170F6ED2DFE80CF033
:101380000C373E59BEC7E36DFF5E656D6D6D6D6DCB
:10139000696E8A9AA3B9BC000178621C00200629F4
:1013A00021D006DC05291ED2DFE801F01D1D1D1D20
:1013B0000C00F0290DD0FD2915D0FE2911D0FF29F0
:1013C00011D109E09F480168116000791071052072
:1013D00009E01120107005E04020107055700220C7
:1013E00001E016700120207000F10210A2E70078E1
:1013F00050B301283ED14BE01E46C5E005782DB123
:10140000012D04D0002525703E46BDE001258E4902
:1014100016704FF4C0400860ADF8000010208DF841
:10142000030089488DF802A06946103800F029FDB4
:10143000E9E7157000F0F2F82570A5E0008800EBF0
:101440004000C000401EFDD122E0657025700226DC
:101450009AE02146FFF7FCFC70E0A4E0C378006846
:1014600063F31F60794B28B17949884204D35670E1
:1014700056600DE02170BFE7764955700144B1FB1D
:10148000F0F0022802D9B0FBFAF000E00120506031
:101490002570B1E710F8016B0EB94FF48076014664
:1014A000304600F0D9F8F61D2570F008060406F164
:1014B000011669E0007800F00301491C1175C0F3C2
:1014C000800050759FE721700122164610F8013BFD
:1014D0000AE010F8011B11F03F0100D14021C91DA5
:1014E000C9080A440844521C5B1EF2D262F31F462C
:1014F0004AE000782170D9E7217085E70178117200
:10150000B0F801105181B0F80300908149E01278E1
:101510002146012A14D00646401C10F8012B42B186
:1015200010F8013B9C0701D5DB0600D5001D521EBB
:10153000F6D1801B0D7000044D70801C064623E020
:10154000FFF7E4FCFAE706461078214601280AD0A6
:101550000D704D70A5700320F178890707D540F410
:10156000802611E00BE03046FFF74CFEF4E7B6F8BA
:1015700001104FF4802202EB8146064304E012780A
:10158000012A04D021704E4606F10110D2E60179FD
:10159000D0F8010061F31F6000906946002000F060
:1015A00042FB2570EFE704F8011C3846C2E62DE93E
:1015B000F04102787F2A02D0BDE8F041C1E601F88F
:1015C000012B447801F8014B861C0D464FF00217A1
:1015D00008E029463046FFF7B4FE074406EB104604
:1015E00080B20544641EF4D23846BDE8F08112484A
:1015F00010B500210170417007224260017264221F
:1016000042818181012201610275417511460820E4
:1016100000F01FFEBDE81040AFF3008008B54FF4A6
:10162000C040ADF8000004208DF80300064869466C
:10163000103800F026FC08BD3C0400200100020028
:10164000010005009CC10008100C014001000400CD
:1016500080A81201FF502502F0B50023DFF804C472
:101660004FF480471A46ACF1040E7E10FE4C6568BC
:1016700016E012B911F8013B0822DC0702D0CEF8BF
:10168000007001E0CCF80070CCF800602C46641EBD
:10169000FDD1CEF800602C46641EFDD15B08521EC1
:1016A000401EE6D2F0BD2DE9F35F0546012000F0B3
:1016B000C4FAEC4E4FF400543460371F3C602846A7
:1016C00000F0BBFA34603C606808804600F0B5FA70
:1016D00034603C6005EB0809A808804600F0ADFACC
:1016E00034603C60E908C1448846084600F0A5FA29
:1016F00034603C6009EB080000F09FFA34603C6005
:10170000002000F09AFA34603C60012000F095FA65
:1017100034603C6060103060D348007D18B13460A4
:101720003C60401EFBD1A246B346346000F080FA14
:10173000B9463C608046346000F07AFAC9F800404F
:1017400048EA4007346000F073FAC9F8004047EAFD
:101750008004012C13D0022C72D0042C70D0C2480B
:10176000007D213006D051465B464A461960116023
:10177000401EFBD14FF48050C9F8000088E0A80754
:1017800029D500273D462026D046CBF8008000F022
:101790004FFAC9F800807908054441EAC077761EFF
:1017A000F3D14646CBF8008000F042FA4946C9F82A
:1017B00000604540E80700D00824019800B10760A8
:1017C000A948007D20B15A4616600E60401EFBD12C
:1017D0004FF4805024E0A448007D30B151465B4670
:1017E0004A4619601160401EFBD14FF48051C9F880
:1017F00000100199002720260D68C846284600F0F1
:101800001CFACBF800A0C8F800A02F446D08761E83
:10181000F4D1384600F011FA5046CBF800A041460A
:1018200008609148057A9DB3002000F006FA504602
:101830005A464946106008606D1EFBD128E0FFE75C
:10184000894B5A7D4AB1A80707D5212051465E46EB
:101850004F4631603960401EFBD1187D30B1514692
:101860005B464E4619603160401EFBD14FF48050FC
:101870004E46C9F800005AB1A80709D4002000F06C
:10188000DCF9212051465A4611603160401EFBD1DF
:10189000012000F0D2F9E0B2BDE8FC9F2DE9F35F32
:1018A00005460024012000F0C8F96E4F4FF40056A1
:1018B0003E606D4A50680146401EFDD1DFF8A4919C
:1018C000A9F10409C9F800609246491EFDD12846D5
:1018D00000F0B3F9B8463E60DAF80400524601461B
:1018E000491EFDD1C9F80060401EFDD167196C0882
:1018F000204600F0A2F9C8F80060DAF80400524669
:101900000146401EFDD1B246C9F800609346491E0B
:10191000FDD1AE082744304600F08FF95446C24648
:10192000C8F80040DBF804005A460146491EFDD1C4
:10193000C846C9F80040401EFDD13744EE08304685
:1019400000F07BF9D146CAF80040DBF804005A46A3
:101950000146401EFDD1C8F80040DA46491EFDD1BF
:10196000B81900F06AF94F46C9F80040DAF80400E7
:1019700052460146491EFDD14646C8F80040D046B1
:10198000401EFDD100F059F93C60D8F804004246F1
:101990000146491EFDD13460401EFDD1012000F0FA
:1019A0004CF93C60D8F804201046401EFDD134604C
:1019B0001046401EFDD14FF48050386098F8141046
:1019C00049B13C601046401EFDD134601046401EB7
:1019D000FDD1491EF5D1B9463C60521EFDD100F043
:1019E00027F907463460D8F804000146491EFDD1A6
:1019F000C9F80040401EFDD100F01AF902463460DB
:101A0000D8F8040043460146491EFDD147EA420783
:101A1000CA46C9F80040C346401EFDD100F008F98F
:101A20000246A1463460DBF804100846401EFDD192
:101A300047EA8204012C1DD0022C7DD0042C7BD0DF
:101A40009BF8142021320BD055464B462B6008469C
:101A5000401EFDD133600846401EFDD1521EF5D117
:101A600004E00000140C01403C0400204FF48050BE
:101A70003060D3E0A80742D54FF000084746202544
:101A8000CAF80090DBF80400401EFDD100F0D0F849
:101A9000C6F80090DBF80410491EFDD14FEA58014A
:101AA000074441EAC0786D1EEAD1CAF80090DBF81D
:101AB00004005D46401EFDD100F0BAF84B46C6F862
:101AC00000906968491EFDD14740F80700D00824FE
:101AD000019810B10199C1F800802A7D5AB16D6852
:101AE00057463B602846401EFDD133602946491EBB
:101AF000FDD1521EF5D14FF4805030603AE09BF892
:101B000014305A465BB157464D463D600846401E6C
:101B1000FDD135600846401EFDD15B1EF5D14FF466
:101B20008050306001984FF0000820270568284653
:101B300000F083F84A4600E031E0CAF80090DBF894
:101B400004000146491EFDD13260401EFDD108EB64
:101B500005006D0880467F1EE9D100F06EF84A4608
:101B6000CAF80090DBF804000146401EFDD1326047
:101B7000491EFDD19BF808505F46EDB3002000F0F0
:101B80005CF87B685246494611601846401EFDD1FC
:101B900031601846401EFDD16D1EF5D13EE09BF828
:101BA0001570DC467FB1A8070DD52122D0464B46E3
:101BB000C8F800300846401EFDD133600846401E7C
:101BC000FDD1521EF4D19CF8142062B1D0464B4690
:101BD000C8F800300846401EFDD133600846401E5C
:101BE000FDD1521EF4D14FF480503060D8461FB161
:101BF000A80713D4002000E010E000F01EF8D8F889
:101C00000420212155464B462B601046401EFDD135
:101C100033601046401EFDD1491EF5D1012000F071
:101C20000CF8E0B238E60A4A527802B13BE535E6F4
:101C300008480068C0F380307047C1074FF4804007
:101C400002D00449083101E002490C3108607047B4
:101C50003C040020080C01400CB500224C480092C6
:101C60000192016841F4803101604FF4A063016882
:101C700001F4003101910099491C0091019911B9B9
:101C800000999942F3D10168890333D5012101916B
:101C900040490A6842F010020A600A6822F0030212
:101CA0000A600A6842F002020A60416841604168C5
:101CB0004160416841F480614160416821F47C11D8
:101CC0004160416841F4E8114160016841F0807170
:101CD000016001688901FCD5416821F00301416080
:101CE000416841F0020141604168C1F3810102296C
:101CF000FAD10CBD01920CBD254810B5016841F028
:101D0000010101604168244A114041600168234A91
:101D100011400160016821F480210160416821F4D3
:101D2000FE0141604FF41F018160FFF795FF1C49E0
:101D30004FF00060086010BD154A10B55068194B8F
:101D400010F00C01184803D0042901D0082901D053
:101D5000036012E05168536801F470114FF00204FF
:101D600013F4803F04EB914102D053689B0301D5EB
:101D70000E4B00E00B4B5943016051680A4AC1F316
:101D80000311121D515C0268CA40026010BD0000C0
:101D900000100240002002400000FFF8FFFFF6FEA6
:101DA00008ED00E000127A001400002000093D0058
:101DB0000648804706480047FEE7FEE7FEE7FEE7E5
:101DC000FEE7FEE7FEE7FEE7FEE7FEE7F91C000898
:101DD000ED0000088F4910B5884206D1012104208A
:101DE00000F049FA002104203BE08B49884206D1EB
:101DF0000121082000F03FFA0021082031E0874946
:101E0000884206D10121102000F035FA002110206F
:101E100027E08349884206D10121202000F02BFAD7
:101E2000002120201DE07F49884206D10121402069
:101E300000F021FA0021402013E07B49884206D1BE
:101E40000121802000F017FA0021802009E0774965
:101E500088420AD184150121204600F00CFA0021A5
:101E60002046BDE8104000F006BA10BD10B50121B3
:101E7000084600F000FA0021BDE81040012000F003
:101E8000FAB9F0B5CC78002204F00F03E40601D5CE
:101E90008C7823430C784FF00F0C14F0FF0F4FF0A9
:101EA000010E1BD005680E880EFA02F42640A642E9
:101EB00010D196000CFA06F725EA070703FA06F593
:101EC000CE783D43282E02D0482E02D002E0446155
:101ED00000E00461521C082AE5D305600A88FF2A45
:101EE0001CD94468002202F108060EFA06F50E8895
:101EF0002E40AE420ED196000CFA06F7BC4303FA10
:101F000006F7CE783C43282E00D14561CE78482E86
:101F100000D10561521C082AE5D34460F0BD4FF69C
:101F2000FF710180022181700421C1707047024657
:101F3000002092680A4200D001207047806880B279
:101F4000704702460020D2680A4200D00120704744
:101F5000C06880B2704701617047416170470AB143
:101F60000161704741617047C160704741F4803240
:101F70008261816182618169806970472C4B10B5F3
:101F80001A684FF68074224042EA00100843186035
:101F900010BD2849C8617047F0B5254C002801DA0A
:101FA000E36900E06368450D2E0185B2C0F3015777
:101FB000B540C0F30342032F05D0C6020AD503265D
:101FC0009640B34307E023F07062636823F07063C8
:101FD000636002E0AB4343F0706201B12A43002822
:101FE00001DAE261F0BD6260F0BD10B58A0721F050
:101FF00003040F49120F21440F238C6893409C4324
:102000008C608B68904003438B6010BD0949C1F818
:10201000DC00704700080140000C01400010014046
:102020000014014000180140001C01400020014044
:102030000000014000002042A548016841F0010174
:1020400001604168A34A114041600168A24A114001
:102050000160016821F480210160416821F4FE01E2
:1020600041604FF41F018160704799490A6822F46A
:1020700080320A600A6822F480220A60B0F5803F4C
:1020800007D0B0F5802F03D1086840F4A020086085
:102090007047086840F48030F9E70346002059098A
:1020A0008B4A01290AD002290AD0516A03F01F0283
:1020B000012393400B4200D0012070471168F5E7DF
:1020C000116AF3E718B500204FF4A06400903120A6
:1020D000FFF7E3FF0099491C0091A14201D00028BD
:1020E000F5D03120FFF7D9FF002800D0012018BD1E
:1020F000774A116821F0F80141EAC000106070478A
:10210000764908607047724B5A68084322F47C1283
:102110001043586070477149086670476C4A5168AF
:1021200021F003010143516070476948406800F0A5
:102130000C007047664A516821F0F001014351607C
:102140007047634A516821F4E06101435160704770
:102150005F4A516821F4605141EAC0005060704705
:102160005B4A0029517A01D0014300E0814351725A
:1021700070475A49C1F8D8007047554A516821F450
:1021800040410143516070475149002281F82020AD
:1021900081F82020012802D0042802D1052081F8EE
:1021A000200070474E490860704749490A6A024357
:1021B0000A6270474A4944390860704730B5444A5A
:1021C0005168484B11F00C0103D0042901D00829B3
:1021D00001D0036012E05168536801F470114FF0B0
:1021E000020413F4803F04EB914102D053689B0337
:1021F00001D53D4B00E03B4B5943016051680F2333
:1022000003EA1111394B5C5C0168E140416054689C
:10221000072505EA14241C5D21FA04F4846054683F
:1022200005EAD4241B5DD940C1605268032303EA48
:1022300092322E4B1B1F9A5CB1FBF2F1016130BD53
:10224000234A0029516901D0014300E081435161D3
:1022500070471F4A0029916901D0014300E0814382
:10226000916170471A4A0029D16901D0014300E009
:102270008143D1617047164A0029D16801D00143DA
:1022800000E08143D1607047114A0029116901D0F3
:10229000014300E0814311617047114940390860F2
:1022A00070470E49C86470470949C87170470848AB
:1022B000416A41F0807141627047054A0146002041
:1022C00092680A4200D00120704701498872704725
:1022D000001002400000FFF8FFFFF6FE000042423F
:1022E0008004424200127A0000093D002C000020C8
:1022F000C44910B588420AD101218C032046FFF75A
:10230000BAFF2046BDE810400021FFF7B4BFBE4928
:10231000884202D101214C0410E0BC49884202D11C
:1023200001218C040AE0BA49884202D10121CC047F
:1023300004E0B84988420AD101210C052046FFF784
:10234000A3FF2046BDE810400021FFF79DBF10BD50
:1023500030B50446008A85B00D464CF6FF71084042
:10236000E98801432182A0894EF6F3110840A9882B
:102370002A8911436A8902431143A181A08A4FF639
:10238000FF410840A9890143A1826846FFF716FF73
:102390009C48844201D1039800E00298A189090475
:1023A00000EBC00101EB0010296801D5490000E0F5
:1023B0008900B0FBF1F06422B0FBF2F109010B09D6
:1023C0006FF018056B4300EB8300A3891D044FF0E9
:1023D000320306D503EBC000B0FBF2F000F00700BB
:1023E00005E003EB0010B0FBF2F000F00F00084333
:1023F000208105B030BD4FF416510160002181806D
:10240000C18001810C2242818181704710B5028A0E
:102410004FF2FF031A400B884C8823438C88C988ED
:102420000C4323431343038210BD002101804180EC
:102430008180C18070470029818902D041F4005118
:1024400001E021F400518181704710B5C1F34213BE
:1024500001F01F040121A140012B07D0022B07D05E
:102460001430002A026805D00A4304E00C30F8E773
:102470001030F6E78A43026010BD002A828A01D03C
:102480000A4300E08A4382827047028A22F00F02E8
:102490000282028A0A4302827047828922F4006221
:1024A000828182890A43828170470029818902D012
:1024B00041F0020101E021F0020181817047028AAE
:1024C00022F020020282028A0A4302827047002917
:1024D000018A02D041F4804101E021F4804101826F
:1024E0007047C1F30801818070478088C0F30800FD
:1024F0007047818941F0010181817047028BD2B21E
:102500000283028B42EA012101837047028B02F4AD
:102510007F420283028B0A43028370470029818A2B
:1025200002D041F0200101E021F0200181827047BA
:102530000029818A02D041F0100101E021F0100150
:10254000818270470029818A02D041F0080101E0B0
:1025500021F00801818270470029818902D041F46D
:10256000004101E0C1F30E01818170470029818A99
:1025700002D041F4006101E021F4006181827047E2
:10258000828A22F004028282828A0A43828270470F
:102590000029818A02D041F0020101E021F002010C
:1025A000818270470246002012880A4200D0012032
:1025B0007047C9430180704770B501F01F050126BF
:1025C0000024C1F3421306FA05F2012B0FD0022BAF
:1025D0000FD0838A4FEA11210088134206FA01F6D0
:1025E00000EA060001D000B10124204670BD8389B5
:1025F000F0E7038AEEE70A0A01219140C94301800E
:10260000704700000038014000440040004800408E
:10261000004C004000500040D2B201E000F8012B15
:10262000491EFBD270470022F6E710B513460A4652
:1026300004461946FFF7F0FF204610BD064C074D33
:1026400006E0E06840F0010394E807009847103482
:10265000AC42F6D3FDF74EFDA4C10008C4C100088A
:1026600002E008C8121F08C1002AFAD1704770475B
:10267000002001E001C1121F002AFBD170470000B9
:10268000040001180800010408100020710200086D
:102690002D000008310000084FF000024FF6FF70D7
:1026A0000146C0F2030100BF02F101028A42FAD1E1
:1026B000704700BF704700BF704700BF704700BF42
:1026C00070B405460C4611B94FF0000019E04FF008
:1026D000000001464FF0080648F2084C6B5C80EAA7
:1026E0000300324603464FEA500013F0010F18BFB3
:1026F00080EA0C0012F1FF32F4D101F101018C42A9
:10270000ECD180B270BC704742F20403C4F2020301
:1027100040F22312C4F267521A6048F6AB12CCF6AC
:10272000EF521A60704700BF42F20C010A46C4F231
:102730000202136813F0010FFBD142F20C03C4F242
:1027400002034FF035021A60704700BF10B542F225
:102750001004C4F20204236843F00203236042F22F
:102760001403C4F202031860236843F0400323609B
:10277000FFF7DAFF236823F00203236010BD00BFD8
:102780002DE9F04744F20004C0F600044FF00006C3
:1027900049F600431D46C0F600054AE01359B3F15F
:1027A000FF3F03D02046FFF7D1FF04E002F104020F
:1027B000B2F5806FF2D104F58064AC4239D144F2B5
:1027C0000006C0F6000642F20803C4F2020399466E
:1027D00042F20403C4F20203984642F210031F4679
:1027E000C4F2020749F6FC33C0F600039A4606F528
:1027F000B8431D684D4508BF4546FFF795FF3B6848
:1028000043F001033B6000BFABB2344624F8023B07
:10281000FFF78AFF4FEA15452580FFF785FF3B68E4
:1028200023F001033B603368564504D006F10406EB
:10283000DDE73246B2E7BDE8F08700BF10B549F6E4
:102840000040C0F60000FFF781FF10BD10B54FF04B
:10285000FF3149F60442C0F6000249F684431846A7
:10286000C0F6000052F8043C01EA030102F1040240
:102870008242F7D1B1F1FF3F08BF002010D049F6E6
:102880000040C0F6000045F6FE31FFF719FF4FF299
:10289000FE73C0F600031B88984214BF002001207D
:1028A00010BD00BF10B5FFF7D1FF28B1FFF72CFF17
:1028B000FFF766FFFFF7C2FF42F21002C4F2020206
:1028C000136843F0800313604EF60852CEF2000204
:1028D00044F20003C0F600031360BFF36F8F44F2AD
:1028E0000003C0F600031E6886F308885E68304760
:1028F0004FF0000010BD00BF10B540F20002C2F260
:10290000000240F20403C2F200039A4213D24FF0D5
:10291000000240F20001C2F2000140F2143EC0F693
:10292000000E18465EF802308B5002F1040201EBF3
:1029300002038342F6D340F20402C2F2000240F2E4
:102940000403C2F200039A420AD213464FF0000178
:1029500040F20402C2F2000243F8041B9342FBD38C
:10296000FFF7A0FF10BD00BF2449643A2073746DC7
:102970003332626F6F742E6320323120323030393F
:102980002D31302D31342031323A33383A31325A08
:10299000206D696E7578202400000000E0020008B8
:1029A000FFFFFFFFFFFFFFFFFFFFFFFFFFFFFFFF37
:1029B000FFFFFFFFFFFFFFFFFFFFFFFFFFFFFFFF27
:1029C000FFFFFFFFFFFFFFFFFFFFFFFFFFFFFFFF17
:1029D000FFFFFFFFFFFFFFFFFFFFFFFFFFFFFFFF07
:1029E000FFFFFFFFFFFFFFFFFFFFFFFFFFFFFFFFF7
:1029F000FFFFFFFFFFFFFFFFFFFFFFFFFFFFFFFFE7
:102A0000FFFFFFFFFFFFFFFFFFFFFFFFFFFFFFFFD6
:102A1000FFFFFFFFFFFFFFFFFFFFFFFFFFFFFFFFC6
:102A2000FFFFFFFFFFFFFFFFFFFFFFFFFFFFFFFFB6
:102A3000FFFFFFFFFFFFFFFFFFFFFFFFFFFFFFFFA6
:102A4000FFFFFFFFFFFFFFFFFFFFFFFFFFFFFFFF96
:102A5000FFFFFFFFFFFFFFFFFFFFFFFFFFFFFFFF86
:102A6000FFFFFFFFFFFFFFFFFFFFFFFFFFFFFFFF76
:102A7000FFFFFFFFFFFFFFFFFFFFFFFFFFFFFFFF66
:102A8000FFFFFFFFFFFFFFFF00000000000000004E
:102A90000000000000000000000000000000000036
:102AA0000000000000000000000000000000000026
:102AB0000000000000000000000000000000000016
:102AC0000000000000000000000000000000000006
:106680000000000000000000E0130020B1410008FD
:106690003179000835790008397900083D7900081A
:1066A0004179000800000000000000000000000028
:1066B000000000004979000845790008000000004A
:1066C000CD7500089D7600084D79000851790008C5
:1066D00055790008597900085D790008617900084A
:1066E00065790008697900086D79000871790008FA
:1066F00075790008797900087D79000881790008AA
:1067000085790008897900088D7900089179000859
:1067100095790008258000082580000899790008EF
:106720009D790008A1790008A5790008A9790008D9
:10673000AD790008B1790008B5790008B979000889
:10674000BD790008C1790008C5790008C979000839
:10675000CD790008D1790008D5790008A96800082A
:10676000D9790008DD790008E1790008E5790008A9
:10677000E9790008FFFFFFFFFFFFFFFFFFFFFFFFBB
:10678000FFFFFFFFFFFFFFFF000000000000000011
:1067900000000000000000004A2D4C696E6B204193
:1067A000524D2D4F422053544D333220636F6D7044
:1067B000696C656420417567203232203230313295
:1067C0002031393A35323A303400436F707972698A
:1067D00067687420323030332D32303038205345E2
:1067E000474745523A207777772E7365676765721A
:1067F0002E636F6D0000000000000000000000002C
:10680000000000000000000010B5094C02E005F097
:106810003BFA0C340748844208D26068A1682268B9
:106820008142F4D1002105F03BFAF2E710BD00BF30
:106830002498000848980008024CA04730B1024C48
:10684000A04703E0FD77000881410008034C4FF0AA
:106850000000A047024C034DAE4620477D9500083E
:10686000D99500082D9600080068000EFF2805D075
:10687000032801D00E2801D1014870470148704714
:10688000FF0F0000FF03000031B50B4C03F090FE3A
:106890002568AD1C6946072003F03EFE002802D59E
:1068A0005FF0FF3032BD0098410C0120084002D15A
:1068B0002168691AEED532BD7401002070B50079E7
:1068C00014000D000106022003F0DAFD0600290085
:1068D000052003F0D5FD074930430A68A24207D0DE
:1068E0000C60050054F00C51042003F0C9FD28434E
:1068F00070BD00006C00002070B512220C00094928
:106900005FF0FF35FFF7DAFF48B903F051FE0600EC
:106910002100032003F000FE304358BF002528006B
:1069200070BD0000F0ED00E000B5020008D09068F6
:1069300040189060D168884222BF1046116888478D
:1069400000BD000000B503F067FD002103205DF8E5
:1069500004EB03F0E1BD0000F1B50C0015001122BD
:106960001F00FFF7ABFF10B15FF0FF30F2BD03F087
:106970001FFE10B15FF0FF30F2BD022D19D36E1E65
:106980006946072003F0C8FD20B103F05BFD5FF00E
:10699000FF30F2BD009802222240D100C840009092
:1069A0000098A41C38700098000A7870BF1C761EEE
:1069B000E6D16946032003F0AFFD10B15FF0FF3070
:1069C000F2BD009802212140C900C8400090009803
:1069D00007F8010B0098000A38702800F2BD00008B
:1069E0002DE9F14390461C000026A20708BF0126AE
:1069F0001222FFF763FF10B15FF0FF3028E003F0D1
:106A0000D7FD0028F8D14046022817D345466D1E11
:106A100056BB6946072003F07FFD002834D100985B
:106A20002070010A6170010CA170000EE0700898DE
:106A3000241D0421FFF778FF6D1EEAD1694603206B
:106A400003F06AFD00BB0099200005F08DF8404678
:106A5000BDE8F283241D761CBE420FD3089839008E
:106A6000FFF762FFED1BE9D0089828B10899C068CC
:106A70008968471ABD4200D22F0000262100072056
:106A800003F04AFD0028E5D003F0DCFCB4E7000089
:106A90002DE9F34F804600200C00019091469A4664
:106AA00007E00B98B9EB0B091BFA00F0241810EB68
:106AB0000A0A4846002861D04046FFF7D5FE0B99E8
:106AC000A043C840401C81452CBF8346CB460029CB
:106AD00039D12600102231004046FFF7EFFE55461F
:106AE00010B15FF0FF3042E003F062FD10B15FF0E3
:106AF000FF303CE05846022816D35F467F1E6946A9
:106B0000072003F009FD20B103F09CFC5FF0FF308B
:106B10002DE00098B107C90EC84000900098761C7F
:106B20007F1E05F8010BEAD16946032003F0F4FC4F
:106B300010B15FF0FF301AE00098B107C90EC840ED
:106B40002870584611E0012906D153465A462100C3
:106B50004046FFF701FF08E00C9853465A4601B43F
:106B600021004046FFF73CFF01B0002801D501900D
:106B700004E0019909180191584592D00198BDE8A7
:106B8000F68F000030B504000D0055F8041B0720F7
:106B900003F076FC002804D503F054FC5FF0FF30CE
:106BA00030BD641EF1D1002030BD00002DE9F1415F
:106BB000079F0C0015001E00102151EA67022100FA
:106BC000FFF77CFE10B15FF0FF3063E0B00708D143
:106BD000042F06D131002800FFF7D4FF00282ED063
:106BE00058E0012F02D15FF0013005E0022F02D101
:106BF0005FF0011000E0012080463078022F009005
:106C00000DDB717850EA01200090032F07DBB1788B
:106C100050EA01400090F17850EA0160009000983D
:106C200000FB08F000900146072003F029FC002833
:106C300002D503F007FCC6E7F6196D1EDDD103F09F
:106C4000EBFB1548844220D1307840071DD5022047
:106C500002F0C8FE0021032003F05EFCC8B1104C16
:106C6000206810F59665642002F0BCFE694600209D
:106C700003F052FC28B9009808490005000D88422D
:106C800007D02068281AEED503E00021032003F086
:106C900043FC0020BDE8F2810CED00E07704000029
:106CA000740100202DE9F043804600240D001600F9
:106CB000994607E00798E419F61B17FA00F02D181B
:106CC00010EB0909C6B14046FFF7CEFD0700079853
:106CD000AF43C7407F1CBE4238BF374607990120EB
:106CE0004B46884001B43A0029004046FFF75EFF5A
:106CF00001B00028DED504002000BDE8F0830000CC
:106D00002DE9F0410C006349150080461E00122257
:106D1000FFF7D4FD070098F80400102151EA006144
:106D2000022003F0ADFB14F8011B052003F0A8FBC3
:106D30000021062003F0F0FB2900032003F0ECFB08
:106D40002D1D761EEFD13800BDE8F081F0B50D00A5
:106D50005049040016001F001222FFF7AFFD01B4D6
:106D60002079102151EA0061022003F089FB010023
:106D700001BC01430C0056F8041B062003F080FB05
:106D800015F8010B50F48031052003F079FB7F1ECC
:106D9000F1D1FFF7D7FD2000F0BD000011B5694625
:106DA0000400FFF7A9FD38B169462000FFF7A4FDF4
:106DB00010B15FF0FF3012BD0098000310D53549C7
:106DC00012222000FFF77AFD30B93349072003F083
:106DD00057FB08B903F020FB69462000FFF78CFD44
:106DE0000098410C0120084012BD0000294900B55F
:106DF0000222FFF763FD2849072003F041FB5DF8FD
:106E000004EB41E510B500290CBF234C104C11498F
:106E10000222FFF753FD1F21072003F031FB1D491C
:106E2000052003F02DFB2100072003F029FB0220A1
:106E300084432100072003F023FB03F0EDFA06480A
:106E4000006808B102F09CF8BDE810407AE500BF88
:106E50000B005FA030ED00E04C0500200D4910B59F
:106E60000222FFF72BFD0949072003F009FB08491F
:106E7000072003F005FBFFF707FD07490400072083
:106E800003F0FEFAFFF75EFD200010BD0F005FA0CB
:106E90000D005FA0F0ED00E003005FA003B501234B
:106EA00001AA0F218DF800106946FFF74FFF06BDBC
:106EB00031B5114C114D89B103F0BEFA17480021CC
:106EC00001602868A04216D26946012003F024FB25
:106ED00000990120814303F0D3FA31BD2868A04214
:106EE00009D26946012003F017FB009850F0010118
:106EF000012003F0C5FA31BDA6AE00004805002010
:106F0000064B10B500241C6003680B600BB9424BA4
:106F10000B60007B083A0871100010BD6C00002067
:106F200000B5082904BF024800BD002000BD00BF15
:106F30003700008030B5ABB004000221684602F093
:106F400049F9BDF800100BA802F044F9BDF80000A3
:106F5000042804D30BA804F011FE050000E02E4D18
:106F60002822002101A804F015FE012001958DF8CA
:106F7000080000208DF80900264840221BA9069031
:106F800001A8FFF7BDFF01210BA8FFF791FF642CBB
:106F900012D0652C14D06E2C16D06F2C18D0792CF2
:106FA0001AD07A2C1CD07B2C1ED07C2C20D0822C8A
:106FB00022D0832C24D026E001A800F0E1FD22E0BD
:106FC00001A800F07FFD1EE001A800F095FE1AE088
:106FD00001A800F0BDFE16E001A800F0DFFE12E0FF
:106FE00001A800F0E9FE0EE001A800F0EFFE0AE0C3
:106FF00001A800F0F5FE06E001A800F0FBFE02E0AB
:1070000001A800F02FFF00210BA8FFF751FF2BB0C4
:1070100030BD00BFB4980008FF00000310B501F0B8
:1070200093FB0400702002F0BFF870212000BDE83F
:10703000104002F08FB80000704700002DE9F34FB8
:10704000804600208DF8000000265FF0FF3001F040
:107050002DF94046CD280AD1022101A802F0BAF844
:107060009DF805109DF8040010EB012409E00321B0
:1070700001A802F0AFF89DF806109DF8050010EB8E
:107080000124A4B2E01DC01081464700781C01F025
:10709000D3FF8246404819EB0A058346504668B93B
:1070A000380002F09FF8484602F060F806208DF89C
:1070B00000000121684602F04DF850E049462800E2
:1070C00002F088F84946504602F09CF802F0B8F801
:1070D000B9EB00018F1B18B1FF2FF7DD3F2087436D
:1070E000FB00494504D1E01D4007400FC01F1B189D
:1070F0009DF80000B0B92948007840B9AA19A9192B
:107100005046801901F060FD8DF8000010E0012864
:107110000ED1AA19A9195046801901F055FE8DF813
:10712000000005E0DB1DDA100021A81904F032FD93
:107130004046D52810D03900CF280AD19BF800004E
:1071400038B1F019484504D19DF80020A819491C10
:10715000C255A81902F020F8F6194E45B6D10D48CF
:10716000017811B99DF8001001704046D5280BD068
:1071700002F02CF84046CF2806D19BF8000018B941
:107180009DF8000002F00CF8504601F077FFBDE8D2
:10719000F38F00BFE00F0020E10F0020EF0F002071
:1071A0002DE9F04F85B00221684602F013F8022164
:1071B00001A802F00FF8022102A802F00BF8022148
:1071C00003A802F007F8022104A802F003F8BDF8B2
:1071D000000003214843093001F02EFF0400BDF8F0
:1071E00000002118884610EB08050146200001F038
:1071F000F1FFBDF80010404601F0ECFF0498019F3C
:10720000BDF800B0814603988246029880B22E18DD
:1072100002F071FD01F0B2F901F0B4F93800471E37
:10722000000410D05846C3002A002100404601F057
:10723000CBFC7178307850EA012051460140484635
:1072400080B28142EAD102F0D3F9BDF800102800E3
:1072500001F080FF200001F011FF05B0BDE8F08FC4
:107260002DE9F047144EBDF8207014008046BDF89B
:10727000240089469A462518012002F0B3FB01F04C
:107280007DF901F07FF93068C7195046C30022002C
:107290004946404601F098FC6978287850EA012078
:1072A000BDF828100140BDF82C00814202D03068A2
:1072B000381AEAD5BDE8F0877401002070B585B0B2
:1072C0000221684601F086FF022101A801F082FF39
:1072D000022102A801F07EFF022103A801F07AFF3B
:1072E000022104A801F076FFBDF800000321484305
:1072F000093001F0A1FE0400BDF8000025182E1889
:107300000146200001F066FFBDF80010280001F0E2
:1073100061FF049B039A0299019892B289B280B2EC
:107320009BB20FB4BDF81030280032002100FFF7E7
:1073300097FFBDF81010300001F00CFF200001F0A5
:107340009DFE09B070BD000003B501F039FBADF83A
:10735000000001F03FFB8DF8020001F043FB8DF8C7
:10736000030001F043FB8DF8040001F02DFB8DF8C4
:10737000050001F041FB8DF8060001F045FB0821F6
:107380008DF807007EE0000000B5042001F00CFF3E
:10739000044801F009FF5FF400605DF804EB01F0C0
:1073A00003BF00BFE32E000000B5C0B05FF48072E1
:1073B0000021684601F0FEF95FF48071F0E0000002
:1073C00010B5ADF5017D5FF4807101A801F002FFF9
:1073D00000282AD45FF48072002141A801F0EAF964
:1073E0005FF4807001A941AA0B7814781C409C427C
:1073F0001BD1491C521C401EF6D10998A8B1019816
:1074000098B104220021684601F0D4F900985FF099
:10741000FF31884203D001980099884205D15FF47A
:107420008072002101A801F0D1F9002001F0B8FE1E
:107430000DF5017D10BD00000148042101F08ABE58
:107440000499000800B588B020220021684604F0A5
:10745000A1FB0849684604F087FB0C208DF8040066
:1074600028208DF805002021684601F073FE08B041
:1074700000BD00BF3358EA8803B5684601F0C2FB7F
:10748000062100BF684601F065FE03BD00B501F0AE
:107490003FFA5DF804EB01F08DBE0000F0B5A2B03C
:1074A000042101A801F096FE0024002625460EE0E6
:1074B00000985FF47A71381A04F096FB070002A86E
:1074C00040F825706D1C0198761C400801900198C9
:1074D000D8B1C007F7D50D2E03D1022001F09CFBD7
:1074E000ECE7300001F098FB0700B01E0228E6D858
:1074F00004228021684601F031F9009800285DBF20
:107500004000401000900094D2E7A90002A801F0CA
:1075100021FE22B0F0BD000030B5A1B0002400254E
:107520000421684601F056FE01A90FE0C00709D505
:107530005FF0FF30042DBCBF094850F8250041F82A
:107540002400641C00986D1C4008009000980028DE
:10755000ECD1A10001A801F0FDFD21B030BD00007B
:107560007000002003B50421684601F033FE0421B9
:1075700001A801F02FFE0199009884E700B501F001
:107580004DFD5DF804EB01F015BE000000B5C0B084
:107590005FF480720021684601F0E0F85FF48071CA
:1075A000684601F0D7FD40B000BD000000B5C0B096
:1075B0005FF48071684601F00DFE5FF48072002177
:1075C000684601F0D7F840B000BD000003B50121C6
:1075D00001A801F0FFFD009088B99DF80400FE2885
:1075E00003D0FF2804D1032004E00548007801E01F
:1075F00000F0AEFF00900421684601F0ABFD03BD32
:10760000EF0F002001B50221684601F0E3FD0849B3
:10761000BDF80000884204BF0020ADF80000BDF8AE
:1076200000005FF47A71484301F050FA01BD00BFD9
:10763000FFFF000000F0A4BF00F0A4BF11B50121BE
:107640006846012401F0C6FD214600A8401C01F057
:10765000C1FD022001F0C6FD90B99DF800009DF823
:10766000011051EA00201549884205D0144988428A
:1076700002D01449884200D1024C200001F09AFD4A
:1076800011BD00BFFF05000001B50421684601F0EF
:10769000A1FD9DF802009DF8031051EA0020074962
:1076A000884205D00649884202D00649884203D163
:1076B0009DF80000FFF73EFC01BD00000101000045
:1076C0000103000001060000764B00200021142277
:1076D00001FB0232528902B1401C491C0429F6DB2D
:1076E000704700006F4B0021142201FB02325289C7
:1076F000824204BF08467047491C0429F4DB5FF04E
:10770000FF307047684930B500240A680021654D94
:10771000142301FB03556B8943B1EB68D31A8342F1
:1077200004DB080002F048FE6C8130BD491C0429CE
:10773000EDDB30BD2DE9F04FA5B00121594C00A87B
:10774000801C01F047FD042103A801F043FD042142
:1077500004A801F03FFD012100A8C01C01F03AFD82
:10776000012102A801F036FD0221684601F032FD38
:107770009DF802000025642802D065284FD05FE004
:10778000BDF80000484E00283FD144480188491CFC
:107790000180ADF80010BDF80000FFF7A3FF00283E
:1077A000F3D504989DF808809DF8039082460398CD
:1077B00000278346BDF80000ADF80A0008E0401C31
:1077C000042806DB36487F1CFFF79CFF022F37DAC0
:1077D0000020142100FB01414A89002AEFD1C1F8A1
:1077E00000B0C1F804A081F8089081F80980BDF8C4
:1077F0000A204A813268CA6000F058FDFFF764FF32
:1078000001281DD101F026F91AE0FFF76BFF0028CF
:1078100016D4142100FB01403168C16010E0BDF8AE
:107820000000FFF75FFF00280AD4142100FB01418C
:107830004D8102F0C1FDFFF747FF08B901F018F9CB
:1078400005A80190BDF8001001A804F079F9042101
:1078500001A804F075F9102101A804F071F90421C0
:1078600001A804F06DF91420102205FB00410198D5
:107870006D1C04F009FA019810300190042DF2DB20
:1078800001F09EF8010001A804F062F929010C3111
:1078900005A801F05FFC25B0BDE8F08FD80F0020EF
:1078A000102700005405002074010020F0B5284D79
:1078B00000242E68012E26DB264F08D13868401C94
:1078C0003860642803DA002001F06AFB08E0002039
:1078D00001F05EFB3C607FF00040864208BF01265D
:1078E0001D48761C2E6086421ADB6421300004F0AD
:1078F00073F9060003D0002001F04AFB10E00020DD
:1079000001F04EFB0CE0002E0AD5002001F048FBF0
:1079100028681249401E2860884208BF01F0CCF94F
:10792000114D01F04DF80E49884228680AD30D49DF
:1079300088420BDA10B96868401C686028680A3011
:107940002860F0BD10B16868401C68602C60F0BD14
:107950005005002080000020B3020000F0D8FFFF97
:107960004C040000005C2605700000200A4810B599
:107970000168491C01600A290CD100240460FFF74A
:1079800095FF06480168491C01600A2904BF04608C
:1079900001F040F910BD00BF8400002088000020E5
:1079A00000B502F0A8F9002001F002FBF9E70000A1
:1079B000F6E7000000B500F0DFFD022002F012F84B
:1079C0005DF804EB00F0DABD00B500F0D9FD02204F
:1079D00002F008F85DF804EB00F0D4BD7047000039
:1079E00000B501F06DF800F0FDFF5DF804EB01F06B
:1079F000D7BB0000CD20FFF721BB0000CE20FFF752
:107A00001DBB0000CF20FFF719BB0000074800B5E1
:107A100001210170034801F0F9FB03485DF804EB14
:107A200001F0C8BB4805002010470400E10F00200A
:107A300010B504000F2C04D3BA2C38BFFFF7B0FFE9
:107A400055340448E4B250F8240080470248BDE8A9
:107A5000104057E608990008C02709007047000049
:107A60002DE9F04F804609980C0091469A46494608
:107A700001F0C8FB0027002501F0E2FBB9EB000193
:107A80004E1B18B1402EF7D33F20864387B9099883
:107A900053463200401901B4D8F814702100404612
:107AA000BF68B847070001B0B74208BF0027A41954
:107AB000AD194D45E0D117B15FF0FF3000E0484609
:107AC000BDE8F08F2DE9FF4F03905FF0FF300821F4
:107AD000804601A8444601F07DFB0198814602984A
:107AE00000900002000A8246554601F097FA06000F
:107AF000B24538BF5646B6F5805F84BFFF20864347
:107B0000300001F099FA07000ED115B1280001F0FC
:107B100069FB17B1380001F0B1FA200001F04AFB0F
:107B2000BDE8FF8F14EB09099DB1B5422CBFB346E8
:107B3000AB4680B4019B0498B5EB0B055A46494609
:107B4000FFF78EFF040001B0DFD45C45EAD0444665
:107B5000DBE75446DEE7000030B50400A5683F20AF
:107B600085430BD0206962682900101801F014FBCE
:107B7000206940192061A068401BA06030BD000052
:107B80002DE9F04F8EB00821804607A801F022FBB6
:107B90000898079C00900002000A81464D46112873
:107BA0000CD301F03BFA82464846001D504538BFD1
:107BB0008246504601F040FA834618B909A8834628
:107BC000142082465646361FAE4205D2B6F5806F67
:107BD00003D9760A760200E02E00254802A9320079
:107BE00002905FF400700590CDF80CB00020049076
:107BF0000690584603B4D8F81470029B21007F68A1
:107C00004046B847070002B0012F1EDB0698E41972
:107C1000ED1B391A019175B949465846C01903F050
:107C2000A3FF019906985A46091D101801F0B4FAED
:107C300001F0CCFA12E05A46101801F0ADFA01F04A
:107C4000C5FAB742BED0B9EB050706982D1A1CBF7E
:107C5000284601F08BFA380001F0ACFA09A88345F8
:107C60001CBF584601F00AFA0EB0BDE8F08F00BF05
:107C7000D154000870B5D3B004000521684601F066
:107C8000A9FA9DF8001043A801F0A4FA9DF801009C
:107C9000F0B19DF8020060B1AE4D29680E1861691F
:107CA0002069096A884740B92868301AF7D500204A
:107CB00003E061692069096A88470290012809DAAE
:107CC0000298012812DB9DF800008100091D0EE0DA
:107CD00001200290206964699DF8003002AAE468DE
:107CE000121D43A9A0470028EAD50290042102A84A
:107CF00001F030FA53B070BD70B5D2B0040002E0AC
:107D000001A801F027FA00250121684601F062FA76
:107D10009DF80000FF2806D09DF8001042A84155AC
:107D20006D1C402DF0D1666920692B00F66801AA10
:107D300042A9B0479DF80020A900FF2AE0D101AA7E
:107D4000091D42F8250001A801F004FA52B070BDE7
:107D500030B5D2B0040000250CE0042101A801F0E8
:107D600039FA9DF8001042A84155019902A840F83F
:107D700025106D1C0121684601F02CFA9DF80000C9
:107D8000FF28EAD1206964692B0002AA246942A96C
:107D9000A04701F00FFA52B030BD000011B501212B
:107DA0000400684601F016FA62699DF80010206927
:107DB0005269904768E10000010000B5086949690F
:107DC000896988475DF804EB01F0F4B9010000B55A
:107DD00008694969C96988475DF804EB01F0EAB9A7
:107DE000010000B508694969096A88475DF804EB34
:107DF00001F0E0B91FB504000020019014210291A8
:107E0000039004E09DF8001001A801F0E3F90121BE
:107E1000684601F0DFF99DF8000038B9206964690F
:107E2000019B039A0299646AA04769E0012100A8B6
:107E3000401C01F0CFF99DF801000128E2D0022892
:107E400002D0032804D007E09DF8001002A8DCE768
:107E50009DF8001003A8D8E79DF8000001F0C2F9D2
:107E6000D5E700001FB5040000200190012002901A
:107E7000039004E09DF8001001A801F0ABF9012186
:107E8000684601F0A7F99DF80000E0B96269019920
:107E90002069926A904719480178491C01700120B5
:107EA00001F0A0FD62690399206952699047029828
:107EB00001F098FD61692069C9698847040001F0F3
:107EC000A1FB20001CE0012100A8401C01F082F968
:107ED0009DF801000428CDD0052802D0062804D042
:107EE00007E09DF8001002A8C7E79DF8001003A85E
:107EF000C3E79DF8000001F075F9C0E778010020A4
:107F000001F058F91FBD00002DE9F1478046914668
:107F10000C004D462E009A46CEB1099950464B466C
:107F200003B4D8F81470D8F810002200BF6C0021F8
:107F3000B84702B0002848BF00200999361A884087
:107F40000449241800980968401A0128E4DAA81B9B
:107F5000BDE8F2877401002031B5042104006846B1
:107F600001F038F901F05AF80099814202D301F08A
:107F700055F800900098052816D301F05DF805002B
:107F8000002001B4019A0023291D121F92B2200083
:107F9000FFF7BAFF2860011D280001F0DBF8280078
:107FA00001F06CF801B031BD002001F003F931BDE2
:107FB00077B5060001A8082101F00CF9BDF804000E
:107FC000BDF80A1080008842B8BF0846001D01F0C5
:107FD00033F804000BD1BDF80A0001F003F97FF477
:107FE000837000900421684601F0B4F877BDBDF8B5
:107FF0000A1009B101F0EEF89DF80900002568B9F2
:10800000022001B4BDF80A30BDF80820211D30005F
:10801000FFF77AFF0546019001B01AE0012816D15A
:108020000220F084BDF80600BDF80420022103B44C
:10803000BDF81200130001218010801A14EB800299
:1080400030697669B66CB047029002B001E007482B
:1080500000900099200003F087FDA900091D200071
:1080600001F078F8200001F009F877BDFAFEFFFF73
:1080700011B501210400684601F0ACF862699DF871
:1080800000102069D26B904701F094F811BD0000F8
:1080900010B50300012001B11F48002B39D05968E9
:1080A00009B150F00200996809B150F00400D96894
:1080B0000C0018BF50F008001C690CB150F0100003
:1080C0005C690CB150F020009C690CB150F040008C
:1080D000DC690CB150F080001C6A0CB150F4807067
:1080E0005C6A0CB150F400709C6A0CB150F4806072
:1080F000DC6B0CB150F4805009B150F40050996C15
:1081000009B150F490405B6C19001EBF0146104647
:10811000984701F04FF810BD0100004003B5012160
:10812000684601F057F8012100A8401C01F052F800
:10813000022001F057F860B99DF800009DF8012079
:1081400001A952EA002002F0EDF801990022FFF7A0
:108150009FFF03BD07B50121684601F03BF80121EF
:1081600000A8401C01F036F8042101A801F032F803
:108170009DF800009DF8012002A952EA002002F0BB
:10818000D1F8019A0299FFF783FF07BD10B58BB0B4
:108190002822002101A803F0FDFC012100A8401CB9
:1081A00001F018F804E09DF8001001A801F030F883
:1081B0000121684601F00EF89DF8000030B99DF8E5
:1081C000010001A902F004F90BB010BD012100A8C3
:1081D000801C00F0FFFF9DF802000728E3D008286C
:1081E00004D0092807D00A280CD01CE09DF8001004
:1081F00001A8001DD4E79DF8001001A8401D00F063
:10820000E9FFD5E79DF8000008282CBF08240446A4
:10821000210001A8083000F0DDFF9DF80000001BE0
:1082200000F0E0FFC4E79DF80000F9E731B5022156
:10823000684600F0CFFF9DF801509DF80010174BE5
:1082400028220800042900FB023424D2616911B3FA
:108250000E2D20D2124A142100FB01201249096878
:10826000C160206910B9200002F084F80D486269ED
:1082700050F82550D06C58B12069D26C012190473C
:108280002000A847626920690021D26C904731BD67
:108290002000A84731BD00F059FF31BDA4050020E2
:1082A000540500205C9A000874010020704700000B
:1082B0002DE9F047089D0C008046E00791469A465C
:1082C0004E4614D59EB1099900202B0003B4D8F86E
:1082D0001470D8F8100001223F6B2100B84702B09B
:1082E00000286CD4361A012867D16D1C641C5046D6
:1082F000400051D4A00716D5022E14D309990120AD
:108300002B0003B4D8F81470D8F8100001223F6B8A
:108310002100B84702B0002851D4B6EB400601282E
:108320004BD1AD1CA41C504600001AD4042E18D307
:108330000999B0088246022003B4D8F81470D8F81E
:1083400010002B003F6B52462100B84702B00028B6
:1083500035D4B6EB800650452FD1504680002D18FD
:108360002418022E18D3099970088246012003B4FC
:10837000D8F81470D8F810002B003F6B524621003B
:10838000B84702B000281AD4B6EB4006504514D1C5
:10839000504640002D1824187EB1099900202B006A
:1083A00003B4D8F8100032002100D8F81440246B30
:1083B000A04702B0002802D4361AB9EB0600BDE887
:1083C000F08700002DE9F147099D804691460E0097
:1083D0004C469A46F00712D58CB1002001B4D8F86B
:1083E0001470D8F810002B007F6B0122B84701B041
:1083F00000287BD4241A012876D16D1C761C5046A7
:10840000400061D4B00715D5022C13D3012001B46C
:10841000D8F81470D8F810002B007F6B01223100BF
:10842000B84701B0002861D4B4EB400401285BD107
:10843000AD1CB61C504600002CD4042C2AD3D8F80E
:108440001470B86B68B1D8F81000BF6B2B00A2088D
:108450003100B847002849D48100641A761815EB1A
:108460008005A008824615D0022001B4D8F8147007
:10847000D8F810002B007F6B52463100B84701B08E
:10848000002833D4B4EB800450452DD150468000F1
:108490002D183618022C17D360088246012001B42B
:1084A000D8F81470D8F810002B007F6B52463100BA
:1084B000B84701B0002819D4B4EB4004504513D19B
:1084C000504640002D18361874B1002001B4D8F879
:1084D00010002B00D8F81450220031006D6BA84713
:1084E00001B0002802D4241AB9EB0400BDE8F287D9
:1084F000F0B590B0040010000F22150004260127EB
:108500002F406D0807B15D40761EF8D16E4646F8E3
:108510002250521EF1D514F8012B6B464240100731
:10852000000F53F8200090EA12100207120F53F8C0
:10853000222092EA1010491EEDD110B0F0BD0000CB
:10854000024B00B5FFF7D4FF80B200BD08840000E5
:1085500070B5084D040028780600012803D1012CCD
:1085600018BF01F0DDFE200000F05AFC2C70300036
:1085700070BD00BFEF0F002000F04CBA00F04CBA05
:1085800000F04CBA00F054BA30B5064D0400002299
:108590002900FFF7D5FF615B884204BF002030BD92
:1085A000012030BDFE5B000001000A780020202A77
:1085B00006D1491C04E00A2300FB0320303880B2B6
:1085C00011F8012B302A01D33A2AF4D37047000066
:1085D000214A2DE9F04389B069462424241F135908
:1085E0000B51FBD100F22D184046001DFFF7DCFFB8
:1085F00081464046C01DFFF7D7FF040040460C30BF
:10860000FFF7D2FF050040460F30FFF7CDFF060011
:10861000002704E000201BE07F1C0C2FFAD0032071
:108620006B4607FB00300322414603F01BFB00288A
:10863000F2D10A480C21BFB2201800FB01701F21A3
:1086400000FB0190182100FB01503C2100FB016060
:1086500009B0BDE8F08300BF949A000830F8FFFF2E
:10866000F0B5ADF2044D00205FF4806400F098FD99
:1086700031480221ADF80000684600F0ABFD5FF420
:10868000806101A800F0A6FDBDF800005FF4B841CC
:10869000884234D101A8FFF79BFF05002948FFF766
:1086A00097FF15B108B1A84229D2254E224601A94B
:1086B000300000F0E5F8370017F58067710C01A86D
:1086C00000F088FD720C01A9380000F0D9F814F50B
:1086D0008064A4B25FF4B8418C42EDD33000FFF760
:1086E00053FF04001CBF304600F0CCF8200000F01F
:1086F00057FD642001F076F900F0DEFA19E001A8D8
:1087000000F210111448802203F0BEFA07E05FF473
:10871000806101A800F05EFD14F58064A4B2BDF88C
:1087200000108C42F3D3054801F05CF9002000F002
:1087300037FD0DF2044DF0BD55AA0000DC05000028
:10874000009C000800400008034902480A7802B172
:108750000800704710410008C804002000B540B16F
:108760003AB18B18B3F5807F9EBF114BC91803F047
:108770008BFA00BDF0B5C0B004000D001600ACB11E
:10878000A6B1A819B0F5807F10D8094F6846FA0C39
:10879000390003F079FA320021006846401903F0ED
:1087A00073FAFA0C6946380000F06AF840B0F0BD80
:1087B00000F8000800B540B13AB18B18B3F5807FDE
:1087C0009EBF124BC91803F05FFA00BDF0B5C0B0F0
:1087D00004000D001600B4B1AEB1A819B0F5807F49
:1087E00011D80A4F6846FA0C390003F04DFA3200EE
:1087F00021006846401903F047FA0023FA0C694645
:10880000380000F017F840B0F0BD000000FC000890
:108810002248016851B906495FF480720988914283
:1088200022BFD1000160704791000160704700BF16
:10883000E0F7FF1F2DE9F041984604000D001600F7
:1088400009E0002000F0A4FB7F1CB7EB460FF8DB2B
:10885000002000F0A5FB404618B13100200000F0D8
:108860001FF832002900200000F01EF83200290015
:10887000200003F0F7F908B9BDE8F0810027E4E72C
:108880000123D7E710B50400FFF7C2FF03480168D2
:108890002000BDE8104000F003B800008C0000206C
:1088A000004B184735100020004B18479910002046
:1088B00067480B49394A416037490A60094A4A60AA
:1088C000384A2021127812B1012A04D07047064A92
:1088D000026001617047054A02604161704700BF54
:1088E00034C84C4444444543834434388444343885
:1088F00057485FF0443101600349416026482749E9
:10890000016002494160704734C44C4444444544CA
:1089100023480068704700001A4800B57FF0E06205
:1089200001680A4052F080610160174800F0CEF8FB
:108930001848164A016851F00C01016044485FF084
:10894000443101604160C2601348144A0260104A19
:1089500041602021C16012490A604A4901220A701F
:10896000104900220A708068800654BF0020012050
:108970003E490870087810B1FFF79AFF00BDFFF775
:10898000B7FF00BD04000140204E0000E3040000DA
:108990007011010018100240000C0140444484444E
:1089A000A8000020E40F002010B94048810C0160AD
:1089B0007047000010B97A48810C016070470000D0
:1089C00000487047E40C00000E4800680106090FDB
:1089D00004E000000B4800680106C90E01200840B1
:1089E00070470000B3480168F8E7000005480068D8
:1089F0000106890FF2E70000024800680106890EAF
:108A0000ECE7000008080140AA4800680106490E8A
:108A1000E4E7000038E00000604836E00C4802213E
:108A2000F02241610168914351F0300101607047CB
:108A300010B5074C022020615FF47A7000F0A0FAB4
:108A40002068F021884350F08000206010BD0000B5
:108A5000000801400B4800B5017831B901210170CF
:108A60000248007808B1FFF723FF00BDE50F0020A2
:108A7000044800B5017819B100210170FFF738FFF3
:108A800000BD0000E30F00200C4801210160704789
:108A90000A4801E0414800BF8021016070470000A2
:108AA00002485FF48041016070470000140C0140EF
:108AB0003B485FF4804101607047000014080140AA
:108AC000364820214160016070470000114908606C
:108AD000C0B10D4A01460020914208D20B4A8A18C3
:108AE000B2FBF1F2D21E012A02DA012200E00022DA
:108AF000B44B1A60064AB2FBF1F1274A0A391160F9
:108B000048BF1060704700BFC05C15003F5489002B
:108B100040548900900000202DE9F14F009205009B
:108B20001D480E00984681461C4844460027824650
:108B30001B485FF48041F20754BF41600160802010
:108B40008346E80754BFCAF804B0CAF800B0202032
:108B5000CAF80400D9F800006D0876087F0808B14B
:108B600000F012FAFFF742FF08B157F0800720200B
:108B7000CAF80000D9F8000008B100F005FA641E38
:108B8000D6D1009808214246891ACF400770CAF80A
:108B900004B0BDE8F18F00009400002010080140EF
:108BA000100C0140F0B51F0014000D00060016F86F
:108BB000011B15F8010B08232200FFF7ADFF641C11
:108BC0007F1EF4D10020F0BD2DE9F0438046894698
:108BD00016001F00FC0805D02300FFF7E3FF050087
:108BE0000CD100E000257F077F0F07D04046015DD4
:108BF0004846005D3B003219FFF78EFF2800BDE8B4
:108C0000F08300000249016004218180704700BFA9
:108C1000006CDC0270470000154970B101280FD0CC
:108C2000022810D0032812D0042814D00A2816D005
:108C30000B2816D00C2816D017E00E480078704785
:108C40000D48006870470D48B0F9000070470C48A7
:108C5000B0F9000070470B48B0F900007047088871
:108C6000704748887047888870475FF0FF307047CA
:108C70009C000020E20F0020A4000020DA0F00205A
:108C8000DC0F0020DE0F00200A4910B56B4C207865
:108C90000968890608D56B49097811B108B9FFF749
:108CA00007FE0120207010BD18B100202070FFF7D2
:108CB0001FFE10BD080C014000B501F01CF8034870
:108CC000034A016889B20A430260FEE70CED00E046
:108CD0000700FA052DE9F74F9846394D0822D21AB8
:108CE0008DF80420424620239846802399467FF041
:108CF00070439A46334B00279B46DBF80030002B2D
:108D000032D00C0006000092F007286804D51AEA59
:108D1000000050F0405003E01AEA000050F000401C
:108D20002860E00754BFC5F81490C5F81090C5F846
:108D30001080DBF800007608640800F025F9C5F81B
:108D40001480DBF80000FF053F0E00F01DF9A86855
:108D5000C00648BF57F080070098401E0090D3D14E
:108D600002989DF8041026E0C3072B6804D51AEA80
:108D7000030353F0405303E01AEA030353F00043A4
:108D80002B60CB0754BFC5F81490C5F81090C5F8F8
:108D90001080C5F81080C5F81480AB6840084908F9
:108DA000FF053F0EDB0648BF57F08007521EDBD1A0
:108DB00002989DF80410CF4007700020BDE8FE8F98
:108DC00000080140980000202DE9F14F00928046F4
:108DD00089469A465046C40811D0250093464E460F
:108DE000474617F8011B16F8010B08235A46FFF7F0
:108DF00071FF0BF2010B6D1EF3D178B900E000207A
:108E0000514649070AD05046430700985B0F0219A4
:108E10004046015D4846005DFFF75CFFBDE8F28F0C
:108E2000064A074912783AB1064A127822B10A78FE
:108E3000824201D008703BE508707047E50F0020C2
:108E4000E40F0020E30F002072B6464A1268026069
:108E500043480068086062B67047000072B6414936
:108E60000968421A012A08DA404A1368264AC01AD9
:108E700012689A18521A3C4908603948026062B672
:108E8000704700001B4830B51B4D016037490A6030
:108E90001D4A13601D4B1C6825431D60174B7FF452
:108EA00070651C68254055F40064154D1C60154B19
:108EB0005C0D9C6024245C600024DC600068000180
:108EC000B5FBF0F0401C4008000118602548096817
:108ED000016023481168016023481021046058682C
:108EE00050F400505860352000F09CFF352000F011
:108EF00063FF30BDAC0000200440000004080140C6
:108F00000044950808380140B400002018100240C1
:108F10000248042201689143016070470C38014007
:108F200092E700009AE7000000487047B89A0008EE
:108F30000A480B490B4B10B500680A681C6852B10F
:108F4000521E04F8010B05D1074800240268046092
:108F5000064804680A601C6010BD00BF0438014068
:108F6000BC000020B8000020C0000020B00000209D
:108F7000704700007047000000487047FF3F002026
:108F8000004B1847D1110020004B1847D911002081
:108F90000E4A0A2100FB012101224A70FFF704BD9D
:108FA0000A4A0A2100FB012100224A70FFF702BD94
:108FB000064A0A2100FB01214A7892F001024A7018
:108FC00001D0FFF7F1BCFFF7F5BC0000C4000020A2
:108FD0007047000000224260016027490A680AB910
:108FE000086070470A0000E01A1D13680BB1984230
:108FF000FAD24360106008680028F2D000E0080050
:1090000041680029EDD0026883188B42F7D14B6884
:109010004360096851180160F2E70000164900201A
:10902000096804E00A68904238BF10464968002980
:10903000F8D100B10838704710B501000020C91DF3
:10904000072291430C4A083100E01A1D136893B1BE
:109050001C68A14208D218005B1813600268521AFB
:109060001A6042685A6003E0EFD118005B68136031
:1090700008B140F8081B10BDD000002000B518B1A1
:1090800050F8081DFFF7A6FF00BD0000CA1D07210C
:109090008A4350F8081D08320260891A801899E73F
:1090A00010B504002068FFF7E9FF0020206010BD24
:1090B000072291438EE7000011B5204CFFF75CFFBB
:1090C000011B491C20001E4CFFF7F2FFFFF724FC98
:1090D000FFF77EFF0120FDF7AFFFFFF7C9FC19483E
:1090E000FFF7F4FCFFF76CFC0020FFF751FF00F0E6
:1090F000AFF8FEF7B3FC04E0FFF75AFF322000F0B0
:1091000071FC00F0BDF80028F6D00020FFF740FF0A
:109110000DE001202060684600F0B4F8002806D475
:109120005FF0FF3020609DF80000FEF781FC0648EC
:1091300000780028EDD000F099F8E2E7E013002075
:1091400050050020204E0000F00F00204B48012168
:109150000170704700B521B118B15D4A12685269BB
:10916000904700BD5A4A1268D269104730B588B09E
:10917000040020220021684602F00CFD212C34BF9F
:1091800025462025524A29006846126852699047B0
:10919000641BF3D108B030BD4D4A12689269104784
:1091A00001B5012102E0000001B502216846FFF788
:1091B000D1FF01BD01B50421F8E700006846FFF7C3
:1091C000D1FF01BD01B50421F8E700004048006867
:1091D000006A004709B9002070473D4A126892684A
:1091E0001047000030B588B00400212C34BF25465C
:1091F000202529006846FFF7EDFF08B9641BF4D16C
:1092000008B030BD324A1268D26810470421E1E745
:1092100011B50022040068460260FFF7DBFF9DF8ED
:1092200001209DF8001051EA02219DF8022051EA28
:1092300002419DF8032051EA0261216012BD000045
:1092400023480068006800472148006840680047DC
:109250001E4800B500F046FC00F09AF81C481D4975
:10926000016000BD194800F06DBC000003480021FA
:10927000017017480068006900470000F00F0020E7
:1092800000F09CB931B5114D040003E00221280023
:1092900000F090FC00F092F958B100F08DF901282F
:1092A00007DB0B480B49016001212000FFF792FF0B
:1092B00032BD00F083F90028E8D00021684600F0B4
:1092C0006DF9280000F060FCE4E70000D400002005
:1092D000DC000020DC9A000811B50B246A460A2144
:1092E00002F060FC2849009A30320A55641EF5D518
:1092F00011BD000003B5012200A80121401CFFF7A9
:109300002DFA9DF80100012802D0022806D00EE0B7
:109310000422002101A8FFF74DFA04E004220821ED
:1093200001A8FFF71BFA0198FFF7D6FF03BD012242
:1093300000216846FFF712FA9DF80000042805D2C4
:10934000A5489DF8001001F20111018003BD000045
:10935000FFF788BF00B58807800F022818BFFFF706
:1093600081FF00BD9B480088704700009A48008834
:1093700070470000994800687047000098480068EE
:10938000704700000048704704000020012070472B
:1093900001B5FFF7AFFF01F09FFD002001B40023EE
:1093A00040220221012001F019FD0F4B8DF804002D
:1093B000402001B402460221002001F00FFD8DF88B
:1093C000090002A801F038F9084801F053F90849EA
:1093D0000848002201F082FF0749002001F0C4FE86
:1093E00001F096FD07BD00BFEC000020C96C00082D
:1093F000CD6C0008E0000020056D000800B5FFF707
:10940000B9FD142000F0EEFA5DF804EBFFF7B0BDF3
:109410002DE9F04F8B466549884698F800100029E1
:1094200048D14E4D040035482F685E46814607B34B
:109430004020C01B86422CBF8246B24652462100C5
:109440004846C01902F020FC1AEB07071AEB040487
:10945000B6EB0A06402F0CD14F480022402103688A
:10946000484601F0D5F840281CBF012088F80000CC
:109470000027B009800182460FD04748002251469C
:109480000368200001F0C4F850451CBF012088F893
:1094900000001AEB0404B6EB0A062EB132002100DC
:1094A000484602F0F1FB37002D482F605A4601680C
:1094B00089180160BDE8F08FF0B5294C2068E0B153
:1094C0003A4D2978C9B9254E0027316861B1324833
:1094D00001220368094801F09BF8316888421CBFEB
:1094E00001202870376005E0810603D1400518BFD0
:1094F00001F086F8276001F0C5F8F0BD2C010020CE
:1095000070B52A4E04000D00307860B9FFF7D4FF23
:109510002148012229000368200001F079F8A842BF
:109520001CBF0120307070BD30B505001F480C0015
:10953000007890B90948006808B1FFF7BDFF002224
:109540002100280001F03EF80548A1061EBF0021B9
:10955000016030BD01680919016030BD6C01002057
:109560007001002070B5114E04000D00307838B144
:109570002A000021200002F00DFB5FF0FF3070BDDB
:1095800005480268200001F04FF8A84202D00120EF
:109590003070EDE7002070BD00000020034A127813
:1095A00012B15FF0FF30704701F006B8E60F0020FF
:1095B00001F01CB801F012B801F00CB800B501F0D0
:1095C000C1FE8007800F022804BF012000BD0020DB
:1095D00000BD000064000020660000201400002090
:1095E0001800002000487047E011002068467047CE
:1095F000034800B5007808B900F077FB00BD000013
:109600007901002010B52A4C2078401E20700006F9
:109610000ED100F070FB7C48007828B1012020704A
:1096200000F052FB00202070607808B900F05DFB6C
:1096300010BD00002DE9B04181680022904631B193
:109640000A68496802B151600A60C0F80880417C2C
:10965000174C8907890F417411D16C490A68A2B966
:109660000860207830B90120207000F02DFB002028
:10967000207004E06448017851F0020101706078C4
:1096800008B900F032FBBDE8B081037C157C9D4237
