:020000040800F2
:10000000B00A0020F501000833200008431D000855
:1000100031200008390400083D2C000800000000D1
:100020000000000000000000000000005F20000849
:1000300011050008000000005D20000831270008BD
:100040000F0200080F0200080F0200080F0200084C
:100050000F0200080F0200080F0200080F0200083C
:100060000F0200080F0200080F0200080F0200082C
:100070007D0400080F0200080F0200080F020008AC
:10008000890400080F0200080F0200080F02000890
:100090000F0200080F0200080F0200080F020008FC
:1000A0000F0200080F0200080F0200080F020008EC
:1000B0000F0200080F0200080F0200080F020008DC
:1000C0000F0200080F0200080F0200080F020008CC
:1000D0000F0200080F020008252C0008312C000830
:1000E0000F0200080F0200080F0200080F020008AC
:1000F0000F0200080F0200080F0200080F0200089C
:100100000F0200080F0200080F0200080F0200088B
:100110000F0200080F0200080F0200080F0200087B
:100120000F0200080F0200080F0200080F0200086B
:100130000F020008000000000000000000000000A6
:100140000000000000000000000000000F02000896
:100150000F0200080F0200080F0200080F0200083B
:100160000F0200080F0200080F0200080F0200082B
:100170000F0200080F020008000000000F02000834
:100180000F0200080F0200080F0200080F0200080B
:100190000F0200080F020008000000000F02000814
:1001A0000000000000000000000000000F02000836
:1001B0000F0200080F02000800000000000000000D
:1001C000000000000000000000000000000000002F
:1001D0000000000000000000000000000F02000806
:1001E000DFF80CD000F07AF800480047E92D00084D
:1001F000B00A00200648804706480047FEE7FEE7B1
:10020000FEE7FEE7FEE7FEE7FEE7FEE7FEE7FEE7C6
:10021000F1270008E10100082DE9F05F0546002004
:1002200092469B4688460646814640241BE0284667
:1002300041464746224600F041F853465A46C01A06
:10024000914110D311461846224600F028F82D1A85
:1002500067EB01084F4622460120002100F01FF8FD
:1002600017EB00094E41201EA4F10104DFDC4846D3
:1002700031462A464346BDE8F09FD2B201E000F87D
:10028000012B491EFBD270470022F6E710B513463A
:100290000A4604461946FFF7F0FF204610BD202A03
:1002A00004DB203A00FA02F1002070479140C2F1CD
:1002B000200320FA03F3194390407047202A04DBFF
:1002C000203A21FA02F00021704721FA02F3D040CF
:1002D000C2F120029140084319467047064C074D71
:1002E00006E0E06840F0010394E807009847103406
:1002F000AC42F6D3FFF778FFE8BB000808BC000863
:100300004A496FF0706210B5D1F8043323F44033DA
:10031000C1F80433D1F8043344682343C1F80433EB
:1003200001684B6823F480734B60016803694C6873
:1003300044EA03234B6001684B6823F040734B6031
:10034000016884684B6823434B6001688B6823F421
:1003500000638B600168C4688B6823438B60816A8B
:10036000D14201688A6822F070628A6001680DD00B
:10037000836A8A681A438A6001688A6822F0405258
:100380008A600168C36A8A681A4302E08A6822F0B8
:1003900040528A6001688A6822F002028A6001681D
:1003A00082698B6843EA42028A6090F82010002933
:1003B000016811D01E4A4B6843F400634B6001682A
:1003C0004B6823F460434B600168446A4B6802EB5E
:1003D000443213434B6003E04A6822F400624A60EF
:1003E0000168144BCA6A22F47002CA620168848BE5
:1003F000CA6A03EB04531A43CA6201688A6822F48A
:1004000000728A60016890F830208B6843EA4222CB
:100410008A6001688A6822F480628A6001684069A3
:100420008A6842EA8020886010BD000000200140F8
:1004300000E0FFFF0000F0FFFEE700000D48002194
:1004400018B44FF486726423017001244170426035
:10045000017243818181016104754175064801681B
:1004600041F004010160006800F00400009018BC35
:1004700001F0E0BD9406002030380240014800F051
:10048000D5B9000034060020014800F0CFB90000C3
:10049000D405002001681823CAB2103AB2FBF3F267
:1004A000054B6FF30901032A9B5CC36500D9091D45
:1004B000816508467047000029BA000810B58369B5
:1004C0004FF0C074826A0146002053B1B3F5005F5B
:1004D00015D072B1012A0CD0022A0AD0032A09D100
:1004E00004E01AB1012A06D0022A03D1C96AC9015F
:1004F00000D5012010BDC96AA142FAD010BD002A62
:10050000F7D0012AF2D0022AF3D0032AF3D010BD8B
:10051000704772B6FEE70000F8B50025009590F828
:100520003C20012A1DD0012280F83C20604C07238A
:10053000D6070A68092A22D9B24220D007680A3AA7
:1005400002EB420CFA6803FA0CF39A43FA600A6869
:10055000A24208D102680B7AD76847EA0363D360E6
:1005600022E00220F8BD07680A3A8B6802EB4202DB
:10057000D7F80CC0934043EA0C03FB6014E0076813
:1005800002EB4202D7F810C093402CEA030CC7F8E4
:1005900010C003680F788A68D3F810C007EB4707CC
:1005A000BA4042EA0C021A614A681F23072A16D28F
:1005B0000768521E02EB820C7A6B03FA0CF39A4323
:1005C0007A6302680F790B887F1ED2F834C09BB221
:1005D00007EB8707BB4043EA0C0353632DE0076832
:1005E0000D2A15D2D21F02EB820C3A6B03FA0CF3E0
:1005F0009A433A6302680F790B88FF1FD2F830C024
:100600009BB207EB8707BB4043EA0C03136314E07C
:100610000D3A02EB820CFA6A03FA0CF39A43FA627F
:1006200002680F790B880D3FD2F82CC09BB207EB04
:100630008707BB4043EA0C03D3621E4A0368934218
:1006400008D10B68B34205D1D2F8043323F4400338
:10065000C2F804330368934208D10B68122B05D10A
:10066000D2F8043343F48003C2F80433036893429E
:100670001AD10B68A34201D0112B15D1D2F8043343
:1006800043F40003C2F804330968A1420CD10A49BB
:100690000A4A0968B1FBF2F101EB8101490000E06F
:1006A000491E00910029FBD180F83C500020F8BD84
:1006B00012000010002001400C00002040420F00FA
:1006C00070B504004FF0000503D0206C002610B177
:1006D00007E0012070BD204600F01CF8666484F835
:1006E0003C60206CC00610D4206C20F4885040F090
:1006F000020020642046FFF703FE6664206C20F0B1
:10070000020040F00100206400E0012584F83C6014
:10071000284670BD10B586B0044614216846FFF720
:10072000B3FD1149206888421BD11048016841F48B
:1007300080710160006800F4807005900B481438E7
:10074000016841F0010101600068002100F0010032
:10075000059003200090CDE901010548694600F0AD
:10076000B9F906B010BD0000002001404438024035
:10077000000002402DE9F041876D044600F092FA36
:10078000064694F835000025022806D080206065D2
:10079000012084F83450BDE8F0812068016821F020
:1007A000160101602068416921F080014161206CDF
:1007B00008B9A06C20B12068016821F0080101602F
:1007C0002068016821F0010101600CE000F06AFA84
:1007D000801B052807D920216165032084F8345047
:1007E00084F83500D7E720680068C007EED194F898
:1007F0005C203F2001219040B86084F8345084F898
:1008000035100020C7E790F83510022903D0802169
:10081000416501207047052180F8351000680168A6
:1008200021F0010101600020704700002DE9F8432C
:1008300004464FF00009644B0820CDF800904FF4B7
:100840001652A56D94F85C101B682E68B3FBF2F786
:1008500000FA01F131420FD021680A6852070BD526
:100860000A6822F004020A6094F85C108840A860CC
:10087000606D40F00100606594F85C104FF0010875
:1008800008FA01F0304208D021684969090604D508
:10089000A860606D40F00200606594F85C10042070
:1008A0008840304208D021680968890704D5A860CB
:1008B000606D40F00400606594F85C101020884082
:1008C000304218D021680968090714D5A86020684B
:1008D0000168490304D50068000308D5A16C07E04E
:1008E0000168C90503D4016821F008010160216C89
:1008F00009B12046884794F85C1020208840304297
:1009000031D021680968C9062DD5A86094F8350052
:1009100005282068016806D0490347D50068000310
:100920001DD4616C1CE021F0160101602068416952
:1009300021F080014161206C08B9A06C20B12068D1
:10094000016821F00801016094F85C303F229A4070
:10095000AA6084F8349084F83580216D1FE0E16B43
:1009600009B120468847606D00282BD0606DC00714
:1009700014D0052084F835002068016821F00101B9
:1009800001600098401C0090B84203D820680068BD
:10099000C007F6D184F8349084F83580E16C0029E2
:1009A00010D001B02046BDE8F04308470168C905F2
:1009B000D5D4036823F01003036084F8349084F8DE
:1009C0003580CCE7BDE8F8830C0000202DE9F04726
:1009D000044600F067F9054664B14FF0000984F859
:1009E0003490022184F835102068016821F001015B
:1009F00001600EE00120BDE8F08700BF00F052F971
:100A0000401B052805D920216165032084F83500A5
:100A1000F1E720680068C007F0D1D4E90020D4E9EC
:100A20000251D4E9043C284304F118051943084352
:100A3000116895E8E00140EA0C001C4B284319407E
:100A400040EA060040EA0700B8F1040F40EA01005E
:100A500003D1D4E90B131943084310602068012621
:100A6000656A4069042D20F0070045EA00050CD1B5
:100A7000D4E90A01054341B12046FFF71FFD20B12B
:100A80004020606584F83560B4E720684561204601
:100A9000FFF700FD94F85C303F229A408260C4F872
:100AA000549084F835600020A5E700003F8010E0F6
:100AB00070B5044600F0F6F80546601C02D0044804
:100AC0000078044400F0EEF8401BA042FAD370BD59
:100AD000000000202DE9F84F00224FF001094FF0EF
:100AE000030A4FF00F0E00BF0B6809FA02F423400F
:100AF000A34270D14D68012D05D0022D03D0112DD8
:100B000001D0122D11D185685700CE680AFA07FC72
:100B100025EA0C05BE402E43866045680E79A54344
:100B2000C6F3001696402E434660C56856008F688F
:100B30000AFA06F4A543B7402F43C7604D68022D5B
:100B400001D0122D12D1D5080F694FEA427C00EB7B
:100B50008505AB462D6A4FEADC6C0EFA0CF807FAF5
:100B60000CF725EA08052F43CBF820700F790568AC
:100B700007F00307A543B7402F4307604C68E40024
:100B80006AD5384C256845F480452560246822F0F4
:100B90000305970704F480440094334C3F0F254429
:100BA000D5F80848DFF8C4C00EFA07F6604524EA15
:100BB000060401D1002624E02D4EB04201D10126C9
:100BC0001FE02C4EB04201D102261AE02A4EB0425C
:100BD00002D1032615E03FE0284EB04201D10426A1
:100BE0000FE0274EB04201D105260AE0254EB04263
:100BF00001D1062605E0244EB04201D1072600E0CF
:100C00000826BE40214F2643C5F808684D683C6859
:100C1000ED0324EA030400D51C431C4D3C602D1D4C
:100C20004E682C68B60324EA030400D51C43174E13
:100C30002C6008364D683468ED0224EA030400D5C0
:100C40001C43124D34600C354E682C68B60224EA01
:100C5000030400D51C432C60521C102AFFF444AF3F
:100C6000BDE8F88F443802400030014000000240E7
:100C70000004024000080240000C02400010024044
:100C80000014024000180240001C0240003C0140D9
:100C90000069084000D0012070470AB181617047A7
:100CA0000904FBE70148806870470000000000204D
:100CB000024881680278114481607047000000207A
:100CC000032010B500F06EF8002000F005F800F0E9
:100CD00023F8002010BD000070B50D4D04464FF400
:100CE0007A700C4A29781268B0FBF1F0B2FBF0F090
:100CF00000F02EFE48B9102C07D200222146501ECB
:100D000000F030F800206C6070BD012070BD000064
:100D1000000000200C0000200A4808B5016841F0DE
:100D200080510160006800F0805000900548001D6F
:100D3000016841F480410160006800F48040009047
:100D400008BD000040380240002809DB410900F0DE
:100D50001F028900012001F1E0219040C1F800014B
:100D6000704700000E4BF0B41B680D46C3F302231E
:100D7000C3F10706042E00D90426191D072901D244
:100D8000002300E0DB1E012404FA06F19C40491E0A
:100D90002940641E994014402143F0BC01F04FBF2C
:100DA0000CED00E0064900F0070210B54FF6FF0415
:100DB0000868044B204040EA02201843086010BD38
:100DC0000CED00E00000FA051848F8B5016841F0A4
:100DD000805101600068164C00F08050009020683F
:100DE00040F480302060FFF75DFF4FF47A760546CF
:100DF00005E000BFFFF756FF401BB0420FD8606808
:100E0000C003F7D5206840F400302060FFF74AFFA8
:100E1000054606E0FFF746FF401BB04201D903201C
:100E2000F8BD60688003F5D50020F8BD4038024069
:100E3000007000402DE9F84F04460078DFF8189460
:100E40004FF000073E46C0070ED0D9F8001021F43D
:100E50000001C9F80010D9F80010E26A1143C9F87E
:100E60000010E06A00B90127FB4D206884350003BB
:100E70000ED5616B286820F4401008432860606B31
:100E8000B0F5801F01D010B102E0012700E001267B
:100E900020684FF4800BC0020CD5A16B286820F4A9
:100EA000400008432860A06B584501D1012701E0AC
:100EB00000B901262078800667D5E74838300168F8
:100EC00041F0805101600068DFF890A300F080508D
:100ED0000090DAF8001041F48071CAF80010FFF7B2
:100EE000E1FE804606E000BFFFF7DCFEA0EB080055
:100EF00064287DD8DAF80000C005F5D5DFF85883FE
:100F000008F16808D8F8000010F440702AD0218D4C
:100F100001F44071814225D0D8F80010D8F80020A3
:100F200021F4407142F48032C8F80020D8F8002043
:100F300022F48032C8F80020C8F80010D8F8000069
:100F4000C0070FD0FFF7AEFE824607E0FFF7AAFE0C
:100F5000A0EB0A0141F288308142CAD8D8F80000DB
:100F60008007F3D5A06AC0F3012103297ED0D9F808
:100F7000001021F4F811C9F80010228DD8F80010E3
:100F8000C2F30B021143C8F800102078C00607D541
:100F9000286820F0807028602868216B084328604A
:100FA0002188AD488830490405D5E26D016821F4F7
:100FB0004031114301602188090405D5226E016882
:100FC00021F44021114301602168C90305D5626EF7
:100FD000016821F44011114301602178490605D5CB
:100FE000E26B016821F0030111430160217800E008
:100FF00009E1090605D5226C016821F00C011143B5
:1010000001602188C90505D5626C016821F03001B5
:10101000114301602188890505D5A26C016821F082
:10102000C001114301602188490505D5E26C0168C2
:1010300021F44071114301602188090505D5226D15
:10104000016821F44061114301602188C90405D57C
:10105000626D016821F440511143016021888904C7
:1010600007D5A26D016821F4404100E03DE0114345
:10107000016021684FF0006A890209D5626F01683A
:1010800021F0006111430160616F514500D10126DB
:101090002168490305D5E26E016821F040711143D2
:1010A00001602168090205D5A26F016821F0805115
:1010B000114301602168490105D5E26F016821F003
:1010C000005111430160DFF89891012F02D0206890
:1010D00080016ED5D9F800004F4620F08060C9F835
:1010E0000000FFF7DFFD804610E05E4AD9F80030CF
:1010F000104023F4F8120243C9F800203DE700BF76
:10110000FFF7D0FDA0EB080064287CD83868000108
:10111000F6D4217850487C30C9070DD0E16A59B91E
:10112000227A6168D0F800C08B01CCF3036143EAF6
:10113000016141EA0271016021680A0303D5626B13
:10114000B2F5801F04D0C90214D5A16B594511D145
:10115000237B626801689201C1F3027142EA036273
:1011600042EA017101602968E26921F01F01521E03
:10117000114329602168890108D56168227B237A9F
:10118000890141EA026141EA037101603968B846A8
:1011900041F080613960FFF785FD074605E000BF3B
:1011A000FFF780FDC01B642863D8D8F80000000159
:1011B000F6D54EB3D9F800004E4620F08050C9F85D
:1011C0000000FFF76FFD074605E000BFFFF76AFD6F
:1011D000C01B64284DD83068C0438000F6D51E4837
:1011E000216880300A0301D5626B1AB1C90219D592
:1011F000A16BB9B923690168227D9B01C1F301414B
:1012000043EA014101E034E03AE041EA0261016071
:1012100029686FF0FF03226A21F4F85103EB0222E0
:1012200011432960216889020DD5616F51450AD1AA
:10123000228B21690368890141EA0242C3F30361F9
:1012400042EA01610160306840F080503060FFF791
:1012500029FD044610E000000838024000700040FC
:1012600000380240FFFCFF0FFFF71CFD001B642845
:1012700002D90320BDE8F88F3068C0438000F3D462
:101280000020F7E72DE9F04705000F4663D0444EF4
:10129000306800F00F00B84209D2306820F00F002B
:1012A00038433060306800F00F00B84253D12868EE
:1012B0003C4C810712D5400703D5206840F4E0502C
:1012C00020602878000703D5206840F46040206043
:1012D000A968206820F0F000084320602878C00743
:1012E0002AD0304968680839012810D009680228D6
:1012F00010D0890700292EDA216821F0030101436B
:101300002160FFF7CFFC804641F288390DE0096883
:101310008903EFE78901EDE7FFF7C4FCA0EB0801C3
:10132000494502D90320BDE8F0876868216801F0CB
:101330000C01B1EB800FEFD1306800F00F00B84224
:101340000BD9306820F00F0038433060306800F06F
:101350000F00B84201D00120E5E72878400705D505
:10136000E968206820F4E0500843206028780007EE
:1013700006D52869216821F4604141EAC000206057
:1013800000F038F82168084AC1F30311515CC840E5
:101390000649086006480068FFF79EFC0020C2E787
:1013A000003C02400838024031BA00080C0000201E
:1013B000040000200449054809680068044AC1F394
:1013C0008221515CC8407047083802400C00002060
:1013D00041BA00080449054809680068044AC1F395
:1013E0004231515CC8407047083802400C00002070
:1013F00041BA0008154910B51548096811F00C02EA
:1014000013D04110042A0FD0082A0ED10F4C241FEC
:101410002268236802F03F025B0207D52068C0F310
:101420008810A0FB010106E0084610BD2168C1F349
:101430008811A1FB00010023FEF7EEFE2168C1F335
:101440000141491C4900B0FBF1F010BD08380240D1
:101450000024F4002DE9F84F04004FF000076ED08F
:101460002078DFF868A3AAF10408C007A8F10405F2
:101470004CD0DAF800105046C1F38101012908D0A0
:101480000068C0F3810002280AD1D8F800004002A9
:1014900006D52868800339D560680028DFD035E09C
:1014A0006068B0F5803F0BD010B1B0F5A02F11D01F
:1014B000286820F480302860286820F4802002E02A
:1014C000286840F480302860606890B1FFF7EAFB3C
:1014D00006460AE0286840F480202860F0E700BF54
:1014E000FFF7E0FB801B642872D828688003F7D5DB
:1014F0000CE0FFF7D7FB064605E000BFFFF7D2FB85
:10150000801B6428F0D828688003F7D420788007EF
:1015100042D5DAF80010504611F00C0F08D00068E0
:10152000C0F3810002280BD1D8F80000400207D494
:101530002868800718D5E068012800D114E041E14F
:10154000E0680028286817D040F001002860FFF705
:10155000A9FB064605E000BFFFF7A4FB801B02289D
:10156000C2D828688007F7D52069296821F0F801DA
:1015700041EAC00028600FE020F001002860FFF77A
:1015800091FB064605E000BFFFF78CFB801B02289D
:101590001ED828688007F7D42078000729D58B4803
:1015A00061696C3000298146016812D041F0010167
:1015B0000160FFF777FB064605E000BFFFF772FB0F
:1015C000801B022804D8D9F800008007F6D510E067
:1015D00089E021F001010160FFF764FB064604E0A9
:1015E000FFF760FB801B02287DD8D9F80000800738
:1015F000F6D4207840076BD5DFF8D09109F138098F
:10160000D9F80000C0000BD4D9F8001041F0805187
:10161000C9F80010D9F80000012700F080500090B0
:101620006B480168C90512D40168834641F4807192
:101630000160FFF737FB064605E000BFFFF732FB0E
:10164000801B64284FD8DBF80000C005F6D55F4E3C
:10165000A068683601280AD008B1052811D0306882
:1016600020F001003060306820F0040002E03068B3
:1016700040F001003060A068A0B1FFF713FB834683
:101680000CE0306840F004003060F0E7FFF70AFB40
:10169000A0EB0B0141F28830814266D830688007A8
:1016A000F4D50EE0FFF7FEFA834607E0FFF7FAFAFB
:1016B000A0EB0B0141F28830814256D83068800798
:1016C000F4D42FB1D9F8001021F08051C9F80010DE
:1016D000A069C8B3DAF80010C1F3810102294BD028
:1016E0000228286800E040E020F08070286003D0E5
:1016F000FFF7D8FA04463BE0FFF7D4FA064604E0C9
:10170000FFF7D0FA801B02282FD828688001F7D471
:10171000D4E90962D4E907012E4B570894F82C202C
:10172000084303EB074343EA8611084340EA02609B
:1017300040F00050C8F80000286840F08070286031
:10174000FFF7B0FA044606E03EE000BFFFF7AAFA52
:10175000001B022809D828688001F7D534E000BFB3
:10176000FFF7A0FA001B022802D90320BDE8F88F7A
:1017700028688001F4D427E00128D8F8000021D09F
:10178000E16900F480028A421CD1216A00F03F0224
:101790008A4217D1626A47F6C0710140B1EB821FDD
:1017A00010D1A16A4FF0FF3200F4403302EB510137
:1017B000B3EB014F06D194F82C1000F07060B0EB41
:1017C000016F01D00120D1E70020CFE708380240A7
:1017D000007000400000FFFF2DE9F04104000AD036
:1017E000606A002550B12561C4F8145094F85D007A
:1017F000A56248B10DE00120BDE8F0816068B0F558
:10180000827FF3D0E561F1E7204684F85C5000F078
:101810005DF8022084F85D004FF4E0622068016802
:1018200021F040010160E068904201D9002101E00F
:101830004FF48051B0F5706F02D0904200D0A56295
:101840002289A088237C02F4044C277D00F4827056
:1018500003F00206228B40EA0C00237F304394F809
:10186000206007F001073843278D02F4007210430F
:1018700003F038031843236806F08002104307F48E
:10188000005630431860A069042394F8242001F422
:10189000805194F8346003EA1040A78902F01002E6
:1018A000104306F008031843236807F470621043DE
:1018B000084358602068C16921F40062C2610121B7
:1018C000256684F85D10002096E70000F0B587B02B
:1018D000044614216846FEF7D7FC1949206888425F
:1018E0002CD11848016841F480410160006800F47F
:1018F0008040059013481038016841F002010160F2
:10190000016801F002010591016841F001010160E7
:10191000006803260224694600F0010005900025B6
:101920000527B0038DE8F1000748FFF7D3F8200240
:1019300069468DE8F1000548FFF7CCF807B0F0BD27
:1019400000380040403802400004024000000240DD
:10195000401EB0F1807F10B501D3012010BD4FF0C3
:10196000E02460610F21601701F069F90020A06197
:101970000721216110BD7047704700002DE9F0413B
:1019800002680446002540F60F06D0691168936886
:10199000304205D1830678D58B0676D5616EE7E0B7
:1019A0007C4F03F001060F4037437ED0C70709D0B4
:1019B000CF0507D501271762D4F8802042F0010235
:1019C000C4F8802082070AD5DA0708D027680222E7
:1019D0003A62D4F8802042F00402C4F88020420722
:1019E0000AD5DA0708D0236804221A62D4F88020C6
:1019F00042F00202C4F8802002070CD501F0200258
:101A0000324308D0236808221A62D4F8802042F0BA
:101A10000802C4F8802002050BD54A0109D52368C5
:101A20004FF400621A62D4F8802042F02002C4F819
:101A30008020D4F88020002A2FD0800605D5880683
:101A400003D5616E09B1204688472168D4F880002B
:101A50008968490602D410F0280F20D0204600F0F3
:101A60005DFF20688168490614D5816821F0400136
:101A70008160206F70B148490165206FFEF7C3FE99
:101A800000280AD0206F016D01E00EE02046BDE87D
:101A9000F04108472046FFF76FFFBDE8F081204680
:101AA000FFF76AFFC4F88050F7E7266E2023012E67
:101AB00059D1C60657D5CE0655D5102010622068DC
:101AC000816849062ED5226F116849680904090CFE
:101AD000E3D0B4F858608E42DFD9A4F85A10D16927
:101AE000B1F5807F17D0016821F480710160206812
:101AF000816821F0010181602068816821F0400146
:101B00008160E36725662068016821F010010160AB
:101B1000206FFEF72FFEB4F85800B4F85A10401AA0
:101B200081B21CE0B4F85810B4F85A20B4F85A60E6
:101B3000891A89B2002EB0D00029AED0026822F4F2
:101B4000907202602068826822F001028260E3677E
:101B5000256665662068026822F010020260204651
:101B6000FFF709FF99E7060605D50E0603D5A16E16
:101B700000298BD191E740068FD548068DD5116895
:101B8000204621F040011160A367A56600F0D8F857
:101B900083E70000200100040929000810B50400B3
:101BA00002D0A06F10B107E0012010BD002084F822
:101BB0007400204600F026F82420A0672068016801
:101BC00021F001010160204600F0C0FE0128ECD0A8
:101BD000606A10B1204600F013FE2068416821F4CD
:101BE000904141602068816821F02A01816020686D
:101BF000016841F0010101602046BDE8104000F09D
:101C000063BE00002DE9F04387B006461421684604
:101C1000FEF73AFB4349002442480222DFF80881DC
:101C20000323D6F800C0103807254F05C4454FF4EC
:101C3000806935D1D1F800C04CF4003CC1F800C037
:101C4000096801F400310591016841F0010101606A
:101C50000068694600F0010005900C208DE8150031
:101C60003248CDE90335FEF735FF314D3148286064
:101C70002846C5E90174C5E903496C61AC61EC61B2
:101C80002C626C62FEF7A2FE08B1FEF742FC002255
:101C9000356726201146AE63FFF764F826203BE047
:101CA000DFF89480C44539D1D1F800C04CF4802CC1
:101CB000C1F800C0096801F480210591016841F074
:101CC000040101600068694600F0040005904FF4CB
:101CD00040608DE815001948CDE90335FEF7FAFE9E
:101CE000134D14486035603828602846C5E90174F2
:101CF000C5E903496C61AC61EC612C626C62FEF772
:101D000065FE08B1FEF705FC002235672720114665
:101D1000AE63FFF727F82720FFF716F807B0BDE8F6
:101D2000F0830000403802400044004000000240C0
:101D3000D4050020886002400048004000080240AE
:101D40007047FEE71CB501F04DFA00281BD09E201D
:101D50008DF80000E7218DF801101020694600F091
:101D6000BFFC01F03FFA00280DD0002069468DF835
:101D70000000082000F0B4FC002001A901F0BFF928
:101D8000012800D000201CBD7FB515480024134950
:101D90000125009401942A04029403940160C0E98F
:101DA0000124046184610F4980F82040C0E90A14CD
:101DB000C561C46080F830404561FEF781FC08B120
:101DC000FEF7A7FB06486946CDE900450294FEF7F9
:101DD000A3FB002801D0FEF79CFB7FBD0020014043
:101DE000200400200100000F0D4808B5016841F4EF
:101DF0000011016000680022114600F400100090FC
:101E00000C20FEF7AFFF0C20FEF79EFF00221020F3
:101E10001146FEF7A7FFBDE808401020FEF794BF6B
:101E2000303802402DE9F04387B014216846FEF7B0
:101E30002BFA4948016841F080010160016801F016
:101E400080010591016841F004010160016801F021
:101E500004010591016841F001010160016801F090
:101E600001010591016841F002010160016801F082
:101E700002010591016841F008010160006801223A
:101E8000DFF8D88040F2851100F008000590404648
:101E9000FEF703FF002241F21A214046FEF7FDFE45
:101EA0002F4F002260213846FEF7F7FEDFF8B4908E
:101EB000012240F601414846FEF7EFFE0022484667
:101EC0008221FEF7EAFE012441F21F000025694647
:101ED00003268DE871004046FEF7FCFD6020694650
:101EE0008DE8310038460395FEF7F4FD40F60340D7
:101EF00069468DE871004846FEF7ECFD01AA694687
:101F000080270097112082E851004046FEF7E2FD4D
:101F100020026946CDE90004CDE902464046FEF7BD
:101F2000D9FD600269468DE8310040460395FEF711
:101F3000D1FD04206946CDE900050B480294FEF767
:101F4000C9FD00976946CDE9014548460395FEF76E
:101F5000C1FD07B0BDE8F083303802400008024000
:101F60000000024000040240000C024070B511481D
:101F70004FF440730E4D00214FF482746A15C0E98E
:101F8000021301610723C0E90054C0E90512C161D1
:101F9000082401624162C0E90A13C0E90C14FFF78A
:101FA0001BFC002803D0BDE87040FEF7B2BA70BD3C
:101FB00000380040680400200D48002110B50B4C8B
:101FC0000C224FF4E1330460C0E90131C160C0E983
:101FD00004128161C16101624162FFF7DFFD0028E7
:101FE00003D0BDE81040FEF794BA10BD0044004095
:101FF000CC0400200D48002110B50B4C0C224FF4EE
:10200000E1330460C0E90131C160C0E904128161BB
:10201000C16101624162FFF7C1FD002803D0BDE844
:102020001040FEF776BA10BD004800405005002071
:10203000FEE7FEE700B585B014216846FEF724F9F7
:10204000002041F208010290CDE9001002486946E3
:10205000FEF740FD05B000BD000802407047704724
:1020600010B586B014216846FEF70EF90F480168D6
:1020700041F00401016000680024032100F0040025
:10208000059041F20800CDE90004CDE9024108487D
:102090006946FEF71FFD022001218DE81300054867
:1020A0006946FEF717FD06B010BD0000303802404B
:1020B0000000024000080240034A52780AB100F0D2
:1020C00005B800F023B90000940600202DE9F04F78
:1020D0008B468C4908240C6063068A140B600A60E6
:1020E000C5074FF4002801D00C6001E0C1F8008062
:1020F00046080B600A60F70701D00C6001E0C1F8E8
:102100000080850806440B600A60EF0701D00C6070
:1021100001E0C1F800802E44C5080B600A60EF079B
:1021200001D00C6001E0C1F8008035440B600A600A
:10213000ED0701D00C6001E0C1F800800B600A607F
:10214000C1F800800B600A60A2460C600B600A6058
:102150004FF40035DFF8AC910D60A9F11809D9F8FA
:10216000005025F0C005C9F80050C1F80080DFF824
:1021700098E19EF81440271E03D00B60641E0A608D
:10218000FBD1604C0B60083C25680A600B60266838
:10219000C5F3C0050A60C6F3C0060B60D4F800C0E2
:1021A00045EA46050A60CCF3C00C45EA8C05012DD2
:1021B00016D0022D7CD0042D7AD0213703D00B60AD
:1021C0007F1E0A60FBD102220A60D9F8002022F0AB
:1021D000C00242F04002C9F80020C1F800808CE043
:1021E00080072FD50027202638460B604FEA570C72
:1021F0002768761E0A60C7F3C00738444CEAC777E1
:10220000F3D10B6024680A6080EAD400C00700D0D4
:102210000825BBF1000F01D0CBF800709EF8140028
:1022200018B10B60401E0A60FBD102240C60D9F883
:10223000004024F0C00444F04004C9F80040C1F854
:1022400000802AE01FB10B607F1E0A60FBD10224D0
:102250000C60D9F8004024F0C00444F04004C9F8F0
:102260000040C1F800800024DBF80000202657461B
:102270005FEAC07C01D00F6001E0C1F800800B6014
:10228000044440080A60761EF2D1E00701D00F60D6
:1022900001E0C1F800800B600A609EF8080060B39E
:1022A000C1F800800B60401E0A60FBD125E0FFE70B
:1022B0009EF8156036B1840704D521240B60641E96
:1022C0000A60FBD11FB10B607F1E0A60FBD10227A1
:1022D0000F60D9F8007027F0C00747F04007C9F831
:1022E0000070C1F8008046B1800706D4C1F80080B4
:1022F00021200B60401E0A60FBD1C1F800A02846D7
:10230000BDE8F08F18080240940600202DE9F04F38
:10231000F14A002608248E46054614604FF0805C82
:10232000C2F800C0DFF8B483D8F804100846401E95
:10233000FDD14FF4805313600846401EFDD1EF07D6
:102340004FF4002001D0146000E01060C2F800C01B
:102350000F467F1EFDD11360C1460F467F1EFDD183
:1023600077196E085FEAC67801D0146000E010604B
:10237000C2F800C04FEA0108B8F10108FCD11360AF
:102380004FEA0108B8F10108FCD13744AE085FEA12
:10239000C67801D0146000E01060C2F800C0884622
:1023A000B8F10108FCD113604FEA0108B8F1010847
:1023B000FCD13744EE085FEAC67801D0146000E033
:1023C0001060C2F800C08846B8F10108FCD1136063
:1023D0004FEA0108B8F10108FCD13E44F60701D0EC
:1023E000146000E01060C2F800C04F460E46761E32
:1023F000FDD113600E46761EFDD11060C2F800C0FC
:102400000E46761EFDD113600E46761EFDD1A24605
:102410001460C2F800C00C46641EFDD113600C4667
:10242000641EFDD1DFF8B0B24FF40036814616606D
:10243000ABF1180BDBF8000020F0C000CBF8000077
:10244000C2F800903E7D34000BD000BFC2F800C03F
:102450000846401EFDD113600846401EFDD1761E81
:10246000F4D1C2F800C00846401EFDD19A4E083E85
:1024700030681360C0F3C0004FEA0108B8F10108EA
:10248000FCD1C2F800C00F467F1EFDD13768136033
:10249000C7F3C0074FEA0108B8F10108FCD140EAD0
:1024A0004700C2F800C00F467F1EFDD18A4E083E8D
:1024B00036681360C6F3C0070E46761EFDD140EAAB
:1024C000870001281ED002287AD0042878D0213431
:1024D0000BD000BFC2F800C00D466D1EFDD11360C9
:1024E0000D466D1EFDD1641EF4D102231360DBF88E
:1024F000003023F0C00343F04003CBF80030C2F8B3
:102500000090E4E0AD074FD500265FF0200534468B
:10251000C2F800C00F467F1EFDD16F4F083F3F68D5
:102520001360C7F3C0078846B8F10108FCD17608EC
:102530006D1E3C4446EAC776EAD1C2F800C00D469B
:10254000DFF898816D1EFDD1634F1546083F3F6847
:102550001360C7F3C007491EFDD17C40E10700D0DE
:102560000820BEF1000F01D0CEF8006098F814608A
:102570006EB1D8F8041000BFC5F800C00C46641E48
:10258000FDD12B600C46641EFDD1761EF4D10224D1
:102590002C60DBF8004024F0C00444F04004CBF889
:1025A0000040C5F800903EE05CB1C2F800C00D46A6
:1025B0006D1EFDD113600D466D1EFDD1641EF3E747
:1025C00044E002241460DBF8004024F0C00444F02E
:1025D0004004CBF80040C2F800900026DEF800402E
:1025E0002027E50701D0554600E04D461560C2F8AA
:1025F00000C00D466D1EFDD113600D466D1EFDD150
:10260000264464087F1EECD1F40701D0544600E054
:102610004C4614601546C2F800C00C46641EFDD13D
:102620002B60491EFDD12D490D7A85B3C2F800906B
:10263000D1F80410C2F800C00C46641EFDD113602E
:102640000C46641EFDD16D1EF4D140E0234E96F879
:102650001580B8F1000F0ED0AE070CD55FF0210742
:10266000C2F800C00E46761EFDD113600E46761EDF
:10267000FDD17F1EF4D15CB1C2F800C00E46761EBB
:10268000FDD113600E46761EFDD1641EF3E71EE0F9
:1026900002261660DBF800704E4627F0C00747F0B0
:1026A0004007CBF80070C2F80090B8F1000F0ED0D0
:1026B000AC070CD416602125C2F800C00C46641E7D
:1026C000FDD113600C46641EFDD16D1EF4D1C2F81D
:1026D00000A0BDE8F08F000018080240940600201A
:1026E000124A70B50025104E52682C4618E014B9F5
:1026F00011F8015B0824EB0701D0082301E04FF437
:10270000002333604FF08053336013465B1EFDD1CE
:102710004FF48053336013465B1EFDD16D08641E79
:10272000401EE4D270BD000018080240940600204C
:10273000FEF7BEBA30B5B3B0302120A8FDF7A4FD36
:1027400014212CA8FDF7A0FD80216846FDF79CFD13
:102750002548016841F080510160006800F0805018
:1027600031902248016841F4404101600068022430
:102770000423289300F4404031900120D82582059D
:102780000104CDE92642CDE929542B94CDE920015D
:1027900020A8FEF75FFE08B172B6FEE7FEF714FB55
:1027A00008B172B6FEE74FF480524FF4A0510025F5
:1027B000CDE92F122CAA0F20072182E831002CA886
:1027C000FEF760FD08B172B6FEE74FF4C0701095D9
:1027D000119500906846FEF72DFB002801D072B6D7
:1027E000FEE733B030BD00004038024000700040CA
:1027F0000248016841F470010160704788ED00E013
:1028000090F82410C90706D00168836A4A6822F448
:1028100000321A434A6090F82410890706D50168EF
:10282000C36A4A6822F480321A434A6090F824103E
:10283000490706D50168036B4A6822F480221A43CF
:102840004A6090F82410090706D50168436B4A686E
:1028500022F400421A434A6090F82410C90606D5B3
:102860000168836B8A6822F480521A438A6090F868
:102870002410890606D50168C36B8A6822F40052C9
:102880001A438A6090F82410490611D50168036C38
:102890004A6822F480121A434A60016CB1F5801F25
:1028A00006D10168436C4A6822F4C0021A434A60A8
:1028B00090F82410090606D50168826C486820F457
:1028C000002010434860704738B500250446C0F822
:1028D0008050FEF7E7F903462068006800070BD533
:1028E0006FF07E400090002220464FF4001100F06F
:1028F00047F908B1032038BD2020A067E0672566AE
:10290000002084F8745038BD10B5806B0021A0F809
:102910005A10A0F85210FFF72FF810BD01680A688E
:1029200022F490720A6001688A6822F001028A60CB
:10293000016E012904D101680A6822F010020A60C0
:1029400000212022C2670166416670472DE9F041EF
:1029500004460368C2698168D4E90450DFF8F4C111
:102960007D4E29431F68002510437C4A014307EA36
:102970000C070F431F604FF400402168E7684B6865
:1029800023F440533B434B602768A369216AD7F87F
:1029900008C019432CF430630B43BB602168B1427B
:1029A0000AD1116811F0030152D001297CD002290B
:1029B00071D003296ED184E0694B99420AD1116824
:1029C00011F00C0167D0042965D0082975D00C29B5
:1029D00060D176E0634B99420AD1116811F0300161
:1029E00059D010296BD0202967D0302952D168E006
:1029F0005D4B99420AD1116811F0C0014BD04029BA
:102A00005DD0802959D0C02944D15AE0574B994212
:102A10000DD1116811F440713DD0B1F5807F4ED0D9
:102A2000B1F5007F49D0B1F5407F33D149E0504B3B
:102A300099420FD1116811F4406109D0B1F5806F4E
:102A40003DD0B1F5006F38D0B1F5406F22D138E0FC
:102A5000012120E0474B99420DD1116811F44051FA
:102A600019D0B1F5805F2AD0B1F5005F25D0B1F55E
:102A7000405F0FD125E0404B99420BD1116811F412
:102A8000404108D0B1F5804F19D0814215D0B1F541
:102A9000404F16D01021E369384A4FF6EF76834253
:102AA0002FD109294BD201E009E006E0DFE801F06F
:102AB0000B0E11471347474716000221EBE704218D
:102AC000E9E70821E7E7FEF775FC06E0FEF782FC80
:102AD00003E0104602E0FEF78DFC88B36168400019
:102AE00000EB5100B0FBF1F080B2A0F11001B14257
:102AF00025D84FF6F0732168C0F342021840104306
:102B000020E009291BD2DFE801F005080B1A0D1A95
:102B10001A1A1000FEF74EFC06E0FEF75BFC03E01D
:102B2000104602E0FEF766FC50B1616800EB510010
:102B3000B0FBF1F080B2A0F11001B14201D9012542
:102B400001E02168C86000206066A0662846BDE8F4
:102B5000F0810000F369FFEF00100140903802405F
:102B60000044004000480040004C0040005000403D
:102B70000014014000780040007C00400024F40074
:102B80002DE9F0479A4617460E460446089D4FF039
:102B900000094FF0200839E0681C37D0FEF782F8B2
:102BA000A0EB0A00A84222D80DB3206801684907AB
:102BB0002CD5C069C043000528D423684FF40061B8
:102BC000196221680B6823F4D0730B6021688B684D
:102BD00023F001038B60C4F87880C4F87C80C4F8CB
:102BE000808000BF032084F87490BDE8F0872168DE
:102BF0000B6823F4D0730B6021688B6823F001030A
:102C00008B60C4F87880C4F87C80EBE72068C069EA
:102C100036EA000004D00020B842BDD00020E4E72E
:102C20000120F9E70148FEF7A9BE0000CC0400200E
:102C30000148FEF7A3BE000050050020FEE709078B
:102C400000284FEA116104DB00F1E02080F8001455
:102C5000704700F00F0000F1E02080F8141D70476D
:102C600002E008C8121F08C1002AFAD17047704755
:102C7000002001E001C1121F002AFBD170470000B3
:102C8000064A4FF47A611268B2FBF1F14143002029
:102C900001E000BF401C8842FBD370470C000020BD
:102CA0002DE9F041FFF7DCF900F04AF91F48006810
:102CB00000F0E6FC5FF0000448F2093504F1006022
:102CC00000F0CAFC04F58064AC42F7D3012000F0A8
:102CD0003FF800244FF48066154904F10060324645
:102CE00000F032FA04F58064AC42F5D3114F0024B1
:102CF00004F100603246391900F0E4FC04F5806408
:102D0000AC42F5D300240A4904F10060324600F0D9
:102D10001BFA04F58064AC42F5D3012000F018F8EA
:102D2000BDE8F041022000F07BBA00001C0000204A
:102D3000200000202037000830B5002305E0DC002B
:102D40005D1C21FA04F4C454EBB29342F7D330BDB6
:102D50002DE9F0410024054640E0224F4FF4806603
:102D6000002231463846FDF798FF0A20FDF7A0FE05
:102D7000012231463846FDF790FF6420FDF798FEAA
:102D80004FF40068384600224146FDF786FF0A20CE
:102D9000FDF78EFE012241463846FDF77EFF642096
:102DA000FDF786FE002231463846FDF776FF002209
:102DB00041463846FDF771FF0A20FDF779FE0122F2
:102DC00031463846FDF769FF012241463846FDF796
:102DD00064FF6420FDF76CFE641CE4B2AC42BCD31B
:102DE000BDE8F08100040240FDF76AFFFFF7A2FC96
:102DF000FFF718F8FEF7F8FFFFF7FCF8FFF7B6F853
:102E0000FFF7DAF8FEF7C0FF0120FFF7A1FF064C3D
:102E10001420FDF74DFE04212046FDF739FF01285F
:102E2000F6D0FFF73DFFFEE7000C02402DE9F0432E
:102E300093B01E4615460F4644210446DDE91A8923
:102E40006846FDF721FA8DE8600361684FF08070F5
:102E50000991A1680D9121680E91CDE90F70684626
:102E600000F04EFB00282ED0194E0024194D11A958
:102E7000284600F0A3F928B31198800309D5154816
:102E8000002164266F46001D0C4600F0D1FBC8B13E
:102E900003E0641CB442EAD314E03946284600F04B
:102EA0008DF978B10098C00302D4641CB442F4DBFD
:102EB000B44207D007483946083000F07FF908B11E
:102EC000009818B1002013B0BDE8F0830120FAE7A4
:102ED00040420F00F0ED00E030B587B0FDF7AEFAEC
:102EE000154C41F20805256014216846FDF7CCF920
:102EF0001248016841F004010160006801AB002143
:102F000000F004000590009501200B4D032283E89A
:102F10000700183D69462846FDF7DCFD02212846DA
:102F2000009102916946FDF7D5FDA01420600821AB
:102F3000216007B0012030BD18080240303802403F
:102F4000F8B5214800224FF0FF3114460092642565
:102F500001604160FFF7C0FFFEF7F4FE002824D0B7
:102F60001E21002000F010FB00281ED000210820A8
:102F700000F00AFB002818D004204FF0A04100F018
:102F800003FB002811D04FF020466946042000F0D2
:102F9000B6F8002809D0009836EA000002D0641C78
:102FA000AC42F2DBAC4201D10020F8BD074904205D
:102FB00000F0EAFA0028F8D00021082000F0E4FA36
:102FC0000028F2D00120F8BD14000020000F0050AE
:102FD00000B585B014216846FDF756F9002041F28E
:102FE00008010290CDE9001003486946FDF772FD23
:102FF00005B0012000BD000000080240F8B50E46F3
:10300000054662B317499408002000F0C1F9002872
:1030100026D00527294604226846FFF78DFE69461B
:10302000384600F0A5F9012819D10F2700213846AC
:1030300000F09EF9012812D10025641E07E03146F8
:10304000384600F095F9012809D16D1C361DA542BE
:10305000F5D30E20314600F08BF9012800D0002076
:10306000F8BD00005200002338B50C46094905465A
:10307000002000F08DF900280BD06946284600F0AA
:103080000BF8002805D0A807C10E0098C840207092
:10309000012038BD500000231CB50C460146042217
:1030A00001A8FFF749FE052001A900F061F90128F8
:1030B00021D10F20694600F05BF901281BD10E20B9
:1030C000694600F055F90021216001289DF80300B0
:1030D00041EA006121609DF8020041EA0040206061
:1030E0009DF8011040EA012020609DF8001040EAA0
:1030F0000100206001D000201CBD01201CBD38B59E
:1031000000F00C000C46801C694600F031F90021EB
:10311000216001289DF8030041EA006121609DF8CB
:10312000020041EA004121609DF8010041EA0020CF
:1031300020609DF8001040EA0100206001D00020CE
:1031400038BD012038BD00002DE9F04114460F467E
:10315000054608E039462846FFF786FF002829D0B3
:10316000641E6D1C7F1C24B3A807F3D1DFF84880D0
:10317000032C1CD9D8F80000411E2940461AB4423D
:1031800001D224F00306394632462846FFF736FFBF
:1031900000280FD0A41B35443744E9E739462846B8
:1031A000FFF762FF002805D0641E6D1C7F1C002CF9
:1031B000F4D10120BDE8F0811000002070B50C466C
:1031C00007490546002000F0E3F8002806D0214614
:1031D0002846FFF761FF002800D0012070BD0000E5
:1031E000520000231CB5FF2269460020431C0A54EC
:1031F000D8B20828FAD33320FFF772FA01201CBD99
:10320000002807D104480168044A01F4E061114331
:1032100000F00EBA704700000CED00E00400FA0563
:10322000F8B5514F0628514C06464FF0020579D0AB
:10323000FFF752FE30467E1C072874D2DFE800F00C
:103240000417085254748A000120FFF7D9FF7FE069
:103250000120FFF7D5FF1420FFF712FD0020FFF734
:10326000CFFF1420FFF70CFDFFF7B2FE70E0FFF771
:1032700067FE00286DD00FE06D1E6DB2002D71DD70
:103280000120FFF7BDFF1420FFF7FAFC0020FFF735
:10329000B7FF1420FFF7F4FC3146204600F0C8F9D0
:1032A0000028E9D0314D01210C35284600F0C0F945
:1032B00000284ED00120FFF7A3FF1420FFF7E0FC09
:1032C0000020FFF79DFF1420FFF7DAFC6946204637
:1032D000FFF774FF00283CD000988003F6D500214A
:1032E00028461AE0394617E0FEF72CFD002830D0BA
:1032F0001E21002000F048F900282AD000210820D3
:1033000000F042F9002824D004204FF0A04100F042
:103310003BF900281DD03146204600F089F90028ED
:1033200017D015E016E01DE0FFF70AFE002810D0C8
:103330000D492046C91C00F07BF9002809D06946D8
:103340002046FFF73BFF002803D000988003F6D506
:103350000120F8BD3946204600F06AF90028F8D06F
:10336000FFF736FE0020F8BD00005FA0F0ED00E0A2
:1033700070B500240D46064629463046FEF79CFEF1
:10338000022803D1641CE4B20A2CF5D370BD0000FE
:1033900038B50D46044600F07F4100F0F0000143CF
:1033A000082000F0F1F8002805D034B90E48416833
:1033B000A94201D1012038BD456004F00C0404226B
:1033C0002946641C6846FFF7B7FC69462046FFF7AC
:1033D000CFFF012805D10E200021FFF7C9FF0128EA
:1033E000E9D0002038BD000014000020F8B50D46DB
:1033F00004462AB3134996080020FFF7C9FF0028A6
:103400001FD00527214604226846FFF795FC694630
:103410003846FFF7ADFF012812D10D27002407E041
:1034200029463846FFF7A4FF012809D1641C2D1D49
:10343000B442F5D30E200021FFF79AFF012800D0F7
:103440000020F8BD5200002370B50C46084905461F
:103450000020FFF79DFF002809D0A807C00E04FA3E
:1034600000F1284600F02CF8002800D0012070BDA3
:103470005000002373B500240646104864250199C6
:1034800000F0D6F8002813D00C4846F48031001F15
:1034900000F0CEF800280BD0084E083E01A93046B7
:1034A000FFF78CFE002803D00198C00301D501204E
:1034B0007CBD641CAC42F1DB00207CBDF8ED00E07B
:1034C00038B50C46014604226846FFF735FC052056
:1034D0006946FFF74DFF012810D1042221466846B6
:1034E000FFF72AFC0D206946FFF742FF012805D1AE
:1034F0000E200021FFF73CFF012800D0002038BD3E
:1035000038B500210546082000F03EF8002834D0E8
:103510005FF00004204655F82410FFF7ABFF0028A9
:103520002BD0641C042CF5D3696A0920FFF7A2FF95
:10353000002822D05FF00D04204655F82410FFF734
:1035400099FF002819D0641C102CF5D3296C102089
:10355000FFF790FF002810D009490A4800F068F8EA
:1035600000280AD004206946FFF7C9FD002804D0CE
:10357000009810F0A00F01D0002038BD012038BD08
:1035800001005FA0F0ED00E038B5082806D10A4A36
:1035900013688B4201D1012038BD116000F00C048A
:1035A00004226846FFF7C8FB69462046FFF7E0FEA5
:1035B0000128F1D0002038BD140000202DE9F04191
:1035C00014460E46054608E031782846FFF73CFFD2
:1035D000002829D0641E6D1C761C24B3A807F3D1E3
:1035E000DFF84880032C1CD9D8F80000411E294080
:1035F000471ABC4201D224F0030731463A46284616
:10360000FFF7F4FE00280FD0E41B3D443E44E9E7F9
:1036100031782846FFF718FF002805D0641E6D1C7E
:10362000761C002CF4D10120BDE8F08110000020B0
:1036300070B50C46074905460020FFF7A9FE002893
:1036400006D021462846FFF73BFF002800D0012086
:1036500070BD0000520000231CB50021024607483F
:1036600000230091019114300449C968FFF7DEFB83
:1036700008B100201CBD09201CBD0000B4BB00081F
:103680007CB505460120FFF7CBFD98B10C4CE16AF3
:10369000D4E90902FFF792FF70B100200090019079
:1036A0000346216804F114002A46FFF7BFFB28B146
:1036B00000207CBD03207CBD04207CBD06207CBD99
:1036C000B4BB00082DE9FC41144C16468846074659
:1036D0001AE0206BB04201D2054600E03546206A70
:1036E0002A464146FFF76AFF98B10021206A3A4610
:1036F000CDE900010948236B21691430FFF796FBDF
:1037000048B1761B2F44A844002EE2D10020BDE82A
:10371000FC810520FBE70B20F9E70000B4BB0008A3
:10372000F007002031020008531900084B19000867
:103730004F19000809070008C11D0008000000001B
:103740000000000000000000000000005719000801
:103750000D0700080000000055190008591900085D
:103760004B0200084B0200084B0200084B02000805
:103770004B0200084B0200084B0200084B020008F5
:103780004B0200084B0200084B0200084B020008E5
:103790004B0200084B0200084B0200084B020008D5
:1037A0004B0200084B0200084B0200084B020008C5
:1037B0004B0200084B0200084B0200084B020008B5
:1037C0004B0200084B0200084B0200084B020008A5
:1037D0004B0200084B0200084B0200084B02000895
:1037E0004B0200084B0200084B0200084B02000885
:1037F0004B020008711D00084B0200084B02000834
:103800004B0200084B0200084B0200084B02000864
:103810004B0200084B0200084B0200084B02000854
:103820004B0200084B0200084B0200084B02000844
:103830004B0200084B0200084B0200084B02000834
:103840004B0200084B0200084B0200084B02000824
:103850004B0200084B0200084B0200084B02000814
:103860004B0200084B0200084B0200084B02000804
:103870004B0200084B0200084B0200084B020008F4
:103880004B0200084B0200084B0200084B020008E4
:103890004B0200084B0200084B0200080000000029
:1038A0004B0200084B02000800F002F800F041F85B
:1038B0000AA090E8000C82448344AAF10107DA458B
:1038C00001D100F036F8AFF2090EBAE80F0013F09C
:1038D000010F18BFFB1A43F00103184708810000CD
:1038E00028810000103A24BF78C878C1FAD852075E
:1038F00024BF30C830C144BF04680C60704700006A
:103900000023002400250026103A28BF78C1FBD8E8
:10391000520728BF30C148BF0B607047782900F0BC
:10392000F780002070471FB505F06EF81FBD10B579
:1039300010BD00F047FA1146FFF7F5FF04F0DCFD7B
:1039400000F065FA03B4FFF7F2FF03BC01F0EDFDF0
:103950000948804709480047FEE7FEE7FEE7FEE723
:10396000FEE7FEE7FEE7FEE7FEE7FEE7044805495F
:10397000054A064B704700006119000889010008DC
:10398000F0010020F0070020F0030020F0030020E9
:10399000704753EA020C00F069802DE9F04B4FF0BC
:1039A0000006002B1FBFB3FA83F503FA05F424FACF
:1039B00005F65E4012BF1643B2FA82F502FA05F42C
:1039C000C5F120051EBF22FA05FC44EA0C0420358F
:1039D00056EA044C4FEA144418BF641C4FF0000828
:1039E0004FF00009904271EB030C39D3002919BF45
:1039F000B1FA81F701FA07F6B0FA80F700FA07F694
:103A0000C7F120071EBF20FA07FC46EA0C06203744
:103A1000B6FBF4FCA7EB0507103F07F01F0BCBF13B
:103A200020060CFA0BFB2CFA06F644BFB346002620
:103A3000202FA4BF5E464FF0000B5BEA060C08BFC8
:103A40004FF0010B19EB0B09ABFB027C48EB0608AE
:103A5000C01B06FB02CC0BFB03CC71EB0C01C1E7D6
:103A60000B46024641464846BDE8F08B13B54FF081
:103A700000004FF00001AFF30080BDE81C4070472C
:103A80000FB4044910B503AA029800F085F910BCE0
:103A90005DF814FB080000200FB41CB5074B06AA04
:103AA0007B4469460090059800F05DF90020694666
:103AB00000F06CF91CBC5DF814FB0000E90200008A
:103AC00070B5044685690068C10601D5302600E05E
:103AD0002026C00707D070BDD4E9012130469047A9
:103AE000206A401C20626D1EF6D570BD70B504467C
:103AF00085690078C00707D170BDD4E90121202075
:103B00009047206A401C20626D1EF6D570BD0000F3
:103B100070B504460D4621461068AFF30080218839
:103B2000090502D50F4A7A4402E00E4A7A440E3261
:103B3000002104F1240305E000F00F060009965D62
:103B40005E54491C0028F7D120780023000704D5D3
:103B5000702D02D009B1022311322046BDE8704019
:103B600000F0A2B8807E00002DE9F05F894604468F
:103B70004FF0000ADFF824B1FB44C0F820A0204633
:103B8000E168884700287DD0252806D0D4E90121A6
:103B90009047206A401C2062F1E700255F462046DE
:103BA000E16888472028064607DB312E05D2B81980
:103BB00010F8200C08B10543F1E7A80701D525F05E
:103BC0000405C4F81CA00027C4F818A02A2E09D0A8
:103BD000304601F0A3FC38B304EB8708303EC8F848
:103BE000186019E059F8041B204604EB8702916124
:103BF000E1688847012F064618D1E069002820DADD
:103C000025F020051DE0D8F8180000EB800006EB39
:103C100040003038C8F818002046E168884706465A
:103C200001F07CFC0028EED1012F0AD02E2E08D105
:103C30002046E16888477F1C0646022F45F0200594
:103C4000C4DBA069002803DA404245F00105A06109
:103C5000E80701D025F01005A6B1A6F1410019280A
:103C600002D8203645F400654A4631462046256094
:103C70004D46FFF753FE60B1012807D0ED1D25F03A
:103C8000070000E007E000F1080978E705F1040902
:103C900075E730467AE7206ABDE8F09F567E00005F
:103CA00070477047704770472DE9F0470D469946B9
:103CB0009246044600F124080168880604D5E069AC
:103CC00021F01001216000E00120A84201DD471B26
:103CD00000E00027A1697A1902EB0900081AA06127
:103CE0002078C00602D42046FFF7EAFE002608E04E
:103CF000D4E901211AF806009047206A401C761C7E
:103D000020624E45F4DB2078C0060AD52046FFF736
:103D1000D7FE06E0D4E9012130209047206A401CFC
:103D20002062381EA7F10107F4DC07E0D4E9012185
:103D300018F805009047206A401C2062281EA5F153
:103D40000105F3DC2046FFF7D1FE2078000602D5FE
:103D50000220BDE8F0870120FBE7000001694A1C52
:103D600002610878704700B58FB0CDE901310021BC
:103D7000059105497944CDE9031011466846FFF7DE
:103D8000F3FE0FB000BD0000E5FFFFFF0A6802F878
:103D9000010B0A6070470000074B70B50D467B446D
:103DA000FFF7E1FF0446284600F008F810B14FF095
:103DB000FF3070BD204670BD1F180000007B00F072
:103DC00080007047754600F02BF8AE460500694646
:103DD000534620F00700854618B020B5FFF7C6FD12
:103DE000BDE820404FF000064FF000074FF00008FC
:103DF0004FF0000B21F00701AC46ACE8C009ACE87D
:103E0000C009ACE8C009ACE8C0098D46704710B5E0
:103E10000446AFF300802046BDE81040FFF792BD96
:103E2000004870479001002000BFFEE77047000087
:103E300070B504461D460023B5F5804F13D154F8E4
:103E400022300C480340D1E9000640EA06108E6893
:103E500040EA06208E8940EA06408E6930430343DB
:103E600044F8223003E06FF0704044F82200002054
:103E700070BD00000000F0CF10B5034600220868B6
:103E800053F8202012480240D1E901042043CC68B5
:103E900020430C6920434C6920438C692043CC6942
:103EA00020430C6A20434C6A20438C6A2043CC6A2E
:103EB0002043CC6B20430C6B2043024388680828C6
:103EC00001D142F04002086843F82020002010BDD4
:103ED0008000F0FF30B503460024501C53F820400A
:103EE00004F04044D1E9000540EA05108D6840EA3D
:103EF00005208D8940EA0545088A401E45EA00559F
:103F0000087D801E45EA00608D6928430443501CEB
:103F100043F82040002030BD70B50446A56D00F088
:103F20007DF9064694F83500022808D080206065A7
:103F300000BF002084F8340000BF012070BD20685D
:103F4000006820F01600216808602068406920F0B1
:103F5000800021684861206C08B9A06C28B12068F5
:103F6000006820F00800216808602068006820F0E0
:103F70000100216808600FE000F050F9801B05285F
:103F80000AD92020606500BF002084F8340000BFFB
:103F9000032084F83500D1E72068006800F00100B4
:103FA0000028E9D194F85C103F208840A86000BF49
:103FB000002084F8340000BF012084F83500002080
:103FC000BCE7014691F83500022803D080204865FF
:103FD00001207047052081F835000868006820F04E
:103FE00001000A6810600020F3E70000F8B50246FF
:103FF0000B460025002400200021DEE0012606FA01
:1040000001F51E6806EA0504AC4275D11E7906F07A
:104010000306012E04D01E7906F00306022E13D1EA
:1040200090684F000326BE40B0434F00DE68BE409C
:1040300030439060506801268E40B0431E79C6F32D
:1040400000168E40304350601E7906F00306032EA2
:1040500009D0D0684F000326BE40B0434F009E6891
:10406000BE403043D0601E7906F00306022E13D105
:10407000CF0802F1200656F827004E07F70E0F264C
:10408000BE40B0434F07FF0E1E69BE403043CF080D
:1040900002F1200646F8270010684F000326BE40B4
:1040A000B0431E7906F003064F00BE403043106057
:1040B0005E6806F08056B6F1805F7DD100BF0026B5
:1040C0000096404E366846F480463E4F3E603E467F
:1040D000366806F48046009600BF00BF3A4E8F084F
:1040E00056F827008E07370F0F26BE40B043374ED5
:1040F000B24202D1002624E05EE0354EB24201D148
:1041000001261EE0334EB24201D1022619E0324EA2
:10411000B24201D1032614E0304EB24201D104264E
:104120000FE02F4EB24201D105260AE02D4EB242D9
:1041300001D1062605E02C4EB24201D1072600E04F
:1041400008268F073F0FBE4030431F4E8F0846F8AA
:104150002700264E3068A0435E6806F48036B6F528
:10416000803F00D12043214E3060361D3068A0438F
:104170005E6806F40036B6F5003F00D120431B4EC2
:10418000361D3060361D3068A0435E6806F4801628
:10419000B6F5801F00D12043144E08363060361D1E
:1041A0003068A0435E6806F40016B6F5001F00D123
:1041B00020430E4E0C363060491C1029FFF41EAF10
:1041C000F8BD0000443802400838014000000240B9
:1041D0000004024000080240000C024000100240AF
:1041E0000014024000180240001C0240003C014044
:1041F00010B5426921EA020302EA010443EA0443DA
:10420000836110BD0AB1816101E00B0483617047D5
:1042100001480068000C7047002004E00148006875
:104220007047000010000020034800680349097827
:104230000844014908607047100000201800002061
:1042400010B50A48006840F4007008490860084644
:10425000006840F480600860032000F07FF80F20C1
:1042600000F006F800F02AF8002010BD003C0240E3
:1042700070B504460E4800784FF47A71B1FBF0F047
:104280000C490968B1FBF0F5284600F09BFC08B129
:10429000012070BD102C07D200222146501E00F0D4
:1042A0001EF80548046001E00120F2E70020F0E775
:1042B0001800002000000020140000207047014674
:1042C0000846002809DB00F01F0301229A40430939
:1042D0009B0003F1E023C3F8002100BF70472DE9E4
:1042E000F05F80460D461646002701F0FBF80746B2
:1042F00039462A46334601F00700C0F1070ABAF1F1
:10430000040F02D94FF0040A01E0C0F1070AD146B8
:1043100000F1040ABAF1070F02D24FF0000A01E0DF
:10432000A0F1030AD4464FF0010A0AFA09FAAAF1E9
:10433000010A0AEA020A0AFA0CFA4FF0010B0BFA18
:104340000CFBABF1010B0BEA030B4AEA0B04214611
:10435000404601F0CFF8BDE8F09F000000BF00F03C
:104360000702064B19684FF6FF031940044B0B4335
:1043700043EA0221014B196000BF70470CED00E0D9
:104380000000FA0570B504460D460CB9012070BD59
:104390005848006800F00700A84209D255490D703E
:1043A0000846006800F00700A84201D00120EEE7AF
:1043B000207800F0020002281DD1207800F00400CF
:1043C000042805D14C48006840F4E0504A49086090
:1043D000207800F00800082805D14748006840F41C
:1043E0006040454908604448006820F0F000A1683A
:1043F000084341490860207800F00100A8B36068D4
:10440000012807D13C4808380068C0F34040B8B9DB
:104410000120BCE76068022802D06068032807D149
:10442000354808380068C0F3406048B90120AEE75D
:10443000314808380068C0F3400008B90120A6E7F9
:104440002D48006820F00300616808432A4908608D
:10445000FFF7E4FE064609E0FFF7E0FE801B41F2AD
:104460008831884202D9032091E707E0224800689A
:1044700000F00C006168B0EB810FEDD11D480068C1
:1044800000F00700A84209D91A490D7008460068D3
:1044900000F00700A84201D0012078E7207800F062
:1044A0000400042807D11448006820F4E050E168B3
:1044B000084311490860207800F00800082808D156
:1044C0000D48006820F46040216940EAC1000A49B3
:1044D000086000F03FF808490968C1F30311074A72
:1044E000515CC8400649086006480068FFF7C0FEF6
:1044F00000204CE7003C024008380240F25200081D
:1045000000000020140000200148006870470000EF
:104510000000002000B5FFF7F7FF04490968C1F368
:104520008221034A515CC84000BD000008380240A7
:104530000253000800B5FFF7E7FF04490968C1F31B
:104540004231034A515CC84000BD000008380240B7
:10455000025300082DE9F047002400250026A1465B
:104560002548006800F00C0020B1042805D0082878
:104570003AD105E0DFF8849039E0DFF8849036E046
:104580001D48001F006800F03F041B48001F006822
:1045900000F4800078B11A481749091F0968C1F36F
:1045A0008811A0FB01700146224600233846FFF720
:1045B000F0F905460EE011480F49091F0968C1F3DB
:1045C0008811A0FB01700146224600233846FFF700
:1045D000E0F905460848001F0068C0F30140401C90
:1045E0004600B5FBF6F902E0DFF8109000BF00BF0F
:1045F0004846BDE8F0870000083802400024F40077
:1046000000127A00F8B504460CB90120F8BD2078F4
:1046100000F00100002874D0F948006800F00C0098
:1046200004280DD0F648006800F00C00082813D1CB
:10463000F348001F006800F48000B0F5800F0BD134
:10464000EF4808380068C0F34040002859D060683F
:10465000002856D10120D9E700BF6068B0F5803F3F
:1046600008D1E7480838006840F48030E449083948
:1046700008601EE06068B0F5A02F0DD1E048083852
:10468000006840F48020DE49083908600846006868
:1046900040F4803008600CE0D9480838006820F405
:1046A0008030D749083908600846006820F4802027
:1046B000086000BF606890B1FFF7B0FD054606E0F6
:1046C000FFF7ACFD401B642801D903209EE7CC48CE
:1046D00008380068C0F340400028F1D011E0FFF72F
:1046E0009DFD054606E0FFF799FD401B642801D9B2
:1046F00003208BE7C24808380068C0F34040002818
:10470000F1D1207800F0020002285FD1BC48006897
:1047100000F00C0058B1BA48006800F00C000828FE
:104720001CD1B748001F006800F48000B0B9B4483D
:1047300008380068C0F3400020B1E068012801D0CB
:10474000012063E7AE480838006820F0F8002169CE
:1047500040EAC100AA490839086037E0E06800B3C0
:104760000120A8490860FFF759FD054606E0FFF75C
:1047700055FD401B022801D9032047E7A04808380F
:104780000068C0F340000028F1D09D480838006858
:1047900020F0F800216940EAC10099490839086011
:1047A00014E0002097490860FFF738FD054606E051
:1047B000FFF734FD401B022801D9032026E790486B
:1047C00008380068C0F340000028F1D1207800F0DC
:1047D000080008282CD16069A8B101208A49086026
:1047E000FFF71CFD054606E0FFF718FD401B0228F9
:1047F00001D903200AE782486C300068C0F340000A
:104800000028F1D014E000207F490860FFF706FD82
:10481000054606E0FFF702FD401B022801D90320F0
:10482000F4E677486C300068C0F340000028F1D10E
:10483000207800F00400042870D100277048383038
:10484000006800F0805090B900BF002000906C48D4
:104850003830006840F080506949383108600846B7
:10486000006800F08050009000BF00BF012767483B
:10487000006800F48070B0B96448006840F480704B
:1048800062490860FFF7CAFC054606E0FFF7C6FC70
:10489000401B022801D90320B8E65C48006800F4F8
:1048A00080700028F2D000BFA068012808D15448C9
:1048B0006830006840F001005149683108601DE02F
:1048C000A06805280DD14E486830006840F004000B
:1048D0004B49683108600846006840F001000860F4
:1048E0000CE047486830006820F001004449683116
:1048F00008600846006820F00400086000BFA06857
:10490000A8B1FFF78BFC054609E0FFF787FC401BC9
:1049100041F28831884202D9032077E626E0384800
:1049200068300068C0F340000028EED013E0FFF7C5
:1049300075FC054608E0FFF771FC401B41F2883129
:10494000884201D9032061E62D4868300068C0F331
:1049500040000028EFD1012F07D1294838300068E6
:1049600020F0805026493831086000BFA069002837
:1049700045D02348006800F00C0008285DD0A069ED
:10498000022845D100201F490866FFF747FC05466D
:1049900006E0FFF743FC401B022801D9032035E65F
:1049A000174808380068C0F340600028F1D1D4E906
:1049B00007010843616A40EA81110122A06AC2EB43
:1049C000500041EA00412C20005D41EA00600C49A2
:1049D000091F086001200B490866FFF71FFC054608
:1049E00006E0FFF71BFC401B022801D903200DE65F
:1049F000034808380068C0F340600028F1D049E05F
:104A00000838024000004742800E474200700040D4
:104A1000002021490866FFF701FC054606E0FFF784
:104A2000FDFB401B022801D90320EFE51B4800686D
:104A3000C0F340600028F2D12CE0A069012800D129
:104A4000E4E51648001D0668A069012820D006F498
:104A50008001E06981421BD106F03F01206A81425A
:104A600016D147F6C0703040616AB0EB811F0FD19C
:104A700006F440310122A06AC2EB5000B1EB004FB6
:104A800006D106F070612C20005DB1EB006F01D003
:104A90000120BBE50020B9E5000047420038024094
:104AA00070B504460E4615460CB9012070BD94F849
:104AB000490028B9002084F84800204600F01CF87E
:104AC00004F108012068FFF7D7F93146A268206891
:104AD000FFF700FA2946236BD4E90102FFF7A8F992
:104AE000A168206850F8210040F00100A268216808
:104AF00041F822000020D9E710B586B0044600BF77
:104B0000002000902248006840F001002049086021
:104B10000846006800F00100009000BF00BF00BF21
:104B2000002000901A480838006840F00800184932
:104B3000083908600846006800F00800009000BFCF
:104B400000BF00BF002000900846006840F0100041
:104B500008600846006800F01000009000BF00BF29
:104B60004CF2037001900220029001200390022079
:104B700004900C20059001A90648FFF737FA4FF67C
:104B80008070019001A90448FFF730FA06B010BD0B
:104B900038380240000C024000100240042808D1BE
:104BA0004FF0E021096941F004014FF0E02211616A
:104BB00007E04FF0E021096921F004014FF0E02205
:104BC0001161704770B504462546681EB0F1807FBC
:104BD00001D301200FE0681E4FF0E02148610F2152
:104BE0004FF0FF3000F086FC00204FF0E02188619C
:104BF00007200861002070BD704770470146002201
:104C0000002391F83D2091F83E3042EA03007047BE
:104C10002DE9F84F0446206805682068C6682068BA
:104C200047694FF00009CA4605F00F09B9F1000FB6
:104C30000AD105F0200038B106F0200020B120464E
:104C400000F05DFABDE8F88FB9F1000F72D007F0FF
:104C5000010018B906F4907000286BD005F001002F
:104C600030B106F4807018B1206C40F0010020646F
:104C700005F0040030B107F0010018B1206C40F0DD
:104C80000200206405F0020030B107F0010018B105
:104C9000206C40F00400206405F0080048B106F0E4
:104CA000200010B907F0010018B1206C40F0080096
:104CB0002064206C70B305F0200028B106F02000BD
:104CC00010B1204600F01BFA20684069C0F3801A3A
:104CD000206C00F0080010B9BAF1000F23D0204674
:104CE00000F0E2F92068406900F04000402816D149
:104CF0002068406920F0400021684861A06B50B1F5
:104D00005648A16B0865A06BFFF75BF910B1A06B6B
:104D1000016D88470CE02046FFF76FFF08E0204652
:104D2000FFF76BFF04E02046FFF767FF00202064D9
:104D300088E7FFE7206B012879D105F010000028F3
:104D400075D006F01000002871D000BF0020009040
:104D500020680068009020684068009000BF00BF95
:104D60002068406900F04000402839D1A06B0068FD
:104D700040681FFA80F8B8F1000F30D0A08D404590
:104D80002DDDA4F82E80A06BC069B0F5807F1FD008
:104D90002068C06820F480702168C860206840697D
:104DA00020F00100216848612068406920F040003F
:104DB00021684861202084F83E000020206320689C
:104DC000C06820F010002168C860A06BFFF7A4F84D
:104DD000A08DE28D801A81B22046FFF70DFF31E7EA
:104DE000A08DE18D401A1FFA80F8E08DE8B1B8F18E
:104DF000000F1AD02068C06820F490702168C86045
:104E00002068406920F0010021684861202084F872
:104E10003E00002020632068C06820F01000216858
:104E2000C86041462046FFF7E7FE0BE7FFE705F0C5
:104E3000800030B106F0800018B1204600F0F7FA8B
:104E400000E705F0400030B106F0400018B1204600
:104E500000F045F9F6E600BFF4E600007519000819
:104E600010B504460CB9012010BDA06900B100E0E6
:104E700000BF94F83D0028B9002084F83C0020468B
:104E800000F028F8242084F83D002068C06820F451
:104E900000502168C860204600F090F92068006941
:104EA00020F49040216808612068406920F02A00C1
:104EB000216848612068C06840F400502168C860DB
:104EC00000202064202084F83D0084F83E0000206B
:104ED000CAE7000010B586B004462D492068884214
:104EE00054D100BF00BF002000902A48006840F065
:104EF0001000284908600846006800F01000009083
:104F000000BF00BF00BF00BF00BF002000902148CD
:104F10001438006840F002001E4914390860084641
:104F2000006800F00200009000BF00BF00BF00BF9B
:104F300000BF002000900846006840F002000860B2
:104F40000846006800F00200009000BF00BF00BFEC
:104F50004020019002200290012003900220049042
:104F60000720059001A90C48FFF740F88020019028
:104F70000720059001A90848FFF738F82520FFF71A
:104F80009EF9032211462520FFF7A9F906B010BDAE
:104F900000100140443802400004024070B504464D
:104FA0000D46164694F83E00202816D105B10EB9DC
:104FB000012070BD00BF94F83C00012801D10220FF
:104FC000F7E7012084F83C0000BF00202063324650
:104FD0002946204600F008FAEBE70220E9E7000046
:104FE0001D4A0168914236D11C49098801F40041EB
:104FF00089BB1A49098801F4804171B118490978BF
:105000000A2903D00021154A118024E01349098898
:1050100041F40041114A11801DE0114909780D2920
:1050200006D10E49098841F480410C4A118012E0F2
:105030000B490978094A1288C2F30D02094B9954A9
:1050400006490988491C054A118011460988C72963
:1050500001DD002111807047001001400C0000208C
:105060000E00002024000020704700BFFEE700BFB4
:10507000FEE770477047704710B5FFF7D5F810BDD1
:105080000348006840F47000014908607047000060
:1050900088ED00E070B50546AC6B0020E085E0844B
:1050A0002046FFF7AAFD70BD0168C96821F4907120
:1050B0000268D1600168496921F00101026851610B
:1050C000016B012905D10168C96821F0100102684E
:1050D000D160202180F83E1000210163704710B597
:1050E00004462068C06820F040002168C860202085
:1050F00084F83D002046FFF7B7FF002010BD70B5D3
:10510000044694F83E00222856D1A068B0F5805F8E
:105110000CD1206950B90025A66A20684068C0F308
:1051200008003080A06A801CA06215E0A56A0026F5
:10513000A068B0F5805F03D0A06828B9206918B9CD
:1051400020684068287004E02068406800F07F0014
:105150002870A06A401CA062E08D401E80B2E085ED
:1051600040BB2068C06820F020002168C86020682B
:10517000C06820F480702168C8602068406920F011
:10518000010021684861202084F83E00206B01283E
:105190000AD12068C06820F010002168C860A18D85
:1051A0002046FFF729FD02E02046FFF719FF002007
:1051B000206370BD0020FCE70220FAE72DE9F84FDC
:1051C00004462068006920F44050E16808432168E3
:1051D00008612169A068084361690843E1690843DF
:1051E00000902068C06849F20C6188430099084328
:1051F0002168C8602068406920F44070A1690843B4
:105200002168486176492068884203D07549206842
:10521000884203D1FFF78EF9814602E0FFF77AF961
:105220008146E069B0F5004F6CD102206168A0FBB7
:10523000015003461920A9FB007001462A46384652
:10524000FEF7A7FB6421B0FBF1F04FEA001A022041
:105250006168A0FB01510B461920A9FB00712A4689
:105260003846FEF796FB834602206168A0FB01509A
:1052700003461920A9FB00712A463846FEF789FB30
:105280006421B0FBF1F000EBC00101EB0010ABEBCF
:105290008000322101EBC0006421B0FBF1F000F08E
:1052A000F8000AEB400A02206168A0FB01500346A7
:1052B0001920A9FB007001462A463846FEF769FB13
:1052C000834602206168A0FB015003461920A9FB18
:1052D00000712A463846FEF75CFB6421B0FBF1F012
:1052E00000EBC00101EB0010ABEB8000322101EBC1
:1052F000C0006421B0FBF1F000F0070050442168C9
:1053000088606AE004206168A0FB01500346192010
:10531000A9FB007001462A463846FEF73AFB824652
:1053200004206168A0FB015003461920A9FB00700E
:1053300001462A463846FEF72CFB6421B0FBF1F00B
:1053400000EBC00101EB0010AAEB8000322101EB61
:1053500000106421B0FBF1F000F0F00A0420616855
:10536000A0FB017003461920A9FB00513A462846CC
:10537000FEF70FFB6421B0FBF1F00AEB001A0420EA
:105380006168A0FB01510B461920A9FB00712A4658
:105390003846FEF7FEFA834604206168A0FB015000
:1053A00003461920A9FB007001462A463846FEF73D
:1053B000F0FA6421B0FBF1F000EBC00101EB00104A
:1053C000ABEB8000322101EB00106421B0FBF1F067
:1053D00000F00F00504421688860BDE8F88F00009D
:1053E000001001400014014010B5034699629A85EF
:1053F000DA8500201864222083F83E0000BF0020D8
:1054000083F83C0000BF1868C06840F480701C68D6
:10541000E0601868406940F001001C68606118682D
:10542000C06840F020001C68E060002010BD01460C
:1054300091F83D00212828D18868B0F5805F0BD114
:10544000086948B90A6A1088C0F308000B685860F8
:10545000086A801C086205E00B6A581C086218780C
:105460000B685860C88C401E80B2C88458B9086860
:10547000C06820F080000B68D8600868C06840F001
:1054800040000B68D860002070470220FCE7000055
:1054900070B500240F4D1048FFF7BAFB00BF03E0C2
:1054A000641CAC4200D904E00B48FFF7A7FB20289E
:1054B000F6D100BF002403E0641CAC4200D906E032
:1054C000012206490448FFF769FD0028F4D100BF16
:1054D00070BD0000FFFF0100EC0000200E00002066
:1054E00000BFFEE702480068C0F3022070470000DA
:1054F0000CED00E010B5002804DB0A07130E054A86
:10550000135406E00A07140E034A00F00F031B1F92
:10551000D45410BD00E400E018ED00E030380A2853
:1055200001D2012070470020704700BF7047000083
:1055300010B504460420FFF731FB0148046010BD9C
:105540000400002070B504461E2094FBF0F594FB87
:10555000F0F100FB114604E047F2305000F00CF887
:105560006D1E002DF8D12EB14FF47A7106FB01F0BB
:1055700000F002F870BD000070B5034600224FF045
:10558000E02675690D4E366803FB06F44FF0E02601
:10559000B16910E04FF0E026B06988420BD0884234
:1055A00002D20E1A324402E02E1A0E443244014650
:1055B000A24200D300E0EDE700BF70BD0400002070
:1055C00000BF054A126802F04002002AF9D0C2B2B8
:1055D000014B5A60704700000010014070B504464E
:1055E000002609480588408845430021084602F006
:1055F00079FD02F025FF00BF02E004480480761C1C
:10560000AE42FAD370BD0000800100200008006C9B
:1056100010B5044649488471002C45D1F020474913
:1056200008804FF4A07048800846808845F21051E9
:10563000884210D14FF43050404908814FF428502F
:1056400048814FF42C5088814FF4F07008804FF45B
:10565000487048801AE03948808841F663118842D2
:105660000DD12C20354908812B2048812A208881A2
:105670004FF4F07008804FF44870488006E02C200A
:105680002E4908812A2048812B2088812B48808838
:1056900045F2103188424CD14FF4A0702749088060
:1056A0004FF4F070488044E04FF4A0702349088024
:1056B000F02048800846808845F21051884210D179
:1056C0004FF430501D4908814FF4285048814FF461
:1056D0002C5088814FF4487008804FF4F070488057
:1056E0001AE01648808841F6631188420DD12C20BB
:1056F000124908812A2048812B2088814FF4487064
:1057000008804FF4F070488006E02C200B49088197
:105710002A2048812B2088810848808845F2103152
:10572000884206D14FF4F070044908804FF4A0700D
:105730004880002002F0BEFB10BD00008001002068
:1057400070B505460E4614463146284602F0CAFC9E
:1057500002F076FE01490C8070BD00000008006C6C
:1057600010B5CF2002F060FE002002F051FEC120F3
:1057700002F04EFE302002F04BFEED2002F054FE0F
:10578000642002F045FE032002F042FE122002F0E7
:105790003FFE812002F03CFEE82002F045FE85201D
:1057A00002F036FE102002F033FE7A2002F030FEC6
:1057B000CB2002F039FE392002F02AFE2C2002F024
:1057C00027FE002002F024FE342002F021FE0220F9
:1057D00002F01EFEF72002F027FE202002F018FE45
:1057E000EA2002F021FE002002F012FE002002F06A
:1057F0000FFEC02002F018FE1B2002F009FEC1209F
:1058000002F012FE012002F003FEC52002F00CFEA1
:10581000302002F0FDFD302002F0FAFDC72002F03A
:1058200003FEB72002F0F4FD362002F0FDFD482013
:1058300002F0EEFD3A2002F0F7FD552002F0E8FDFF
:10584000B12002F0F1FD002002F0E2FD1A2002F08A
:10585000DFFDB62002F0E8FD0A2002F0D9FDA2200B
:1058600002F0D6FDF22002F0DFFD002002F0D0FDB4
:10587000262002F0D9FD012002F0CAFDE02002F04E
:10588000D3FD0F2002F0C4FD2A2002F0C1FD282024
:1058900002F0BEFD082002F0BBFD0E2002F0B8FDB4
:1058A000082002F0B5FD542002F0B2FDA92002F05C
:1058B000AFFD432002F0ACFD0A2002F0A9FD0F204D
:1058C00002F0A6FD002002F0A3FD002002F0A0FDE2
:1058D000002002F09DFD002002F09AFDE12002F080
:1058E000A3FD002002F094FD152002F091FD172089
:1058F00002F08EFD072002F08BFD112002F088FDE2
:10590000062002F085FD2B2002F082FD562002F0D9
:105910007FFD3C2002F07CFD052002F079FD102087
:1059200002F076FD0F2002F073FD3F2002F070FDC3
:105930003F2002F06DFD0F2002F06AFD2B2002F0E7
:1059400073FD002002F064FD002002F061FD0120E3
:1059500002F05EFD3F2002F05BFD2A2002F064FDB4
:10596000002002F055FD002002F052FD002002F060
:105970004FFDEF2002F04CFD112002F055FD782084
:10598000FFF7E0FD292002F04FFD10BD10B5ED201E
:1059900002F04AFD012002F03BFDFE2002F038FD3E
:1059A000EE2002F041FDDE2002F032FD212002F067
:1059B0002FFDF12002F038FD012002F029FDDF204B
:1059C00002F032FD102002F023FDC42002F02CFD75
:1059D0008F2002F01DFDC62002F026FD002002F0FF
:1059E00017FDE22002F014FDE22002F011FDE2209A
:1059F00002F00EFDBF2002F017FDAA2002F008FD04
:105A0000B02002F011FD0D2002F002FD002002F096
:105A1000FFFC0D2002F0FCFC002002F0F9FC11203C
:105A200002F0F6FC002002F0F3FC192002F0F0FC7A
:105A3000002002F0EDFC212002F0EAFC002002F040
:105A4000E7FC2D2002F0E4FC002002F0E1FC3D2008
:105A500002F0DEFC002002F0DBFC5D2002F0D8FC4E
:105A6000002002F0D5FC5D2002F0D2FC002002F004
:105A7000CFFCB12002F0D8FC802002F0C9FC00204D
:105A800002F0C6FC8B2002F0C3FC002002F0C0FC38
:105A9000962002F0BDFC002002F0BAFCB22002F019
:105AA000C3FC002002F0B4FC002002F0B1FC022094
:105AB00002F0AEFC002002F0ABFC032002F0A8FCD8
:105AC000002002F0A5FCB32002F0AEFC002002F0A2
:105AD0009FFC002002F09CFC002002F099FC0020BA
