:020000040800F2
:10000000380800209D010008A30B0008F90A000829
:10001000A10B0008A90200085D1300080000000001
:100020000000000000000000000000002F0C00088D
:10003000D1020008000000002D0C0008A9120008E1
:10004000B7010008B7010008B7010008B7010008B0
:10005000B7010008B7010008B7010008B7010008A0
:10006000B7010008B7010008B7010008B701000890
:10007000B7010008B7010008B7010008B701000880
:10008000B7010008B7010008B7010008B701000870
:10009000B7010008B7010008B7010008B701000860
:1000A000B7010008B7010008B7010008B701000850
:1000B000B7010008B7010008B7010008B701000840
:1000C000B7010008B7010008B7010008B701000830
:1000D000B7010008B7010008B7010008B701000820
:1000E000B7010008B7010008B7010008B701000810
:1000F000B7010008B7010008B7010008B701000800
:10010000B7010008B7010008B7010008B7010008EF
:10011000B7010008B7010008B7010008B7010008DF
:10012000B7010008B7010008B7010008B7010008CF
:10013000B70100080000000000000000B70100083F
:10014000B7010008B7010008B7010008B7010008AF
:10015000B7010008B7010008B7010008B70100089F
:10016000B7010008B7010008B7010008B70100088F
:10017000B7010008B70100080000000000000000FF
:10018000B7010008B7010008DFF80CD000F07AF8DA
:1001900000480047611400083808002006488047DE
:1001A00006480047FEE7FEE7FEE7FEE7FEE7FEE75C
:1001B000FEE7FEE7FEE7FEE74113000889010008BD
:1001C0002DE9F05F0546002092469B46884606468C
:1001D000814640241BE0284641464746224600F01F
:1001E00041F853465A46C01A914110D31146184659
:1001F000224600F028F82D1A67EB01084F462246E8
:100200000120002100F01FF817EB00094E41201ECD
:10021000A4F10104DFDC484631462A464346BDE8E6
:10022000F09FD2B201E000F8012B491EFBD27047CB
:100230000022F6E710B513460A4604461946FFF7B2
:10024000F0FF204610BD202A04DB203A00FA02F11C
:10025000002070479140C2F1200320FA03F31943B4
:1002600090407047202A04DB203A21FA02F0002156
:10027000704721FA02F3D040C2F1200291400843B6
:1002800019467047064C074D06E0E06840F0010350
:1002900094E8070098471034AC42F6D3FFF778FF94
:1002A000C4A10008E4A10008FEE7000007480021FF
:1002B0001322017041704260017264224281818187
:1002C000012201610275417500F06CBC2004002020
:1002D0007047000070B5044600F0F0F80546601C59
:1002E00002D004480078044400F0E8F8401BA04223
:1002F000FAD370BD000000202DE9F84F00224FF026
:10030000010803254FF00F0E0B6808FA02F4234092
:10031000A3426ED14E68012E05D0022E03D0112EBD
:1003200001D0122E12D186684FEA420C05FA0CF762
:10033000BE43CF6807FA0CF7374387604668A64389
:100340000C79C4F30014944034434460C6685700E9
:1003500005FA07FC8C6826EA0C06BC403443C460EE
:100360004C68022C01D0122C13D1D40800EB840469
:10037000A346D4F8209054074FEAD46A0EFA0AF63E
:1003800029EA06090E6906FA0AF646EA0906CBF8D2
:10039000206006680C7926EA0C0604F00304BC40D1
:1003A000344304604C68E40065D5364C266846F456
:1003B00080462660246822F0030604F480440094FA
:1003C000314C3444A446D4F808489607370F0EFA47
:1003D00007F6B4432D4EB04201D1002624E02C4E46
:1003E000B04201D101261FE02A4EB04202D10226BE
:1003F0001AE040E0284EB04201D1032614E0274E17
:10040000B04201D104260FE0254EB04201D10526AD
:100410000AE0244EB04201D1062605E0224EB04249
:1004200001D1072600E00826BE402643CCF8086824
:100430001E4E34684F689C43FF0300D51C43346054
:100440001A4C241D26684F689E43BF0300D51E43E7
:100450002660164E083634684F689C43FF0200D56C
:100460001C433460114E0C3634684F689C43BF0205
:1004700000D51C433460521C102AFFF445AFBDE880
:10048000F88F000044380240003001400000024074
:100490000004024000080240000C0240001002402C
:1004A0000014024000180240001C0240003C0140C1
:1004B0000AB1816170470904FBE7000001488068C8
:1004C0007047000000000020024881680278114453
:1004D00081607047000000200B4810B5016841F4AE
:1004E00000710160016841F480610160016841F4BC
:1004F00080710160032000F061F8002000F006F830
:1005000000F024F8002010BD003C024070B50D4DF5
:1005100004464FF47A712878B1FBF0F00A49096873
:10052000B1FBF0F000F0D4FA48B9102C07D2002249
:100530002146501E00F022F800206C6070BD0120A2
:1005400070BD0000000000200C0000200A4808B523
:10055000016841F480410160006800F4804000902F
:100560000548001F016841F080510160006800F0FB
:100570008050009008BD000044380240F0B40E4B9B
:100580001B680C46C3F30223C3F10705042D00D9F1
:100590000425191D072901D2002300E0DB1E0126D6
:1005A00006FA05F1491E214099409E40761E1640EC
:1005B0003143F0BC00F0D3BE0CED00E0064900F082
:1005C000070208684FF6FF03184040EA0220034A7A
:1005D00010430860704700000CED00E00000FA05D1
:1005E0002DE9F0470E46050065D0DFF81481D8F8F4
:1005F0000000F7B200F00F00B04207D288F8007098
:10060000D8F8000000F00F00B04254D128683D4CEB
:10061000810712D5400703D5206840F4E0502060E0
:100620002878000703D5206840F4604020602068E7
:10063000A96820F0F000084320602878C0072DD07A
:10064000304968680839012812D0022813D00328DD
:1006500011D00968890700292DDA216821F00301EA
:1006600001432160FFF72AFF814641F2883A0EE0FC
:1006700009688903EFE709688901ECE7FFF71EFFC6
:10068000A0EB0901514502D90320BDE8F08720689D
:10069000696800F00C00B0EB810FEFD1D8F80010C2
:1006A000404601F00F01B14207D90770006800F021
:1006B0000F00B04201D00120E7E72878400705D5B8
:1006C0002068E96820F4E05008432060287800079B
:1006D00006D52068296920F4604040EAC100206006
:1006E00000F018F82168084AC1F30311515CC840B2
:1006F0000649086006480068FFF708FF0020C4E7C5
:10070000003C02400838024015A000080C00002000
:1007100004000020154810B5006810F00C021448C1
:1007200013D04110042A0FD0082A0ED10F4C241FD9
:100730002268236802F03F025B0207D52068C0F3FD
:100740008810A0FB010106E0084610BD2168C1F336
:100750008811A1FB00010023FFF732FD2168C1F3DE
:100760000141491C4900B0FBF1F010BD08380240BE
:100770000024F4002DE9F84F04006ED02078DFF853
:100780003C93C007A9F104054AD009F104000168AF
:10079000C1F38101012908D00068C0F3810002285B
:1007A0000AD1D9F80000400206D52868800337D561
:1007B00060680028E1D033E06068B0F5803F10D079
:1007C000B0F5A02F286810D020F480302860286869
:1007D00020F4802028606068A8B1FFF76FFE06460D
:1007E0000DE0286840F48030F4E740F48020286071
:1007F000F7E700BFFFF762FE801B642873D8286804
:100800008003F7D50CE0FFF759FE064605E000BF70
:10081000FFF754FE801B6428F0D828688003F7D4C3
:100820002078DFF89C8280074FF0000A3ED5A3486D
:10083000001D016811F00C0F08D00068C0F38100A2
:1008400002280BD1D9F80000400207D4286880079D
:1008500016D5E068012800D112E02BE1E068B8B1BC
:100860000120C8F80000FFF729FE064605E000BF9A
:10087000FFF724FE801B0228C0D828688007F7D520
:100880002868216920F0F80040EAC10028600DE0E6
:10089000C8F800A0FFF712FE064604E0FFF70EFEC0
:1008A000801B02281FD828688007F7D4207800070B
:1008B00022D5824E83486169703671B10121016091
:1008C000FFF7FCFD074604E0FFF7F8FDC01B022818
:1008D00009D830688007F7D50EE0C0F800A0FFF710
:1008E000EDFD074605E082E0FFF7E8FDC01B0228AA
:1008F0007DD830688007F7D42078400768D5DFF8C6
:10090000BCB100270BF13C0BDBF80000C0000BD49E
:10091000DBF8001041F08051CBF80010DBF800004C
:10092000012700F080500090674E3068C00510D459
:10093000306840F480703060FFF7C0FD009005E043
:10094000FFF7BCFD0099401A022850D83068C00556
:10095000F6D55A4EA0686C3601280FD005283068AD
:1009600010D020F001003060306820F004003060CA
:10097000A068B8B1FFF7A2FD00900FE0306840F02A
:100980000100F4E740F004003060F7E7FFF796FD60
:100990000099411A41F28830814266D83068800758
:1009A000F4D50EE0FFF78AFD009007E0FFF786FD23
:1009B0000099411A41F28830814256D83068800748
:1009C000F4D42FB1DBF8001021F08051CBF80010E7
:1009D000A069C8B33949091D0968C1F38101022919
:1009E0004AD00228504607D0C8F8600000E03CE03A
:1009F000FFF764FD04463BE04746C8F86000FFF798
:100A00005DFD064605E000BFFFF758FD801B02288C
:100A10002BD828688001F7D4D4E907010843A16ADC
:100A20002A4A490802EB0141626A41EA82110843FD
:100A300094F82C1040EA0161C9F8001001203866D2
:100A4000FFF73CFD044606E036E000BFFFF736FD49
:100A5000001B022809D828688001F7D52CE000BFC8
:100A6000FFF72CFD001B022802D90320BDE8F88FF8
:100A700028688001F4D41FE00128F7D0D9F80000DD
:100A8000E26900F48001914214D1226A00F03F0132
:100A900091420FD147F6C071626A0140914209D17B
:100AA000A26A00F44031914204D1E16A00F0706022
:100AB000884201D00120D9E70020D7E7043802405E
:100AC00000004742800E4742007000400000FFFFD8
:100AD00010B5401EB0F1807F01D3012010BD4FF052
:100AE000E02460610F21601700F039FC0020A06154
:100AF00007202061002010BDFEE71CB500F068FE55
:100B000000281BD09E208DF80000E7208DF8010002
:100B10006946102000F0A0FB00F05AFE00280DD01E
:100B200000208DF800006946082000F095FB01A91F
:100B3000002000F0DDFD012800D000201CBD0000D9
:100B400070B586B014216846FFF772FB1248002585
:100B5000016841F080010160016801F080010591A8
:100B6000016841F00101016000680C4E00F00100D5
:100B70004FF4E0640590012221463046FFF798FCCF
:100B80000120CDE900400320CDE9025069463046FE
:100B9000FFF7B2FB06B070BD3038024000000240E3
:100BA000FEE7FEE700B585B014216846FFF740FB7D
:100BB0004FF4C06000900020019002906946024806
:100BC000FFF79AFB05B000BD0000024030B5154CA0
:100BD00087B04FF4C065A56114216846FFF728FB74
:100BE00011480021026842F001020260006800958D
:100BF00000F0010005900120CDE9010103200390E0
:100C000069462046FFF778FBA0150090022002906D
:100C100069462046FFF770FB6015A0614000A061A7
:100C200007B030BD000002403038024070477047C6
:100C300030B587B014216846FFF7FAFA104800244F
:100C4000016841F00101016000680E4D00F00100F3
:100C500005904FF4C060CDE900040320CDE90240C7
:100C600069462846FFF748FBA81500900120CDE90A
:100C7000010469462846FFF73FFB07B030BD00007E
:100C80003038024000000240034A52780AB100F0B6
:100C900005B800F011B90000200400202DE9F04F44
:100CA000834A07464FF480609061C3039361441008
:100CB00094615FEAC77C4FF0806501D0906100E0ED
:100CC0009561936194614FEA570C5FEACC7801D04B
:100CD000906100E0956193619461BE08BC445FEA55
:100CE000C67801D0906100E0956193619461B4444D
:100CF000FE085FEAC67801D0906100E095619361DB
:100D000094616644F60701D0906100E095619361BB
:100D1000946195619361946181469061936194615E
:100D20004FF080709061106820F440101060956161
:100D3000DFF880A19AF81400061E03D09361946135
:100D4000401EFBD1936110699461C0F380209361D0
:100D5000D2F810C09461CCF3802C40EA4C0093612F
:100D6000D2F810C09461CCF3802C40EA8C004FF490
:100D7000807B012813D0022871D004286FD021363F
:100D800003D093619461761EFBD1C2F818B011684C
:100D900021F4401141F480111160956184E0BF0796
:100DA0002CD54FF00008464620279361D2F810C09A
:100DB0009461CCF3802C4FEA5808664448EACC781A
:100DC0007F1EF2D193611769946186EA9726F60730
:100DD00000D0082009B1C1F800809AF8141019B1A8
:100DE00093619461491EFBD1C2F818B0116821F4D7
:100DF000401141F480111160956126E01EB19361AC
:100E00009461761EFAE7C2F818B0166826F4401608
:100E100046F4801616609561096800262027CC46A6
:100E20005FEAC17802D0C2F818C000E09561936112
:100E300094610E4449087F1EF2D1F10702D0C2F836
:100E400018C000E09561936194619AF8081059B355
:100E5000956193619461491EFBD125E0FFE79AF803
:100E600015C0BCF1000F06D0B90704D5212193614C
:100E70009461491EFBD11EB193619461761EFAE71D
:100E8000C2F818B0116821F4401141F480111160CA
:100E90009561BCF1000F07D0B90705D495612121F8
:100EA00093619461491EFBD1C2F81890BDE8F08FA0
:100EB00000000240200400202DE9F04FE44A4FF4E6
:100EC00080678B4606460024976113029361DFF822
:100ED0008483D8F804100846401EFDD14FF40070FA
:100EE00090610D466D1EFDD15FEAC67C4FF08065B6
:100EF00001D0976100E0956193618C46BCF1010CD3
:100F0000FCD19061C1468C46BCF1010CFCD104EBD4
:100F1000060C74085FEAC47801D0976100E095611F
:100F200093618846B8F10108FCD190614FEA01084D
:100F3000B8F10108FCD1A444B4085FEAC47801D038
:100F4000976100E0956193614FEA0108B8F10108EB
:100F5000FCD1804690610846401EFDD1A444F008B3
:100F6000C40701D0976100E0956193610C46641E4F
:100F7000FDD14446C2F818804FEA0108B8F10108D3
:100F8000FCD16044C00701D0976100E09561936196
:100F900048468C46BCF1010CFCD194614FEA010C2F
:100FA000BCF1010CFCD1956193618C46BCF1010C44
:100FB000FCD194614FEA010CBCF1010CFCD1BA46A2
:100FC000976193610F467F1EFDD194610F467F1E8E
:100FD000FDD14FF080779761176827F440171760AD
:100FE000A946956190F814C05FEA0C050AD0936198
:100FF0000F467F1EFDD194610F467F1EFDD1BCF1CF
:10100000010CF4D193610F467F1EFDD117699461E5
:10101000C7F380274FEA010CBCF1010CFCD19361AE
:101020004FEA010CBCF1010CFCD1D2F810C0946164
:10103000CCF3802C4FEA0108B8F10108FCD147EA53
:101040004C0793614FEA010CBCF1010CFCD1D2F8C2
:1010500010C09461CCF3802C0846401EFDD147EAB5
:101060008C004FF4807E01281AD002287ED00428FC
:101070007CD0213509D093610E46761EFDD1946156
:101080000E46761EFDD16D1EF5D1C2F818E011682E
:1010900021F4401141F480111160C2F81890D2E09F
:1010A000B60745D54FF000084646202793610D4608
:1010B0006D1EFDD115699461C5F3802C0D466D1E22
:1010C000FDD14FEA5805664445EACC787F1EEDD144
:1010D0009361DFF880C10F467F1EFDD11769154669
:1010E000C7F380279461491EFDD17E40F10700D0EF
:1010F0000820BBF1000F01D0CBF800809CF81470E1
:101100005FB1DCF80410AB610E46761EFDD1AC6118
:101110000E46761EFDD17F1EF5D1C5F818E0296870
:1011200021F4401141F480112960C5F818903BE08A
:101130004DB193610E46761EFDD194610E46761E2A
:10114000FDD16D1EF4E7C2F818E0156825F44015CE
:1011500045F480151560C2F81890DBF800500027A0
:101160004FF0200CEE0702D0564601E02DE04E462F
:10117000966193610E46761EFDD194610E46761EF1
:10118000FDD12F446D08BCF1010CEBD1FD0701D05E
:10119000554600E04D469561164693610D466D1E1D
:1011A000FDD1B461491EFDD12A490E7AF6B3C2F8C9
:1011B0001890496893610D466D1EFDD194610D46EE
:1011C0006D1EFDD1761EF5D13DE0224F97F81580BA
:1011D000B8F1000F0ED0B7070CD54FF0210C93617A
:1011E0000F467F1EFDD194610F467F1EFDD1BCF1DD
:1011F000010CF4D14DB193610F467F1EFDD1946176
:101200000F467F1EFDD16D1EF4E7C2F818E0156889
:1012100025F4401545F4801515604D46C2F8189028
:10122000B8F1000F0FD0B6070DD400E00BE09561C8
:10123000212693610D466D1EFDD194610D466D1EF4
:10124000FDD1761EF5D1C2F818A0BDE8F08F0000E0
:10125000000002402004002070B5124A00252C46F0
:101260000F4E526819E014B911F8015B0824EB071E
:1012700002D04FF4806301E04FF08063B3614FF020
:101280000073B36113465B1EFDD14FF40073B3616D
:1012900013465B1EFDD16D08641E401EE3D270BD77
:1012A0000000024020040020FFF70EB930B593B0D3
:1012B00030216846FEF7BCFF14210CA8FEF7B8FFEA
:1012C0001D480025016841F080510160006800F070
:1012D000805011901948016841F480410160006814
:1012E000022400F48040119001200390102004900B
:1012F000009406940820CDE90750A820CDE9090400
:1013000004200B906846FFF735FA08B172B6FEE785
:101310000CA90F2081E831004FF4A0500F904FF43A
:101320008050109005210CA8FFF75AF9002801D031
:1013300072B6FEE713B030BD403802400070004086
:101340000548016841F47001016003494FF00060F5
:10135000803908607047000088ED00E0FEE709076B
:10136000090E002804DB00F1E02080F8001470472B
:1013700000F00F0000F1E02080F8141D704702E03B
:1013800008C8121F08C1002AFAD170477047002010
:1013900001E001C1121F002AFBD1704706494FF43A
:1013A0007A620968B1FBF2F14143002001E000BF1D
:1013B000401C8842FBD370470C0000202DE9F0410F
:1013C000FFF736FC00F0B8F81C48006800F04EFC4F
:1013D000002448F2093500BF04F1006000F032FC3F
:1013E00004F58064AC42F7D300244FF480663246A3
:1013F000134904F1006000F09DF904F58064AC42EB
:10140000F5D3104F00243919324604F1006000F082
:101410004FFC04F58064AC42F5D300243246084901
:1014200004F1006000F086F904F58064AC42F5D365
:10143000BDE8F041022000F0E9B900001C000020E6
:10144000200000200C1D000810B5002305E0DC0082
:1014500021FA04F4C4545B1CDBB29342F7D310BDF1
:10146000FFF73AF8FFF722FFFFF76AFB4FF42F7000
:10147000FEF730FFFFF7A2FFFEE700002DE9F04383
:1014800093B00F46DDE91A8904461E4615464421ED
:101490006846FEF7CDFE8DE8600360680990A0689D
:1014A0000D902068CDE90E074FF0807010906846CF
:1014B00000F01CFB00282ED0194E1A4D002411A953
:1014C000284600F071F928B31198800309D5154812
:1014D00000216F460C466426001D00F09FFBC8B13A
:1014E00003E0641CB442EAD314E03946284600F015
:1014F0005BF978B10098C00302D4641CB442F4DBF9
:10150000B44207D007483946083000F04DF908B119
:10151000009818B1002013B0BDE8F0830120FAE76D
:1015200040420F00F0ED00E010B5FEF7BFFEFFF700
:101530004DFB012010BD0000F8B5002020490446F5
:101540000090401E086064254860FFF7EDFFFFF73C
:10155000D4FA002824D01E21002000F00BFB002824
:101560001ED00021082000F005FB002818D04FF005
:10157000A041042000F0FEFA002811D04FF02046D0
:101580006946042000F0B4F8002809D0009836EA33
:10159000000002D0641CAC42F2DBAC4201D100205E
:1015A000F8BD0849042000F0E5FA0028F8D0002131
:1015B000082000F0DFFA0028F2D00120F8BD00007A
:1015C00014000020000F005000B585B014216846BB
:1015D000FEF72EFE4FF4C0600090002001900290B4
:1015E00069460348FEF788FE05B0012000BD0000F3
:1015F00000000240F8B50E46054662B3940817494C
:10160000002000F0BBF9002826D005270422294637
:101610006846FFF719FF6946384600F09FF9012830
:1016200019D10F270021384600F098F9012812D16E
:101630000025641E07E03146384600F08FF9012886
:1016400009D16D1C361DA542F5D30E20314600F0A0
:1016500085F9012800D00020F8BD000052000023C9
:1016600038B50C4605460949002000F087F90028E6
:101670000BD06946284600F00BF8002805D0A807D3
:10168000C10E0098C8402070012038BD50000023D2
:101690001CB50C460146042201A8FFF7D5FE052023
:1016A00001A900F05BF9012820D10F20694600F064
:1016B00055F901281AD10E20694600F04FF9002291
:1016C00022609DF8031042EA016222609DF8021038
:1016D00042EA014121609DF8012041EA0221216096
:1016E0009DF8002011432160012800D000201CBD7E
:1016F00038B50C4600F00C006946801C00F02EF94D
:10170000002121609DF8032041EA026121609DF8DB
:10171000022041EA024121609DF8012041EA0221B4
:1017200021609DF8002011432160012800D0002095
:1017300038BD00002DE9F04114460F46054608E08B
:1017400039462846FFF78CFF002829D0641E6D1CFF
:101750007F1C24B3A807F3D1DFF84880032C1CD9E1
:10176000D8F80000411E2940461AB44201D224F0A4
:101770000306324639462846FFF73CFF00280FD0C3
:1017800035443744A41BE9E739462846FFF768FF8C
:10179000002805D0641E6D1C7F1C002CF4D1012094
:1017A000BDE8F0811000002070B50C4605460749E1
:1017B000002000F0E3F8002806D021462846FFF775
:1017C00067FF002800D0012070BD000052000023F8
:1017D0001CB500206946FF220A54401CC0B20828EC
:1017E000FAD33320FFF738FD01201CBD002807D1B4
:1017F00004480168044A01F4E061114300F00EBAA4
:10180000704700000CED00E00400FA05F8B5022571
:10181000504F514C0646062879D0FFF785FE3046DA
:101820007E1C072874D2DFE800F0041708525474B5
:101830008A000120FFF7DAFF7FE00120FFF7D6FFE3
:101840001420FFF7ABFD0020FFF7D0FF1420FFF7B7
:10185000A5FDFFF7B9FE70E0FFF76EFE00286DD022
:101860000FE06D1E6DB2002D71DD0120FFF7BEFF90
:101870001420FFF793FD0020FFF7B8FF1420FFF7B7
:101880008DFD3146204600F0C9F90028E9D0324DDF
:1018900001210C35284600F0C1F900284ED0012066
:1018A000FFF7A4FF1420FFF779FD0020FFF79EFF4C
:1018B0001420FFF773FD69462046FFF775FF0028E7
:1018C0003CD000988003F6D5002128461AE039461E
:1018D00017E0FFF712F9002830D01E21002000F099
:1018E00049F900282AD00021082000F043F90028F7
:1018F00024D04FF0A041042000F03CF900281DD076
:101900003146204600F08AF9002817D015E016E08D
:101910001DE0FFF711FE002810D00E492046C91C1B
:1019200000F07CF9002809D069462046FFF73CFF0B
:10193000002803D000988003F6D50120F8BD394671
:10194000204600F06BF90028F8D0FFF73DFE00209C
:10195000F8BD000000005FA0F0ED00E070B50D469E
:101960000646002429463046FFF78EF9022803D1A7
:10197000641CE4B20A2CF5D370BD000038B50D46E6
:10198000044600F07F4100F0F0000143082000F021
:10199000F1F8002805D034B90E484168A94201D1B8
:1019A000012038BD456004F00C0404222946684635
:1019B000641CFFF749FD69462046FFF7CFFF012869
:1019C00005D10E200021FFF7C9FF0128E9D0002032
:1019D00038BD000014000020F8B50D4604462AB3B7
:1019E000960813490020FFF7C9FF00281FD00527DC
:1019F000042221466846FFF727FD69463846FFF76F
:101A0000ADFF012812D10D27002407E029463846F2
:101A1000FFF7A4FF012809D1641C2D1DB442F5D3A2
:101A20000E200021FFF79AFF012800D00020F8BD0A
:101A30005200002370B50C46054608490020FFF708
:101A40009DFF002809D0A807C00E04FA00F128461F
:101A500000F02CF8002800D0012070BD50000023B9
:101A600073B50646002464250F48019900F0D6F8A6
:101A7000002813D00C4846F48031001F00F0CEF847
:101A800000280BD0084E083E01A93046FFF78CFE17
:101A9000002803D00198C00301D501207CBD641C3F
:101AA000AC42F1DB00207CBDF8ED00E038B50C461F
:101AB000014604226846FFF7C7FC05206946FFF788
:101AC0004DFF012810D1042221466846FFF7BCFCD7
:101AD0000D206946FFF742FF012805D10E200021A5
:101AE000FFF73CFF012800D0002038BD38B505467F
:101AF0000021082000F03EF8002834D05FF00004F8
:101B0000204655F82410FFF7ABFF00282BD0641CAB
:101B1000042CF5D30920696AFFF7A2FF002822D020
:101B20005FF00D04204655F82410FFF799FF0028B8
:101B300019D0641C102CF5D31020296CFFF790FFEE
:101B4000002810D009490A4800F068F800280AD097
:101B500069460420FFF7CCFD002804D0009810F05F
:101B6000A00F01D0002038BD012038BD01005FA0CA
:101B7000F0ED00E038B5082806D10A4A13688B4218
:101B800001D1012038BD116000F00C040422684628
:101B9000FFF75AFC69462046FFF7E0FE0128F1D026
:101BA000002038BD140000202DE9F04114460E46F7
:101BB000054608E031782846FFF73CFF002829D089
:101BC000641E6D1C761C24B3A807F3D1DFF848808F
:101BD000032C1CD9D8F80000411E2940471ABC42EA
:101BE00001D224F003073A4631462846FFF7F4FEB7
:101BF00000280FD03D443E44E41BE9E731782846F5
:101C0000FFF718FF002805D0641E6D1C761C002C01
:101C1000F4D10120BDE8F0811000002070B50C4621
:101C2000054607490020FFF7A9FE002806D02146F7
:101C30002846FFF73BFF002800D0012070BD0000C0
:101C4000520000231CB50021009101910649024673
:101C50000548C96800231430FFF710FC08B10020C4
:101C60001CBD09201CBD000090A100087CB50546E4
:101C70000120FFF7CBFD98B10C4CD4E90902E16AD1
:101C8000FFF792FF70B100200090019003462A46B2
:101C900004F114002168FFF7F1FB28B100207CBD9E
:101CA00003207CBD04207CBD06207CBD90A10008E3
:101CB0002DE9FC41164688460746134C1AE0206B76
:101CC000B04201D2054600E035462A464146206A28
:101CD000FFF76AFF98B10021206ACDE900010A48A8
:101CE0003A461430236B2169FFF7C8FB48B12F44F3
:101CF000A844761B002EE2D10020BDE8FC8105201F
:101D0000FBE70B20F9E7000090A10008F007002096
:101D100031020008531900084B1900084F19000838
:101D200009070008C11D00080000000000000000B5
:101D30000000000000000000571900080D0700080F
:101D40000000000055190008591900084B0200084E
:101D50004B0200084B0200084B0200084B0200082F
:101D60004B0200084B0200084B0200084B0200081F
:101D70004B0200084B0200084B0200084B0200080F
:101D80004B0200084B0200084B0200084B020008FF
:101D90004B0200084B0200084B0200084B020008EF
:101DA0004B0200084B0200084B0200084B020008DF
:101DB0004B0200084B0200084B0200084B020008CF
:101DC0004B0200084B0200084B0200084B020008BF
:101DD0004B0200084B0200084B0200084B020008AF
:101DE000711D00084B0200084B0200084B0200085E
:101DF0004B0200084B0200084B0200084B0200088F
:101E00004B0200084B0200084B0200084B0200087E
:101E10004B0200084B0200084B0200084B0200086E
:101E20004B0200084B0200084B0200084B0200085E
:101E30004B0200084B0200084B0200084B0200084E
:101E40004B0200084B0200084B0200084B0200083E
:101E50004B0200084B0200084B0200084B0200082E
:101E60004B0200084B0200084B0200084B0200081E
:101E70004B0200084B0200084B0200084B0200080E
:101E80004B0200084B020008000000004B02000853
:101E90004B02000800F002F800F041F80AA090E8B8
:101EA000000C82448344AAF10107DA4501D100F015
:101EB00036F8AFF2090EBAE80F0013F0010F18BFA1
:101EC000FB1A43F001031847088100002881000035
:101ED000103A24BF78C878C1FAD8520724BF30C856
:101EE00030C144BF04680C60704700000023002428
:101EF00000250026103A28BF78C1FBD8520728BF1A
:101F000030C148BF0B607047782900F0F78000208F
:101F100070471FB505F06EF81FBD10B510BD00F07D
:101F200047FA1146FFF7F5FF04F0DCFD00F065FA13
:101F300003B4FFF7F2FF03BC01F0EDFD0948804751
:101F400009480047FEE7FEE7FEE7FEE7FEE7FEE79B
:101F5000FEE7FEE7FEE7FEE704480549054A064BB3
:101F6000704700006119000889010008F001002095
:101F7000F0070020F0030020F0030020704753EA30
:101F8000020C00F069802DE9F04B4FF00006002BA9
:101F90001FBFB3FA83F503FA05F424FA05F65E4091
:101FA00012BF1643B2FA82F502FA05F4C5F1200514
:101FB0001EBF22FA05FC44EA0C04203556EA044C04
:101FC0004FEA144418BF641C4FF000084FF000099A
:101FD000904271EB030C39D3002919BFB1FA81F794
:101FE00001FA07F6B0FA80F700FA07F6C7F1200702
:101FF0001EBF20FA07FC46EA0C062037B6FBF4FCAD
:10200000A7EB0507103F07F01F0BCBF120060CFADA
:102010000BFB2CFA06F644BFB3460026202FA4BFC4
:102020005E464FF0000B5BEA060C08BF4FF0010B59
:1020300019EB0B09ABFB027C48EB0608C01B06FB47
:1020400002CC0BFB03CC71EB0C01C1E70B46024643
:1020500041464846BDE8F08B13B54FF000004FF005
:102060000001AFF30080BDE81C4070470FB4044985
:1020700010B503AA029800F085F910BC5DF814FBB6
:10208000080000200FB41CB5074B06AA7B44694624
:102090000090059800F05DF90020694600F06CF9A9
:1020A0001CBC5DF814FB0000E902000070B504469A
:1020B00085690068C10601D5302600E02026C007EA
:1020C00007D070BDD4E9012130469047206A401CFA
:1020D00020626D1EF6D570BD70B504468569007826
:1020E000C00707D170BDD4E9012120209047206AA4
:1020F000401C20626D1EF6D570BD000070B5044610
:102100000D4621461068AFF300802188090502D5ED
:102110000F4A7A4402E00E4A7A440E32002104F15A
:10212000240305E000F00F060009965D5E54491C8B
:102130000028F7D120780023000704D5702D02D0A5
:1021400009B1022311322046BDE8704000F0A2B868
:10215000807E00002DE9F05F894604464FF0000ABA
:10216000DFF824B1FB44C0F820A02046E16888478E
:1021700000287DD0252806D0D4E901219047206A87
:10218000401C2062F1E700255F462046E168884751
:102190002028064607DB312E05D2B81910F8200C8E
:1021A00008B10543F1E7A80701D525F00405C4F8F7
:1021B0001CA00027C4F818A02A2E09D0304601F030
:1021C000A3FC38B304EB8708303EC8F8186019E068
:1021D00059F8041B204604EB87029161E1688847A7
:1021E000012F064618D1E069002820DA25F02005E5
:1021F0001DE0D8F8180000EB800006EB40003038F6
:10220000C8F818002046E1688847064601F07CFCC3
:102210000028EED1012F0AD02E2E08D12046E168E9
:1022200088477F1C0646022F45F02005C4DBA069C5
:10223000002803DA404245F00105A061E80701D01B
:1022400025F01005A6B1A6F14100192802D82036C4
:1022500045F400654A463146204625604D46FFF765
:1022600053FE60B1012807D0ED1D25F0070000E006
:1022700007E000F1080978E705F1040975E7304641
:102280007AE7206ABDE8F09F567E000070477047ED
:10229000704770472DE9F0470D469946924604462F
:1022A00000F124080168880604D5E06921F01001D6
:1022B000216000E00120A84201DD471B00E000276B
:1022C000A1697A1902EB0900081AA0612078C006FA
:1022D00002D42046FFF7EAFE002608E0D4E90121F7
:1022E0001AF806009047206A401C761C20624E4572
:1022F000F4DB2078C0060AD52046FFF7D7FE06E0BB
:10230000D4E9012130209047206A401C2062381E09
:10231000A7F10107F4DC07E0D4E9012118F8050072
:102320009047206A401C2062281EA5F10105F3DCBD
:102330002046FFF7D1FE2078000602D50220BDE836
:10234000F0870120FBE7000001694A1C0261087860
:10235000704700B58FB0CDE90131002105910549E5
:102360007944CDE9031011466846FFF7F3FE0FB03C
:1023700000BD0000E5FFFFFF0A6802F8010B0A60DC
:1023800070470000074B70B50D467B44FFF7E1FF37
:102390000446284600F008F810B14FF0FF3070BD39
:1023A000204670BD1F180000007B00F080007047C1
:1023B000754600F02BF8AE4605006946534620F0FE
:1023C0000700854618B020B5FFF7C6FDBDE82040E0
:1023D0004FF000064FF000074FF000084FF0000BE1
:1023E00021F00701AC46ACE8C009ACE8C009ACE894
:1023F000C009ACE8C0098D46704710B50446AFF37C
:1024000000802046BDE81040FFF792BD00487047AD
:102410009001002000BFFEE77047000070B5044641
:102420001D460023B5F5804F13D154F822300C48D7
:102430000340D1E9000640EA06108E6840EA062013
:102440008E8940EA06408E693043034344F82230C7
:1024500003E06FF0704044F82200002070BD0000DF
:102460000000F0CF10B503460022086853F8202082
:1024700012480240D1E901042043CC6820430C6992
:1024800020434C6920438C692043CC6920430C6A6B
:1024900020434C6A20438C6A2043CC6A2043CC6B97
:1024A00020430C6B204302438868082801D142F086
:1024B0004002086843F82020002010BD8000F0FF93
:1024C00030B503460024501C53F8204004F040442B
:1024D000D1E9000540EA05108D6840EA05208D89A4
:1024E00040EA0545088A401E45EA0055087D801EE1
:1024F00045EA00608D6928430443501C43F820409E
:10250000002030BD70B50446A56D00F07DF906468B
:1025100094F83500022808D08020606500BF0020B4
:1025200084F8340000BF012070BD2068006820F0EE
:102530001600216808602068406920F0800021684A
:102540004861206C08B9A06C28B12068006820F0B0
:102550000800216808602068006820F001002168F8
:1025600008600FE000F050F9801B05280AD92020F0
:10257000606500BF002084F8340000BF032084F8A9
:102580003500D1E72068006800F001000028E9D19B
:1025900094F85C103F208840A86000BF002084F8B9
:1025A000340000BF012084F835000020BCE701465C
:1025B00091F83500022803D080204865012070473B
:1025C000052081F835000868006820F001000A68DD
:1025D00010600020F3E70000F8B502460B46002526
:1025E000002400200021DEE0012606FA01F51E6825
:1025F00006EA0504AC4275D11E7906F00306012EE9
:1026000004D01E7906F00306022E13D190684F0005
:102610000326BE40B0434F00DE68BE4030439060AA
:10262000506801268E40B0431E79C6F300168E40D6
:10263000304350601E7906F00306032E09D0D0689F
:102640004F000326BE40B0434F009E68BE4030435B
:10265000D0601E7906F00306022E13D1CF0802F1D6
:10266000200656F827004E07F70E0F26BE40B0434F
:102670004F07FF0E1E69BE403043CF0802F120060F
:1026800046F8270010684F000326BE40B0431E796D
:1026900006F003064F00BE40304310605E6806F04F
:1026A0008056B6F1805F7DD100BF00260096404E77
:1026B000366846F480463E4F3E603E46366806F435
:1026C0008046009600BF00BF3A4E8F0856F827009C
:1026D0008E07370F0F26BE40B043374EB24202D1AD
:1026E000002624E05EE0354EB24201D101261EE014
:1026F000334EB24201D1022619E0324EB24201D12C
:10270000032614E0304EB24201D104260FE02F4ED2
:10271000B24201D105260AE02D4EB24201D1062671
:1027200005E02C4EB24201D1072600E008268F07B3
:102730003F0FBE4030431F4E8F0846F82700264EFD
:102740003068A0435E6806F48036B6F5803F00D15D
:102750002043214E3060361D3068A0435E6806F489
:102760000036B6F5003F00D120431B4E361D3060C9
:10277000361D3068A0435E6806F48016B6F5801FEB
:1027800000D12043144E08363060361D3068A04317
:102790005E6806F40016B6F5001F00D120430E4E09
:1027A0000C363060491C1029FFF41EAFF8BD000044
:1027B0004438024008380140000002400004024052
:1027C00000080240000C02400010024000140240C9
:1027D00000180240001C0240003C014010B5426954
:1027E00021EA020302EA010443EA0443836110BDC3
:1027F0000AB1816101E00B04836170470148006800
:10280000000C7047002004E0014800687047000099
:102810001000002003480068034909780844014972
:1028200008607047100000201800002010B50A480A
:10283000006840F40070084908600846006840F4E9
:1028400080600860032000F07FF80F2000F006F899
:1028500000F02AF8002010BD003C024070B504468C
:102860000E4800784FF47A71B1FBF0F00C4909681A
:10287000B1FBF0F5284600F09BFC08B1012070BDCB
:10288000102C07D200222146501E00F01EF80548E9
:10289000046001E00120F2E70020F0E718000020CA
:1028A0000000002014000020704701460846002860
:1028B00009DB00F01F0301229A4043099B0003F14A
:1028C000E023C3F8002100BF70472DE9F05F804688
:1028D0000D461646002701F0FBF8074639462A4602
:1028E000334601F00700C0F1070ABAF1040F02D91C
:1028F0004FF0040A01E0C0F1070AD14600F1040AD2
:10290000BAF1070F02D24FF0000A01E0A0F1030A6A
:10291000D4464FF0010A0AFA09FAAAF1010A0AEAB2
:10292000020A0AFA0CFA4FF0010B0BFA0CFBABF19E
:10293000010B0BEA030B4AEA0B042146404601F067
:10294000CFF8BDE8F09F000000BF00F00702064B83
:1029500019684FF6FF031940044B0B4343EA022169
:10296000014B196000BF70470CED00E00000FA0554
:1029700070B504460D460CB9012070BD584800687A
:1029800000F00700A84209D255490D7008460068BA
:1029900000F00700A84201D00120EEE7207800F007
:1029A000020002281DD1207800F00400042805D17F
:1029B0004C48006840F4E0504A490860207800F034
:1029C0000800082805D14748006840F460404549A0
:1029D00008604448006820F0F000A16808434149BD
:1029E0000860207800F00100A8B36068012807D1D2
:1029F0003C4808380068C0F34040B8B90120BCE743
:102A00006068022802D06068032807D1354808387A
:102A10000068C0F3406048B90120AEE7314808388B
:102A20000068C0F3400008B90120A6E72D480068FF
:102A300020F00300616808432A490860FFF7E4FEBC
:102A4000064609E0FFF7E0FE801B41F2883188422C
:102A500002D9032091E707E02248006800F00C004B
:102A60006168B0EB810FEDD11D48006800F00700F0
:102A7000A84209D91A490D700846006800F00700FD
:102A8000A84201D0012078E7207800F00400042853
:102A900007D11448006820F4E050E1680843114968
:102AA0000860207800F00800082808D10D48006868
:102AB00020F46040216940EAC1000A49086000F042
:102AC0003FF808490968C1F30311074A515CC8403F
:102AD0000649086006480068FFF7C0FE00204CE782
:102AE000003C024008380240F2520008000000207A
:102AF000140000200148006870470000000000201A
:102B000000B5FFF7F7FF04490968C1F38221034AC2
:102B1000515CC84000BD0000083802400253000864
:102B200000B5FFF7E7FF04490968C1F34231034AE2
:102B3000515CC84000BD0000083802400253000844
:102B40002DE9F047002400250026A146254800680D
:102B500000F00C0020B1042805D008283AD105E087
:102B6000DFF8849039E0DFF8849036E01D48001FDC
:102B7000006800F03F041B48001F006800F480005C
:102B800078B11A481749091F0968C1F38811A0FBD9
:102B900001700146224600233846FFF7F0F905464A
:102BA0000EE011480F49091F0968C1F38811A0FB05
:102BB00001700146224600233846FFF7E0F905463A
:102BC0000848001F0068C0F30140401C4600B5FBE8
:102BD000F6F902E0DFF8109000BF00BF4846BDE8FC
:102BE000F0870000083802400024F40000127A0048
:102BF000F8B504460CB90120F8BD207800F00100BA
:102C0000002874D0F948006800F00C0004280DD0AA
:102C1000F648006800F00C00082813D1F348001FA4
:102C2000006800F48000B0F5800F0BD1EF48083841
:102C30000068C0F34040002859D06068002856D191
:102C40000120D9E700BF6068B0F5803F08D1E748B0
:102C50000838006840F48030E449083908601EE014
:102C60006068B0F5A02F0DD1E0480838006840F446
:102C70008020DE49083908600846006840F480304A
:102C800008600CE0D9480838006820F48030D74943
:102C9000083908600846006820F48020086000BFFA
:102CA000606890B1FFF7B0FD054606E0FFF7ACFDA8
:102CB000401B642801D903209EE7CC4808380068EF
:102CC000C0F340400028F1D011E0FFF79DFD05461C
:102CD00006E0FFF799FD401B642801D903208BE72C
:102CE000C24808380068C0F340400028F1D120787D
:102CF00000F0020002285FD1BC48006800F00C0020
:102D000058B1BA48006800F00C0008281CD1B74838
:102D1000001F006800F48000B0B9B44808380068AB
:102D2000C0F3400020B1E068012801D0012063E732
:102D3000AE480838006820F0F800216940EAC10078
:102D4000AA490839086037E0E06800B30120A849C3
:102D50000860FFF759FD054606E0FFF755FD401BEB
:102D6000022801D9032047E7A04808380068C0F3CB
:102D700040000028F1D09D480838006820F0F80095
:102D8000216940EAC10099490839086014E000202F
:102D900097490860FFF738FD054606E0FFF734FD68
:102DA000401B022801D9032026E790480838006814
:102DB000C0F340000028F1D1207800F00800082876
:102DC0002CD16069A8B101208A490860FFF71CFD79
:102DD000054606E0FFF718FD401B022801D9032035
:102DE0000AE782486C300068C0F340000028F1D048
:102DF00014E000207F490860FFF706FD054606E065
:102E0000FFF702FD401B022801D90320F4E67748B2
:102E10006C300068C0F340000028F1D1207800F049
:102E20000400042870D1002770483830006800F092
:102E3000805090B900BF002000906C483830006886
:102E400040F080506949383108600846006800F059
:102E50008050009000BF00BF01276748006800F461
:102E60008070B0B96448006840F4807062490860BE
:102E7000FFF7CAFC054606E0FFF7C6FC401B022828
:102E800001D90320B8E65C48006800F4807000288F
:102E9000F2D000BFA068012808D15448683000680B
:102EA00040F001005149683108601DE0A068052824
:102EB0000DD14E486830006840F004004B4968313D
:102EC00008600846006840F0010008600CE04748D0
:102ED0006830006820F00100444968310860084605
:102EE000006820F00400086000BFA068A8B1FFF7E8
:102EF0008BFC054609E0FFF787FC401B41F2883157
:102F0000884202D9032077E626E038486830006816
:102F1000C0F340000028EED013E0FFF775FC054633
:102F200008E0FFF771FC401B41F28831884201D96B
:102F3000032061E62D4868300068C0F34000002897
:102F4000EFD1012F07D129483830006820F0805098
:102F500026493831086000BFA069002845D02348C1
:102F6000006800F00C0008285DD0A069022845D157
:102F700000201F490866FFF747FC054606E0FFF7FB
:102F800043FC401B022801D9032035E617480838C6
:102F90000068C0F340600028F1D1D4E9070108437C
:102FA000616A40EA81110122A06AC2EB500041EA45
:102FB00000412C20005D41EA00600C49091F0860B7
:102FC00001200B490866FFF71FFC054606E0FFF7E6
:102FD0001BFC401B022801D903200DE603480838DA
:102FE0000068C0F340600028F1D049E00838024092
:102FF00000004742800E47420070004000202149F7
:103000000866FFF701FC054606E0FFF7FDFB401BE5
:10301000022801D90320EFE51B480068C0F3406097
:103020000028F2D12CE0A069012800D1E4E516487F
:10303000001D0668A069012820D006F48001E0691F
:1030400081421BD106F03F01206A814216D147F62A
:10305000C0703040616AB0EB811F0FD106F440317F
:103060000122A06AC2EB5000B1EB004F06D106F07E
:1030700070612C20005DB1EB006F01D00120BBE539
:103080000020B9E5000047420038024070B5044610
:103090000E4615460CB9012070BD94F8490028B9B8
:1030A000002084F84800204600F01CF804F10801D4
:1030B0002068FFF7D7F93146A2682068FFF700FAC9
:1030C0002946236BD4E90102FFF7A8F9A16820681B
:1030D00050F8210040F00100A268216841F8220068
:1030E0000020D9E710B586B0044600BF002000904C
:1030F0002248006840F00100204908600846006846
:1031000000F00100009000BF00BF00BF0020009051
:103110001A480838006840F0080018490839086063
:103120000846006800F00800009000BF00BF00BF24
:10313000002000900846006840F010000860084633
:10314000006800F01000009000BF00BF4CF2037058
:1031500001900220029001200390022004900C2094
:10316000059001A90648FFF737FA4FF680700190E5
:1031700001A90448FFF730FA06B010BD3838024004
:10318000000C024000100240042808D14FF0E0215A
:10319000096941F004014FF0E022116107E04FF0AE
:1031A000E021096921F004014FF0E022116170472C
:1031B00070B504462546681EB0F1807F01D301201A
:1031C0000FE0681E4FF0E02148610F214FF0FF3003
:1031D00000F086FC00204FF0E021886107200861A4
:1031E000002070BD7047704701460022002391F80F
:1031F0003D2091F83E3042EA030070472DE9F84F38
:103200000446206805682068C668206847694FF052
:103210000009CA4605F00F09B9F1000F0AD105F0FF
:10322000200038B106F0200020B1204600F05DFA01
:10323000BDE8F88FB9F1000F72D007F0010018B99E
:1032400006F4907000286BD005F0010030B106F450
:10325000807018B1206C40F00100206405F004007B
:1032600030B107F0010018B1206C40F0020020647A
:1032700005F0020030B107F0010018B1206C40F0F9
:103280000400206405F0080048B106F0200010B9E1
:1032900007F0010018B1206C40F008002064206C99
:1032A00070B305F0200028B106F0200010B12046D0
:1032B00000F01BFA20684069C0F3801A206C00F00F
:1032C000080010B9BAF1000F23D0204600F0E2F94F
:1032D0002068406900F04000402816D1206840690D
:1032E00020F0400021684861A06B50B15648A16BA6
:1032F0000865A06BFFF75BF910B1A06B016D884703
:103300000CE02046FFF76FFF08E02046FFF76BFF59
:1033100004E02046FFF767FF0020206488E7FFE70E
:10332000206B012879D105F01000002875D006F037
:103330001000002871D000BF0020009020680068B5
:10334000009020684068009000BF00BF206840697E
:1033500000F04000402839D1A06B006840681FFA97
:1033600080F8B8F1000F30D0A08D40452DDDA4F8D5
:103370002E80A06BC069B0F5807F1FD02068C06828
:1033800020F480702168C8602068406920F0010046
:10339000216848612068406920F040002168486148
:1033A000202084F83E00002020632068C06820F0C0
:1033B00010002168C860A06BFFF7A4F8A08DE28D13
:1033C000801A81B22046FFF70DFF31E7A08DE18D15
:1033D000401A1FFA80F8E08DE8B1B8F1000F1AD05A
:1033E0002068C06820F490702168C8602068406937
:1033F00020F0010021684861202084F83E00002070
:1034000020632068C06820F010002168C860414631
:103410002046FFF7E7FE0BE7FFE705F0800030B13D
:1034200006F0800018B1204600F0F7FA00E705F03A
:10343000400030B106F0400018B1204600F045F9D8
:10344000F6E600BFF4E600007519000810B5044662
:103450000CB9012010BDA06900B100E000BF94F8D4
:103460003D0028B9002084F83C00204600F028F8F0
:10347000242084F83D002068C06820F400502168B2
:10348000C860204600F090F92068006920F4904060
:10349000216808612068406920F02A00216848619D
:1034A0002068C06840F400502168C8600020206493
:1034B000202084F83D0084F83E000020CAE7000088
:1034C00010B586B004462D492068884254D100BF0B
:1034D00000BF002000902A48006840F010002849F2
:1034E00008600846006800F01000009000BF00BFB0
:1034F00000BF00BF00BF00200090214814380068C2
:1035000040F002001E49143908600846006800F0C7
:103510000200009000BF00BF00BF00BF00BF00203E
:1035200000900846006840F0020008600846006805
:1035300000F00200009000BF00BF00BF40200190DB
:1035400002200290012003900220049007200590A1
:1035500001A90C48FFF740F8802001900720059052
:1035600001A90848FFF738F82520FFF79EF9032244
:1035700011462520FFF7A9F906B010BD0010014043
:10358000443802400004024070B504460D46164619
:1035900094F83E00202816D105B10EB9012070BD67
:1035A00000BF94F83C00012801D10220F7E7012078
:1035B00084F83C0000BF00202063324629462046A4
:1035C00000F008FAEBE70220E9E700001D4A016875
:1035D000914236D11C49098801F4004189BB1A493E
:1035E000098801F4804171B1184909780A2903D08A
:1035F0000021154A118024E01349098841F4004153
:10360000114A11801DE0114909780D2906D10E4992
:10361000098841F480410C4A118012E00B49097875
:10362000094A1288C2F30D02094B995406490988C8
:10363000491C054A118011460988C72901DD00216E
:1036400011807047001001400C0000200E00002087
:1036500024000020704700BFFEE700BFFEE7704770
:103660007047704710B5FFF7D5F810BD03480068E4
:1036700040F47000014908607047000088ED00E0E8
:1036800070B50546AC6B0020E085E0842046FFF76E
:10369000AAFD70BD0168C96821F490710268D1600B
:1036A0000168496921F0010102685161016B01293A
:1036B00005D10168C96821F010010268D16020219C
:1036C00080F83E1000210163704710B50446206861
:1036D000C06820F040002168C860202084F83D00C8
:1036E0002046FFF7B7FF002010BD70B5044694F8E0
:1036F0003E00222856D1A068B0F5805F0CD1206929
:1037000050B90025A66A20684068C0F308003080E0
:10371000A06A801CA06215E0A56A0026A068B0F52A
:10372000805F03D0A06828B9206918B92068406874
:10373000287004E02068406800F07F002870A06ACC
:10374000401CA062E08D401E80B2E08540BB206836
:10375000C06820F020002168C8602068C06820F49C
:1037600080702168C8602068406920F001002168ED
:103770004861202084F83E00206B01280AD120688F
:10378000C06820F010002168C860A18D2046FFF7B6
:1037900029FD02E02046FFF719FF0020206370BDDD
:1037A0000020FCE70220FAE72DE9F84F04462068E4
:1037B000006920F44050E1680843216808612169EC
:1037C000A068084361690843E169084300902068E4
:1037D000C06849F20C618843009908432168C860B9
:1037E0002068406920F44070A1690843216848615D
:1037F00076492068884203D075492068884203D101
:10380000FFF78EF9814602E0FFF77AF98146E06919
:10381000B0F5004F6CD102206168A0FB0150034657
:103820001920A9FB007001462A463846FEF7A7FB7F
:103830006421B0FBF1F04FEA001A02206168A0FB9E
:1038400001510B461920A9FB00712A463846FEF7A4
:1038500096FB834602206168A0FB015003461920B5
:10386000A9FB00712A463846FEF789FB6421B0FBAC
:10387000F1F000EBC00101EB0010ABEB8000322156
:1038800001EBC0006421B0FBF1F000F0F8000AEB9E
:10389000400A02206168A0FB015003461920A9FBE1
:1038A000007001462A463846FEF769FB834602202F
:1038B0006168A0FB015003461920A9FB00712A464C
:1038C0003846FEF75CFB6421B0FBF1F000EBC00171
:1038D00001EB0010ABEB8000322101EBC000642152
:1038E000B0FBF1F000F007005044216888606AE006
:1038F00004206168A0FB015003461920A9FB007059
:1039000001462A463846FEF73AFB824604206168A3
:10391000A0FB015003461920A9FB007001462A466E
:103920003846FEF72CFB6421B0FBF1F000EBC00140
:1039300001EB0010AAEB8000322101EB00106421A2
:10394000B0FBF1F000F0F00A04206168A0FB017008
:1039500003461920A9FB00513A462846FEF70FFB03
:103960006421B0FBF1F00AEB001A04206168A0FBAF
:1039700001510B461920A9FB00712A463846FEF773
:10398000FEFA834604206168A0FB0150034619201B
:10399000A9FB007001462A463846FEF7F0FA64217A
:1039A000B0FBF1F000EBC00101EB0010ABEB8000CD
:1039B000322101EB00106421B0FBF1F000F00F00A8
:1039C000504421688860BDE8F88F00000010014075
:1039D0000014014010B5034699629A85DA850020EB
:1039E0001864222083F83E0000BF002083F83C00CA
:1039F00000BF1868C06840F480701C68E0601868F8
:103A0000406940F001001C6860611868C06840F0BF
:103A100020001C68E060002010BD014691F83D00C8
:103A2000212828D18868B0F5805F0BD1086948B992
:103A30000A6A1088C0F308000B685860086A801C86
:103A4000086205E00B6A581C086218780B68586019
:103A5000C88C401E80B2C88458B90868C06820F07D
:103A600080000B68D8600868C06840F040000B68B0
:103A7000D860002070470220FCE7000070B50024E9
:103A80000F4D1048FFF7BAFB00BF03E0641CAC42C7
:103A900000D904E00B48FFF7A7FB2028F6D100BFB0
:103AA000002403E0641CAC4200D906E00122064970
:103AB0000448FFF769FD0028F4D100BF70BD000085
:103AC000FFFF0100EC0000200E00002000BFFEE719
:103AD00002480068C0F30220704700000CED00E0CF
:103AE00010B5002804DB0A07130E054A135406E03C
:103AF0000A07140E034A00F00F031B1FD45410BD15
:103B000000E400E018ED00E030380A2801D201207E
:103B100070470020704700BF7047000010B5044692
:103B20000420FFF731FB0148046010BD04000020B1
:103B300070B504461E2094FBF0F594FBF0F100FBF9
:103B4000114604E047F2305000F00CF86D1E002DD5
:103B5000F8D12EB14FF47A7106FB01F000F002F8B3
:103B600070BD000070B5034600224FF0E026756975
:103B70000D4E366803FB06F44FF0E026B16910E005
:103B80004FF0E026B06988420BD0884202D20E1A6C
:103B9000324402E02E1A0E4432440146A24200D3BF
:103BA00000E0EDE700BF70BD0400002000BF054A43
:103BB000126802F04002002AF9D0C2B2014B5A60EA
:103BC000704700000010014070B504460026094807
:103BD0000588408845430021084602F079FD02F03F
:103BE00025FF00BF02E004480480761CAE42FAD3F1
:103BF00070BD0000800100200008006C10B5044674
:103C000049488471002C45D1F020474908804FF481
:103C1000A07048800846808845F21051884210D133
:103C20004FF43050404908814FF4285048814FF4F8
:103C30002C5088814FF4F07008804FF44870488011
:103C40001AE03948808841F6631188420DD12C2052
:103C5000354908812B2048812A2088814FF4F07053
:103C600008804FF44870488006E02C202E490881D7
:103C70002A2048812B2088812B48808845F21031EA
:103C800088424CD14FF4A070274908804FF4F0705F
:103C9000488044E04FF4A07023490880F020488019
:103CA0000846808845F21051884210D14FF43050B8
:103CB0001D4908814FF4285048814FF42C508881C9
:103CC0004FF4487008804FF4F07048801AE01648AE
:103CD000808841F6631188420DD12C201249088159
:103CE0002A2048812B2088814FF4487008804FF4A7
:103CF000F070488006E02C200B4908812A2048817A
:103D00002B2088810848808845F21031884206D1EE
:103D10004FF4F070044908804FF4A07048800020F0
:103D200002F0BEFB10BD00008001002070B505460A
:103D30000E4614463146284602F0CAFC02F076FED2
:103D400001490C8070BD00000008006C10B5CF2048
:103D500002F060FE002002F051FEC12002F04EFE93
:103D6000302002F04BFEED2002F054FE642002F001
:103D700045FE032002F042FE122002F03FFE8120A9
:103D800002F03CFEE82002F045FE852002F036FEFF
:103D9000102002F033FE7A2002F030FECB2002F039
:103DA00039FE392002F02AFE2C2002F027FE0020E6
:103DB00002F024FE342002F021FE022002F01EFE5A
:103DC000F72002F027FE202002F018FEEA2002F081
:103DD00021FE002002F012FE002002F00FFEC020A3
:103DE00002F018FE1B2002F009FEC12002F012FEB4
:103DF000012002F003FEC52002F00CFE302002F08C
:103E0000FDFD302002F0FAFDC72002F003FEB720CE
:103E100002F0F4FD362002F0FDFD482002F0EEFD38
:103E20003A2002F0F7FD552002F0E8FDB12002F043
:103E3000F1FD002002F0E2FD1A2002F0DFFDB620C5
:103E400002F0E8FD0A2002F0D9FDA22002F0D6FD22
:103E5000F22002F0DFFD002002F0D0FD262002F06B
:103E6000D9FD012002F0CAFDE02002F0D3FD0F20B1
:103E700002F0C4FD2A2002F0C1FD282002F0BEFDA0
:103E8000082002F0BBFD0E2002F0B8FD082002F071
:103E9000B5FD542002F0B2FDA92002F0AFFD432091
:103EA00002F0ACFD0A2002F0A9FD0F2002F0A6FDF1
:103EB000002002F0A3FD002002F0A0FD002002F08F
:103EC0009DFD002002F09AFDE12002F0A3FD0020FC
:103ED00002F094FD152002F091FD172002F08EFDF6
:103EE000072002F08BFD112002F088FD062002F071
:103EF00085FD2B2002F082FD562002F07FFD3C2044
:103F000002F07CFD052002F079FD102002F076FD24
:103F10000F2002F073FD3F2002F070FD3F2002F001
:103F20006DFD0F2002F06AFD2B2002F073FD0020D2
:103F300002F064FD002002F061FD012002F05EFD50
:103F40003F2002F05BFD2A2002F064FD002002F019
:103F500055FD002002F052FD002002F04FFDEF2041
:103F600002F04CFD112002F055FD7820FFF7E0FD36
:103F7000292002F04FFD10BD10B5ED2002F04AFDE2
:103F8000012002F03BFDFE2002F038FDEE2002F0A1
:103F900041FDDE2002F032FD212002F02FFDF12054
:103FA00002F038FD012002F029FDDF2002F032FD91
:103FB000102002F023FDC42002F02CFD8F2002F01F
:103FC0001DFDC62002F026FD002002F017FDE220B4
:103FD00002F014FDE22002F011FDE22002F00EFDDD
:103FE000BF2002F017FDAA2002F008FDB02002F069
:103FF00011FD0D2002F002FD002002F0FFFC0D205B
:1040000002F0FCFC002002F0F9FC112002F0F6FCAA
:10401000002002F0F3FC192002F0F0FC002002F076
:10402000EDFC212002F0EAFC002002F0E7FC2D204C
:1040300002F0E4FC002002F0E1FC3D2002F0DEFC96
:10404000002002F0DBFC5D2002F0D8FC002002F032
:10405000D5FC5D2002F0D2FC002002F0CFFCB120A4
:1040600002F0D8FC802002F0C9FC002002F0C6FC5F
:104070008B2002F0C3FC002002F0C0FC962002F06E
:10408000BDFC002002F0BAFCB22002F0C3FC00200C
:1040900002F0B4FC002002F0B1FC022002F0AEFC01
:1040A000002002F0ABFC032002F0A8FC002002F08C
:1040B000A5FCB32002F0AEFC002002F09FFC002023
:1040C00002F09CFC002002F099FC002002F096FC1B
:1040D000002002F093FC002002F090FC002002F08F
:1040E0008DFC002002F08AFC002002F087FC0020FA
:1040F00002F084FC002002F081FC002002F07EFC33
:10410000002002F07BFC002002F078FC002002F08E
:1041100075FC002002F072FC002002F06FFC002011
:1041200002F06CFC002002F069FC002002F066FC4A
:10413000002002F063FC002002F060FC002002F08E
:104140005DFC002002F05AFCB42002F063FC8B20DE
:1041500002F054FC002002F051FC962002F04EFCCC
:10416000002002F04BFCA12002F048FC002002F0ED
:1041700045FCB52002F04EFC022002F03FFC00207E
:1041800002F03CFC032002F039FC002002F036FC77
:10419000042002F033FC002002F030FCB62002F0D4
:1041A00039FC002002F02AFC002002F027FCB72096
:1041B00002F030FC002002F021FC002002F01EFC86
:1041C0003F2002F01BFC002002F018FC5E2002F0F1
:1041D00015FC002002F012FC642002F00FFC00200D
:1041E00002F00CFC8C2002F009FC002002F006FC1E
:1041F000AC2002F003FC002002F000FCDC2002F006
:10420000FDFB002002F0FAFB702002F0F7FB00201B
:1042100002F0F4FB902002F0F1FB002002F0EEFB34
:10422000EB2002F0EBFB002002F0E8FBDC2002F0C8
:10423000E5FB002002F0E2FBB82002F0EBFB0020DF
:1042400002F0DCFB002002F0D9FB002002F0D6FBDC
:10425000002002F0D3FB002002F0D0FB002002F08F
:10426000CDFB002002F0CAFB002002F0C7FBBA2001
:1042700002F0D0FB242002F0C1FB002002F0BEFBC4
:10428000002002F0BBFB002002F0B8FBC12002F0CE
:10429000C1FB202002F0B2FB002002F0AFFB542053
:1042A00002F0ACFB002002F0A9FBFF2002F0A6FB0D
:1042B000002002F0A3FBC22002F0ACFB0A2002F0B7
:1042C0009DFB002002F09AFB042002F097FB0020E7
:1042D00002F094FBC32002F09DFB3C2002F08EFB19
:1042E000002002F08BFB3A2002F088FB002002F055
:1042F00085FB392002F082FB002002F07FFB372093
:1043000002F07CFB002002F079FB3C2002F076FBFF
:10431000002002F073FB362002F070FB002002F058
:104320006DFB322002F06AFB002002F067FB2F20B9
:1043300002F064FB002002F061FB2C2002F05EFB27
:10434000002002F05BFB292002F058FB002002F065
:1043500055FB262002F052FB002002F04FFB2420E8
:1043600002F04CFB002002F049FB242002F046FB47
:10437000002002F043FB232002F040FB002002F06B
:104380003DFB3C2002F03AFB002002F037FB3620D8
:1043900002F034FB002002F031FB322002F02EFB51
:1043A000002002F02BFB2F2002F028FB002002F05F
:1043B00025FB2C2002F022FB002002F01FFB29200D
:1043C00002F01CFB002002F019FB262002F016FB75
:1043D000002002F013FB242002F010FB002002F06A
:1043E0000DFB242002F00AFB002002F007FB232033
:1043F00002F004FB002002F001FBC42002F00AFBE3
:10440000622002F0FBFA002002F0F8FA052002F028
:10441000F5FA002002F0F2FA842002F0EFFA002010
:1044200002F0ECFAF02002F0E9FA002002F0E6FADD
:10443000182002F0E3FA002002F0E0FAA42002F0D3
:10444000DDFA002002F0DAFA182002F0D7FA002094
:1044500002F0D4FA502002F0D1FA002002F0CEFA95
:104460000C2002F0CBFA002002F0C8FA172002F06C
:10447000C5FA002002F0C2FA952002F0BFFA00202F
:1044800002F0BCFAF32002F0B9FA002002F0B6FA0A
:10449000E62002F0B3FA002002F0B0FAC52002F0E4
:1044A000B9FA322002F0AAFA002002F0A7FA44205A
:1044B00002F0A4FA002002F0A1FA652002F09EFAB0
:1044C000002002F09BFA762002F098FA002002F019
:1044D00095FA882002F092FA002002F08FFAC620A6
:1044E00002F098FA202002F089FA002002F086FA01
:1044F000172002F083FA002002F080FA012002F077
:104500007DFA002002F07AFAC72002F083FA002038
:1045100002F074FA002002F071FA002002F06EFA44
:10452000002002F06BFAC82002F074FA002002F0BA
:1045300065FA002002F062FA002002F05FFA002023
:1045400002F05CFAC92002F065FA002002F056FA87
:10455000002002F053FA002002F050FA002002F08E
:104560004DFA002002F04AFA002002F047FA00203B
:1045700002F044FA002002F041FA002002F03EFA74
:10458000002002F03BFA002002F038FA002002F08E
:1045900035FA002002F032FA002002F02FFA002053
:1045A00002F02CFA002002F029FAE02002F032FAA0
:1045B000162002F023FA002002F020FA1C2002F05C
:1045C0001DFA002002F01AFA212002F017FA00204A
:1045D00002F014FA362002F011FA002002F00EFA6E
:1045E000462002F00BFA002002F008FA522002F0F6
:1045F00005FA002002F002FA642002F0FFF9002020
:1046000002F0FCF97A2002F0F9F9002002F0F6F944
:104610008B2002F0F3F9002002F0F0F9992002F06B
:10462000EDF9002002F0EAF9A82002F0E7F90020F5
:1046300002F0E4F9B92002F0E1F9002002F0DEF91D
:10464000C42002F0DBF9002002F0D8F9CA2002F001
:10465000D5F9002002F0D2F9D22002F0CFF90020E3
:1046600002F0CCF9D92002F0C9F9002002F0C6F915
:10467000E02002F0C3F9002002F0C0F9F32002F0BC
:10468000BDF9002002F0BAF9E12002F0C3F91620CA
:1046900002F0B4F9002002F0B1F91C2002F0AEF9EA
:1046A000002002F0ABF9222002F0A8F9002002F06D
:1046B000A5F9362002F0A2F9002002F09FF945206A
:1046C00002F09CF9002002F099F9522002F096F9CC
:1046D000002002F093F9642002F090F9002002F02B
:1046E0008DF97A2002F08AF9002002F087F98B20F8
:1046F00002F084F9002002F081F9992002F07EF99D
:10470000002002F07BF9A82002F078F9002002F0E6
:1047100075F9B92002F072F9002002F06FF9C42097
:1047200002F06CF9002002F069F9CA2002F066F983
:10473000002002F063F9D22002F060F9002002F0BC
:104740005DF9D82002F05AF9002002F057F9E02074
:1047500002F054F9002002F051F9F32002F04EF972
:10476000002002F04BF9E22002F054F9052002F09B
:1047700045F9002002F042F90B2002F03FF9002039
:1047800002F03CF91B2002F039F9002002F036F962
:10479000342002F033F9002002F030F9442002F016
:1047A0002DF9002002F02AF94F2002F027F900200D
:1047B00002F024F9612002F021F9002002F01EF934
:1047C000792002F01BF9002002F018F9882002F08D
:1047D00015F9002002F012F9972002F00FF90020DD
:1047E00002F00CF9A62002F009F9002002F006F907
:1047F000B72002F003F9002002F000F9C22002F015
:10480000FDF8002002F0FAF8C72002F0F7F80020C7
:1048100002F0F4F8D12002F0F1F8002002F0EEF8F6
:10482000D62002F0EBF8002002F0E8F8DD2002F0DC
:10483000E5F8002002F0E2F8F32002F0DFF80020B3
:1048400002F0DCF8E32002F0E5F8052002F0D6F8EB
:10485000002002F0D3F80A2002F0D0F8002002F085
:10486000CDF81C2002F0CAF8002002F0C7F833206F
:1048700002F0C4F8002002F0C1F8442002F0BEF8B3
:10488000002002F0BBF8502002F0B8F8002002F03F
:10489000B5F8622002F0B2F8002002F0AFF87820FC
:1048A00002F0ACF8002002F0A9F8882002F0A6F887
:1048B000002002F0A3F8972002F0A0F8002002F0F8
:1048C0009DF8A62002F09AF8002002F097F8B72091
:1048D00002F094F8002002F091F8C22002F08EF865
:1048E000002002F08BF8C72002F088F8002002F0C8
:1048F00085F8D12002F082F8002002F07FF8D52060
:1049000002F07CF8002002F079F8DD2002F076F861
:10491000002002F073F8F32002F070F8002002F09B
:104920006DF8E42002F076F8012002F067F800202C
:1049300002F064F8012002F061F8002002F05EF855
:10494000022002F05BF8002002F058F82A2002F062
:1049500055F8002002F052F83C2002F04FF80020F9
:1049600002F04CF84B2002F049F8002002F046F823
:104970005D2002F043F8002002F040F8742002F0BD
:104980003DF8002002F03AF8842002F037F80020C9
:1049900002F034F8932002F031F8002002F02EF8F3
:1049A000A22002F02BF8002002F028F8B32002F039
:1049B00025F8002002F022F8BE2002F01FF80020A7
:1049C00002F01CF8C42002F019F8002002F016F8DA
:1049D000CD2002F013F8002002F010F8D32002F0EE
:1049E0000DF8002002F00AF8DD2002F007F80020A0
:1049F00002F004F8F32002F001F8002001F0FEFFBD
:104A0000E52002F007F8002001F0F8FF002001F097
:104A1000F5FF002001F0F2FF002001F0EFFF02207F
:104A200001F0ECFF002001F0E9FF292001F0E6FF92
:104A3000002001F0E3FF3C2001F0E0FF002001F046
:104A4000DDFF4B2001F0DAFF002001F0D7FF5D20F1
:104A500001F0D4FF002001F0D1FF742001F0CEFF5F
:104A6000002001F0CBFF842001F0C8FF002001F0FE
:104A7000C5FF932001F0C2FF002001F0BFFFA2207C
:104A800001F0BCFF002001F0B9FFB32001F0B6FF38
:104A9000002001F0B3FFBE2001F0B0FF002001F0C4
:104AA000ADFFC42001F0AAFF002001F0A7FFCD2038
:104AB00001F0A4FF002001F0A1FFD32001F09EFF30
:104AC000002001F09BFFDC2001F098FF002001F0A6
:104AD00095FFF32001F092FF002001F08FFFE62008
:104AE00001F098FF112001F089FF002001F086FFFE
:104AF000342001F083FF002001F080FF562001F0F8
:104B00007DFF002001F07AFF762001F077FF002082
:104B100001F074FF772001F071FF002001F06EFFBB
:104B2000662001F06BFF002001F068FF882001F093
:104B300065FF002001F062FF992001F05FFF002077
:104B400001F05CFFBB2001F059FF002001F056FF8F
:104B5000992001F053FF002001F050FF662001F082
:104B60004DFF002001F04AFF552001F047FF0020D3
:104B700001F044FF552001F041FF002001F03EFF0D
:104B8000452001F03BFF002001F038FF432001F0F9
:104B900035FF002001F032FF442001F02FFF0020FC
:104BA00001F02CFFE72001F035FF322001F026FF55
:104BB000002001F023FF552001F020FF002001F02C
:104BC0001DFF762001F01AFF002001F017FF66207C
:104BD00001F014FF002001F011FF672001F00EFF2B
:104BE000002001F00BFF672001F008FF002001F01A
:104BF00005FF872001F002FF002001F0FFFE992051
:104C000001F0FCFE002001F0F9FEBB2001F0F6FEF1
:104C1000002001F0F3FE992001F0F0FE002001F0E9
:104C2000EDFE772001F0EAFE002001F0E7FE4420CF
:104C300001F0E4FE002001F0E1FE562001F0DEFE6E
:104C4000002001F0DBFE232001F0D8FE002001F05F
:104C5000D5FE332001F0D2FE002001F0CFFE45202A
:104C600001F0CCFE002001F0C9FEE82001F0D2FEE8
:104C7000002001F0C3FE002001F0C0FE992001F0E9
:104C8000BDFE002001F0BAFE872001F0B7FE002033
:104C900001F0B4FE882001F0B1FE002001F0AEFE6C
:104CA000772001F0ABFE002001F0A8FE662001F0A5
:104CB000A5FE002001F0A2FE882001F09FFE00204A
:104CC00001F09CFEAA2001F099FE002001F096FE62
:104CD000BB2001F093FE002001F090FE992001F02E
:104CE0008DFE002001F08AFE662001F087FE002084
:104CF00001F084FE552001F081FE002001F07EFECF
:104D0000552001F07BFE002001F078FE442001F0E8
:104D100075FE002001F072FE442001F06FFE0020BD
:104D200001F06CFE552001F069FE002001F066FEE6
:104D3000E92001F06FFEAA2001F060FE002001F0E2
:104D40005DFE002001F05AFE002001F057FE002019
:104D500001F060FEAA2001F051FECF2001F05AFEC2
:104D6000002001F04BFE002001F048FE002001F081
:104D700045FE002001F042FE002001F03FFE002031
:104D800001F03CFE002001F039FE002001F036FE6B
:104D9000002001F033FE002001F030FE002001F081
:104DA0002DFE002001F02AFE002001F027FE002049
:104DB00001F024FE002001F021FE002001F01EFE83
:104DC000002001F01BFEF02001F024FE002001F085
:104DD00015FE502001F012FE002001F00FFE002011
:104DE00001F00CFE002001F009FEF32001F012FE9C
:104DF000002001F003FEF92001F00CFE062001F076
:104E0000FDFD102001F0FAFD292001F0F7FD002042
:104E100001F0F4FD3A2001F0FDFD552001F0EEFD1A
:104E2000112001F0F7FD6420FEF782FE292001F039
:104E3000F1FD352001F0EEFD002001F0DFFD5120F5
:104E400001F0E8FDFF2001F0D9FD532001F0E2FD63
:104E50002C2001F0D3FD552001F0DCFD822001F073
:104E6000CDFD2C2001F0D6FD10BD10B555214FF41D
:104E7000704001F0E5FDAA214FF2010001F0E0FDD4
:104E800052214FF2020001F0DBFD08214FF2030036
:104E900001F0D6FD01214FF2040001F0D1FD0D21FA
:104EA0004FF4304001F0CCFD0D214BF2010001F038
:104EB000C7FD0D214BF2020001F0C2FD34214FF479
:104EC000364001F0BDFD34214BF2016001F0B8FD28
:104ED00034214BF2026001F0B3FD0D214FF431405B
:104EE00001F0AEFD0D214BF2011001F0A9FD0D21E5
:104EF0004BF2021001F0A4FD34214FF4374001F0D1
:104F00009FFD34214BF2017001F09AFD34214BF2E8
:104F1000027001F095FD00214FF4324001F090FD48
:104F200000214BF2012001F08BFD00214BF2022009
:104F300001F086FD24214FF4384001F081FD242149
:104F40004BF6010001F07CFD24214BF6020001F03C
:104F500077FD01214FF43F4001F072FD0F214FF426
:104F6000334001F06DFD0F214BF2013001F068FD7F
:104F70000F214BF2023001F063FD34214FF4394030
:104F800001F05EFD34214BF6011001F059FD342192
:104F90004BF6021001F054FD08214FF4354001F0AA
:104FA0004FFD08214BF2015001F04AFD08214BF260
:104FB000025001F045FD03214FF4424001F040FD55
:104FC00024214FF43A4001F03BFD24214BF601200F
:104FD00001F036FD24214BF6022001F031FD0021C5
:104FE0004FF43C4001F02CFD78214BF6014001F0DC
:104FF00027FD00214BF6024001F022FD00214FF475
:105000003D4001F01DFD78214BF6015001F018FDE7
:1050100000214BF6025001F013FD00214FF43E40F9
:1050200001F00EFD64214BF6016001F009FD002145
:105030004FF4514001F004FD33214DF2011001F015
:10504000FFFC00214DF2021001F0FAFC34214DF278
:10505000031001F0F5FC00214DF2041001F0F0FC0A
:105060003A214DF2051001F0EBFC00214DF2061043
:1050700001F0E6FC4A214DF2071001F0E1FC0021AD
:105080004DF2081001F0DCFC5C214DF2091001F03A
:10509000D7FC00214DF20A1001F0D2FC81214DF223
:1050A0000B1001F0CDFC00214DF20C1001F0C8FCFA
:1050B000A6214DF20D1001F0C3FC00214DF20E109F
:1050C00001F0BEFCE5214DF20F1001F0B9FC012109
:1050D0004DF2101001F0B4FC13214DF2111001F04B
:1050E000AFFC01214DF2121001F0AAFC54214DF247
:1050F000131001F0A5FC01214DF2141001F0A0FCE9
:1051000082214DF2151001F09BFC01214DF2161089
:1051100001F096FCCA214DF2171001F091FC02211A
:105120004DF2181001F08CFC00214DF2191001F025
:1051300087FC02214DF21A1001F082FC01214DF290
:105140001B1001F07DFC02214DF21C1001F078FCD7
:1051500034214DF21D1001F073FC02214DF21E109E
:1051600001F06EFC67214DF21F1001F069FC022175
:105170004DF2201001F064FC84214DF2211001F069
:105180005FFC02214DF2221001F05AFCA4214DF2E5
:10519000231001F055FC02214DF2241001F050FCC7
:1051A000B7214DF2251001F04BFC02214DF22610E3
:1051B00001F046FCCF214DF2271001F041FC022105
:1051C0004DF2281001F03CFCDE214DF2291001F0D7
:1051D00037FC02214DF22A1001F032FCF2214DF28F
:1051E0002B1001F02DFC02214DF22C1001F028FCB7
:1051F000FE214DF22D1001F023FC03214DF22E1063
:1052000001F01EFC10214DF22F1001F019FC0321BA
:105210004DF2301001F014FC33214DF2311001F049
:105220000FFC03214DF2321001F00AFC6D214DF20A
:10523000331001F005FC00214FF4524001F000FC56
:1052400033214DF2012001F0FBFB00214DF2022041
:1052500001F0F6FB34214DF2032001F0F1FB0021B7
:105260004DF2042001F0ECFB3A214DF2052001F053
:10527000E7FB00214DF2062001F0E2FB4A214DF24E
:10528000072001F0DDFB00214DF2082001F0D8FBE2
:105290005C214DF2092001F0D3FB00214DF20A20E0
:1052A00001F0CEFB81214DF20B2001F0C9FB002162
:1052B0004DF20C2001F0C4FBA6214DF20D2001F0AF
:1052C000BFFB00214DF20E2001F0BAFBE5214DF2AB
:1052D0000F2001F0B5FB01214DF2102001F0B0FBD1
:1052E00013214DF2112001F0ABFB01214DF21220F0
:1052F00001F0A6FB54214DF2132001F0A1FB012186
:105300004DF2142001F09CFB82214DF2152001F09A
:1053100097FB01214DF2162001F092FBCA214DF2BC
:10532000172001F08DFB02214DF2182001F088FBBF
:1053300000214DF2192001F083FB02214DF21A20C9
:1053400001F07EFB01214DF21B2001F079FB0221CF
:105350004DF21C2001F074FB34214DF21D2001F0B0
:105360006FFB02214DF21E2001F06AFB67214DF216
:105370001F2001F065FB02214DF2202001F060FBAF
:1053800084214DF2212001F05BFB02214DF222200D
:1053900001F056FBA4214DF2232001F051FB022124
:1053A0004DF2242001F04CFBB7214DF2252001F0F5
:1053B00047FB02214DF2262001F042FBCF214DF2A6
:1053C000272001F03DFB02214DF2282001F038FB9F
:1053D000DE214DF2292001F033FB02214DF22A207B
:1053E00001F02EFBF2214DF22B2001F029FB0221CE
:1053F0004DF22C2001F024FBFE214DF22D2001F076
:105400001FFB03214DF22E2001F01AFB10214DF25B
:105410002F2001F015FB03214DF2302001F010FB8D
:1054200033214DF2312001F00BFB03214DF23220EC
:1054300001F006FB6D214DF2332001F001FB00214C
:105440004FF4534001F0FCFA33214DF2013001F0EA
:10545000F7FA00214DF2023001F0F2FA34214DF258
:10546000033001F0EDFA00214DF2043001F0E8FACA
:105470003A214DF2053001F0E3FA00214DF20630F9
:1054800001F0DEFA4A214DF2073001F0D9FA00218D
:105490004DF2083001F0D4FA5C214DF2093001F0F0
:1054A000CFFA00214DF20A3001F0CAFA81214DF203
:1054B0000B3001F0C5FA00214DF20C3001F0C0FABA
:1054C000A6214DF20D3001F0BBFA00214DF20E3055
:1054D00001F0B6FAE5214DF20F3001F0B1FA0121E9
:1054E0004DF2103001F0ACFA13214DF2113001F001
:1054F000A7FA01214DF2123001F0A2FA54214DF227
:10550000133001F09DFA01214DF2143001F098FAA8
:1055100082214DF2153001F093FA01214DF216303F
:1055200001F08EFACA214DF2173001F089FA0221FA
:105530004DF2183001F084FA00214DF2193001F0DB
:105540007FFA02214DF21A3001F07AFA01214DF270
:105550001B3001F075FA02214DF21C3001F070FA97
:1055600034214DF21D3001F06BFA02214DF21E3054
:1055700001F066FA67214DF21F3001F061FA022155
:105580004DF2203001F05CFA84214DF2213001F01F
:1055900057FA02214DF2223001F052FAA4214DF2C5
:1055A000233001F04DFA02214DF2243001F048FA87
:1055B000B7214DF2253001F043FA02214DF2263099
:1055C00001F03EFACF214DF2273001F039FA0221E5
:1055D0004DF2283001F034FADE214DF2293001F08D
:1055E0002FFA02214DF22A3001F02AFAF2214DF26F
:1055F0002B3001F025FA02214DF22C3001F020FA77
:10560000FE214DF22D3001F01BFA03214DF22E3018
:1056100001F016FA10214DF22F3001F011FA03219A
:105620004DF2303001F00CFA33214DF2313001F0FF
:1056300007FA03214DF2323001F002FA6D214DF2EA
:10564000333001F0FDF900214FF4544001F0F8F936
:1056500033214DF2014001F0F3F900214DF20240F7
:1056600001F0EEF934214DF2034001F0E9F9002197
:105670004DF2044001F0E4F93A214DF2054001F009
:10568000DFF900214DF2064001F0DAF94A214DF22E
:10569000074001F0D5F900214DF2084001F0D0F9A2
:1056A0005C214DF2094001F0CBF900214DF20A4096
:1056B00001F0C6F981214DF20B4001F0C1F9002142
:1056C0004DF20C4001F0BCF9A6214DF20D4001F065
:1056D000B7F900214DF20E4001F0B2F9E5214DF28B
:1056E0000F4001F0ADF901214DF2104001F0A8F991
:1056F00013214DF2114001F0A3F901214DF21240A6
:1057000001F09EF954214DF2134001F099F9012165
:105710004DF2144001F094F982214DF2154001F050
:105720008FF901214DF2164001F08AF9CA214DF29C
:10573000174001F085F902214DF2184001F080F97F
:1057400000214DF2194001F07BF902214DF21A407F
:1057500001F076F901214DF21B4001F071F90221AF
:105760004DF21C4001F06CF934214DF21D4001F066
:1057700067F902214DF21E4001F062F967214DF2F6
:105780001F4001F05DF902214DF2204001F058F96F
:1057900084214DF2214001F053F902214DF22240C3
:1057A00001F04EF9A4214DF2234001F049F9022104
:1057B0004DF2244001F044F9B7214DF2254001F0AB
:1057C0003FF902214DF2264001F03AF9CF214DF286
:1057D000274001F035F902214DF2284001F030F95F
:1057E000DE214DF2294001F02BF902214DF22A4031
:1057F00001F026F9F2214DF22B4001F021F90221AE
:105800004DF22C4001F01CF9FE214DF22D4001F02B
:1058100017F903214DF22E4001F012F910214DF23B
:105820002F4001F00DF903214DF2304001F008F94D
:1058300033214DF2314001F003F903214DF23240A2
:1058400001F0FEF86D214DF2334001F0F9F800212E
:105850004FF4554001F0F4F833214DF2015001F0BE
:10586000EFF800214DF2025001F0EAF834214DF238
:10587000035001F0E5F800214DF2045001F0E0F88A
:105880003A214DF2055001F0DBF800214DF20650AF
:1058900001F0D6F84A214DF2075001F0D1F800216D
:1058A0004DF2085001F0CCF85C214DF2095001F0A6
:1058B000C7F800214DF20A5001F0C2F881214DF2E3
:1058C0000B5001F0BDF800214DF20C5001F0B8F87A
:1058D000A6214DF20D5001F0B3F800214DF20E500B
:1058E00001F0AEF8E5214DF20F5001F0A9F80121C9
:1058F0004DF2105001F0A4F813214DF2115001F0B7
:105900009FF801214DF2125001F09AF854214DF206
:10591000135001F095F801214DF2145001F090F868
:1059200082214DF2155001F08BF801214DF21650F5
:1059300001F086F8CA214DF2175001F081F80221DA
:105940004DF2185001F07CF800214DF2195001F091
:1059500077F802214DF21A5001F072F801214DF250
:105960001B5001F06DF802214DF21C5001F068F857
:1059700034214DF21D5001F063F802214DF21E500A
:1059800001F05EF867214DF21F5001F059F8022135
:105990004DF2205001F054F884214DF2215001F0D5
:1059A0004FF802214DF2225001F04AF8A4214DF2A5
:1059B000235001F045F802214DF2245001F040F847
:1059C000B7214DF2255001F03BF802214DF226504F
:1059D00001F036F8CF214DF2275001F031F80221C5
:1059E0004DF2285001F02CF8DE214DF2295001F043
:1059F00027F802214DF22A5001F022F8F2214DF24F
:105A00002B5001F01DF802214DF22C5001F018F836
:105A1000FE214DF22D5001F013F803214DF22E50CE
:105A200001F00EF810214DF22F5001F009F803217A
:105A30004DF2305001F004F833214DF2315000F0B6
:105A4000FFFF03214DF2325000F0FAFF6D214DF2BD
:105A5000335000F0F5FF00214FF4564000F0F0FF06
:105A600033214DF2016000F0EBFF00214DF20260A6
:105A700000F0E6FF34214DF2036000F0E1FF002169
:105A80004DF2046000F0DCFF3A214DF2056000F0B9
:105A9000D7FF00214DF2066000F0D2FF4A214DF2FF
:105AA000076000F0CDFF00214DF2086000F0C8FF54
:105AB0005C214DF2096000F0C3FF00214DF20A6045
:105AC00000F0BEFF81214DF20B6000F0B9FF002114
:105AD0004DF20C6000F0B4FFA6214DF20D6000F015
